{
  "address": "0x022Bcb66662Bb3854b6f16bAbD4c13BFa3dB0b08",
  "abi": [
    {
      "inputs": [
        {
          "internalType": "contract IERC20",
          "name": "_lpToken",
          "type": "address"
        },
        {
          "internalType": "contract IERC20",
          "name": "_offeringToken",
          "type": "address"
        },
        {
          "internalType": "uint256",
          "name": "_startBlock",
          "type": "uint256"
        },
        {
          "internalType": "uint256",
          "name": "_endBlock",
          "type": "uint256"
        },
        {
          "internalType": "uint256",
          "name": "_vestingBlockOffset",
          "type": "uint256"
        },
        {
          "internalType": "uint256",
          "name": "_eligibilityThreshold",
          "type": "uint256"
        },
        {
          "internalType": "address",
          "name": "_solarVault",
          "type": "address"
        },
        {
          "internalType": "uint256[]",
          "name": "_harvestReleasePercent",
          "type": "uint256[]"
        },
        {
          "internalType": "bytes",
          "name": "_multipliers",
          "type": "bytes"
        }
      ],
      "stateMutability": "nonpayable",
      "type": "constructor"
    },
    {
      "anonymous": false,
      "inputs": [
        {
          "indexed": false,
          "internalType": "address",
          "name": "token",
          "type": "address"
        },
        {
          "indexed": false,
          "internalType": "uint256",
          "name": "amount",
          "type": "uint256"
        }
      ],
      "name": "AdminTokenRecovery",
      "type": "event"
    },
    {
      "anonymous": false,
      "inputs": [
        {
          "indexed": false,
          "internalType": "uint256",
          "name": "amountLP",
          "type": "uint256"
        },
        {
          "indexed": false,
          "internalType": "uint256",
          "name": "amountOfferingToken",
          "type": "uint256"
        }
      ],
      "name": "AdminWithdraw",
      "type": "event"
    },
    {
      "anonymous": false,
      "inputs": [],
      "name": "ClaimEnabled",
      "type": "event"
    },
    {
      "anonymous": false,
      "inputs": [
        {
          "indexed": true,
          "internalType": "address",
          "name": "user",
          "type": "address"
        },
        {
          "indexed": false,
          "internalType": "uint256",
          "name": "amount",
          "type": "uint256"
        },
        {
          "indexed": true,
          "internalType": "uint256",
          "name": "pid",
          "type": "uint256"
        }
      ],
      "name": "Deposit",
      "type": "event"
    },
    {
      "anonymous": false,
      "inputs": [
        {
          "indexed": true,
          "internalType": "address",
          "name": "user",
          "type": "address"
        },
        {
          "indexed": false,
          "internalType": "uint256",
          "name": "offeringAmount",
          "type": "uint256"
        },
        {
          "indexed": false,
          "internalType": "uint256",
          "name": "excessAmount",
          "type": "uint256"
        },
        {
          "indexed": true,
          "internalType": "uint8",
          "name": "pid",
          "type": "uint8"
        }
      ],
      "name": "Harvest",
      "type": "event"
    },
    {
      "anonymous": false,
      "inputs": [
        {
          "indexed": false,
          "internalType": "uint16[3]",
          "name": "poolStakedThresholds",
          "type": "uint16[3]"
        },
        {
          "indexed": false,
          "internalType": "uint8[3]",
          "name": "poolBaseMultiplier",
          "type": "uint8[3]"
        },
        {
          "indexed": false,
          "internalType": "uint8[3][3]",
          "name": "poolStakedMultipliers",
          "type": "uint8[3][3]"
        }
      ],
      "name": "MultiplierParametersSet",
      "type": "event"
    },
    {
      "anonymous": false,
      "inputs": [
        {
          "indexed": false,
          "internalType": "uint256",
          "name": "startBlock",
          "type": "uint256"
        },
        {
          "indexed": false,
          "internalType": "uint256",
          "name": "endBlock",
          "type": "uint256"
        }
      ],
      "name": "NewStartAndEndBlocks",
      "type": "event"
    },
    {
      "anonymous": false,
      "inputs": [
        {
          "indexed": true,
          "internalType": "address",
          "name": "previousOwner",
          "type": "address"
        },
        {
          "indexed": true,
          "internalType": "address",
          "name": "newOwner",
          "type": "address"
        }
      ],
      "name": "OwnershipTransferred",
      "type": "event"
    },
    {
      "anonymous": false,
      "inputs": [
        {
          "indexed": false,
          "internalType": "uint256",
          "name": "raisingAmount",
          "type": "uint256"
        },
        {
          "indexed": false,
          "internalType": "uint256",
          "name": "offeringAmount",
          "type": "uint256"
        },
        {
          "indexed": false,
          "internalType": "uint8",
          "name": "pid",
          "type": "uint8"
        }
      ],
      "name": "PoolParametersSet",
      "type": "event"
    },
    {
      "anonymous": false,
      "inputs": [
        {
          "indexed": true,
          "internalType": "address",
          "name": "user",
          "type": "address"
        },
        {
          "indexed": false,
          "internalType": "uint256",
          "name": "amount",
          "type": "uint256"
        },
        {
          "indexed": true,
          "internalType": "uint256",
          "name": "pid",
          "type": "uint256"
        }
      ],
      "name": "Withdraw",
      "type": "event"
    },
    {
      "inputs": [],
      "name": "HARVEST_PERIODS",
      "outputs": [
        {
          "internalType": "uint8",
          "name": "",
          "type": "uint8"
        }
      ],
      "stateMutability": "view",
      "type": "function"
    },
    {
      "inputs": [],
      "name": "NUMBER_THRESHOLDS",
      "outputs": [
        {
          "internalType": "uint8",
          "name": "",
          "type": "uint8"
        }
      ],
      "stateMutability": "view",
      "type": "function"
    },
    {
      "inputs": [],
      "name": "NUMBER_VAULT_POOLS",
      "outputs": [
        {
          "internalType": "uint8",
          "name": "",
          "type": "uint8"
        }
      ],
      "stateMutability": "view",
      "type": "function"
    },
    {
      "inputs": [],
      "name": "claimEnabled",
      "outputs": [
        {
          "internalType": "bool",
          "name": "",
          "type": "bool"
        }
      ],
      "stateMutability": "view",
      "type": "function"
    },
    {
      "inputs": [
        {
          "internalType": "uint256",
          "name": "_amount",
          "type": "uint256"
        },
        {
          "internalType": "uint8",
          "name": "_pid",
          "type": "uint8"
        }
      ],
      "name": "depositPool",
      "outputs": [],
      "stateMutability": "nonpayable",
      "type": "function"
    },
    {
      "inputs": [],
      "name": "eligibilityThreshold",
      "outputs": [
        {
          "internalType": "uint256",
          "name": "",
          "type": "uint256"
        }
      ],
      "stateMutability": "view",
      "type": "function"
    },
    {
      "inputs": [],
      "name": "enableClaim",
      "outputs": [],
      "stateMutability": "nonpayable",
      "type": "function"
    },
    {
      "inputs": [],
      "name": "endBlock",
      "outputs": [
        {
          "internalType": "uint256",
          "name": "",
          "type": "uint256"
        }
      ],
      "stateMutability": "view",
      "type": "function"
    },
    {
      "inputs": [
        {
          "internalType": "uint256",
          "name": "_lpAmount",
          "type": "uint256"
        },
        {
          "internalType": "uint256",
          "name": "_offerAmount",
          "type": "uint256"
        }
      ],
      "name": "finalWithdraw",
      "outputs": [],
      "stateMutability": "nonpayable",
      "type": "function"
    },
    {
      "inputs": [
        {
          "internalType": "address",
          "name": "_user",
          "type": "address"
        }
      ],
      "name": "getUserEligibility",
      "outputs": [
        {
          "internalType": "bool",
          "name": "",
          "type": "bool"
        }
      ],
      "stateMutability": "view",
      "type": "function"
    },
    {
      "inputs": [
        {
          "internalType": "address",
          "name": "_user",
          "type": "address"
        }
      ],
      "name": "getUserMultiplier",
      "outputs": [
        {
          "internalType": "uint16",
          "name": "",
          "type": "uint16"
        }
      ],
      "stateMutability": "view",
      "type": "function"
    },
    {
      "inputs": [
        {
          "internalType": "uint8",
          "name": "_pid",
          "type": "uint8"
        },
        {
          "internalType": "uint8",
          "name": "_harvestPeriod",
          "type": "uint8"
        }
      ],
      "name": "harvestPool",
      "outputs": [],
      "stateMutability": "nonpayable",
      "type": "function"
    },
    {
      "inputs": [
        {
          "internalType": "uint256",
          "name": "",
          "type": "uint256"
        }
      ],
      "name": "harvestReleaseBlocks",
      "outputs": [
        {
          "internalType": "uint256",
          "name": "",
          "type": "uint256"
        }
      ],
      "stateMutability": "view",
      "type": "function"
    },
    {
      "inputs": [
        {
          "internalType": "uint256",
          "name": "",
          "type": "uint256"
        }
      ],
      "name": "harvestReleasePercent",
      "outputs": [
        {
          "internalType": "uint256",
          "name": "",
          "type": "uint256"
        }
      ],
      "stateMutability": "view",
      "type": "function"
    },
    {
      "inputs": [
        {
          "internalType": "address",
          "name": "_user",
          "type": "address"
        },
        {
          "internalType": "uint8",
          "name": "_pid",
          "type": "uint8"
        },
        {
          "internalType": "uint8",
          "name": "_harvestPeriod",
          "type": "uint8"
        }
      ],
      "name": "hasHarvested",
      "outputs": [
        {
          "internalType": "bool",
          "name": "",
          "type": "bool"
        }
      ],
      "stateMutability": "view",
      "type": "function"
    },
    {
      "inputs": [],
      "name": "lpToken",
      "outputs": [
        {
          "internalType": "contract IERC20",
          "name": "",
          "type": "address"
        }
      ],
      "stateMutability": "view",
      "type": "function"
    },
    {
      "inputs": [],
      "name": "numberPools",
      "outputs": [
        {
          "internalType": "uint8",
          "name": "",
          "type": "uint8"
        }
      ],
      "stateMutability": "view",
      "type": "function"
    },
    {
      "inputs": [],
      "name": "offeringToken",
      "outputs": [
        {
          "internalType": "contract IERC20",
          "name": "",
          "type": "address"
        }
      ],
      "stateMutability": "view",
      "type": "function"
    },
    {
      "inputs": [],
      "name": "owner",
      "outputs": [
        {
          "internalType": "address",
          "name": "",
          "type": "address"
        }
      ],
      "stateMutability": "view",
      "type": "function"
    },
    {
      "inputs": [
        {
          "internalType": "uint256",
          "name": "",
          "type": "uint256"
        }
      ],
      "name": "poolInfo",
      "outputs": [
        {
          "internalType": "uint256",
          "name": "raisingAmount",
          "type": "uint256"
        },
        {
          "internalType": "uint256",
          "name": "offeringAmount",
          "type": "uint256"
        },
        {
          "internalType": "uint256",
          "name": "baseLimitInLP",
          "type": "uint256"
        },
        {
          "internalType": "bool",
          "name": "hasTax",
          "type": "bool"
        },
        {
          "internalType": "uint256",
          "name": "totalAmountPool",
          "type": "uint256"
        },
        {
          "internalType": "uint256",
          "name": "sumTaxesOverflow",
          "type": "uint256"
        },
        {
          "internalType": "uint256",
          "name": "totalAllocPoints",
          "type": "uint256"
        }
      ],
      "stateMutability": "view",
      "type": "function"
    },
    {
      "inputs": [],
      "name": "renounceOwnership",
      "outputs": [],
      "stateMutability": "nonpayable",
      "type": "function"
    },
    {
      "inputs": [
        {
          "internalType": "uint256",
          "name": "_eligibilityThreshold",
          "type": "uint256"
        }
      ],
      "name": "setEligibilityThreshold",
      "outputs": [],
      "stateMutability": "nonpayable",
      "type": "function"
    },
    {
      "inputs": [
        {
          "internalType": "bytes",
          "name": "_multipliers",
          "type": "bytes"
        }
      ],
      "name": "setMultipliers",
      "outputs": [],
      "stateMutability": "nonpayable",
      "type": "function"
    },
    {
      "inputs": [
        {
          "internalType": "contract IERC20",
          "name": "_offeringToken",
          "type": "address"
        }
      ],
      "name": "setOfferingToken",
      "outputs": [],
      "stateMutability": "nonpayable",
      "type": "function"
    },
    {
      "inputs": [
        {
          "internalType": "uint256",
          "name": "_raisingAmount",
          "type": "uint256"
        },
        {
          "internalType": "uint256",
          "name": "_offeringAmount",
          "type": "uint256"
        },
        {
          "internalType": "uint256",
          "name": "_baseLimitInLP",
          "type": "uint256"
        },
        {
          "internalType": "bool",
          "name": "_hasTax",
          "type": "bool"
        },
        {
          "internalType": "uint8",
          "name": "_pid",
          "type": "uint8"
        }
      ],
      "name": "setPool",
      "outputs": [],
      "stateMutability": "nonpayable",
      "type": "function"
    },
    {
      "inputs": [],
      "name": "startBlock",
      "outputs": [
        {
          "internalType": "uint256",
          "name": "",
          "type": "uint256"
        }
      ],
      "stateMutability": "view",
      "type": "function"
    },
    {
      "inputs": [
        {
          "internalType": "address",
          "name": "_tokenAddress",
          "type": "address"
        },
        {
          "internalType": "uint256",
          "name": "_amount",
          "type": "uint256"
        }
      ],
      "name": "sweep",
      "outputs": [],
      "stateMutability": "nonpayable",
      "type": "function"
    },
    {
      "inputs": [
        {
          "internalType": "address",
          "name": "newOwner",
          "type": "address"
        }
      ],
      "name": "transferOwnership",
      "outputs": [],
      "stateMutability": "nonpayable",
      "type": "function"
    },
    {
      "inputs": [
        {
          "internalType": "uint256",
          "name": "_startBlock",
          "type": "uint256"
        },
        {
          "internalType": "uint256",
          "name": "_endBlock",
          "type": "uint256"
        }
      ],
      "name": "updateStartAndEndBlocks",
      "outputs": [],
      "stateMutability": "nonpayable",
      "type": "function"
    },
    {
      "inputs": [
        {
          "internalType": "address",
          "name": "",
          "type": "address"
        },
        {
          "internalType": "uint8",
          "name": "",
          "type": "uint8"
        }
      ],
      "name": "userInfo",
      "outputs": [
        {
          "internalType": "uint256",
          "name": "amount",
          "type": "uint256"
        },
        {
          "internalType": "uint256",
          "name": "allocPoints",
          "type": "uint256"
        },
        {
          "internalType": "bool",
          "name": "isRefunded",
          "type": "bool"
        }
      ],
      "stateMutability": "view",
      "type": "function"
    },
    {
      "inputs": [],
      "name": "vault",
      "outputs": [
        {
          "internalType": "contract SolarVault",
          "name": "",
          "type": "address"
        }
      ],
      "stateMutability": "view",
      "type": "function"
    },
    {
      "inputs": [],
      "name": "viewMultipliers",
      "outputs": [
        {
          "internalType": "uint16[]",
          "name": "",
          "type": "uint16[]"
        },
        {
          "internalType": "uint8[]",
          "name": "",
          "type": "uint8[]"
        },
        {
          "internalType": "uint8[][]",
          "name": "",
          "type": "uint8[][]"
        }
      ],
      "stateMutability": "view",
      "type": "function"
    },
    {
      "inputs": [
        {
          "internalType": "uint256",
          "name": "_pid",
          "type": "uint256"
        }
      ],
      "name": "viewPoolTaxRateOverflow",
      "outputs": [
        {
          "internalType": "uint256",
          "name": "",
          "type": "uint256"
        }
      ],
      "stateMutability": "view",
      "type": "function"
    },
    {
      "inputs": [
        {
          "internalType": "address",
          "name": "_user",
          "type": "address"
        },
        {
          "internalType": "uint8[]",
          "name": "_pids",
          "type": "uint8[]"
        }
      ],
      "name": "viewUserAllocationPools",
      "outputs": [
        {
          "internalType": "uint256[]",
          "name": "",
          "type": "uint256[]"
        }
      ],
      "stateMutability": "view",
      "type": "function"
    },
    {
      "inputs": [
        {
          "internalType": "address",
          "name": "_user",
          "type": "address"
        },
        {
          "internalType": "uint8[]",
          "name": "_pids",
          "type": "uint8[]"
        }
      ],
      "name": "viewUserOfferingAndRefundingAmountsForPools",
      "outputs": [
        {
          "internalType": "uint256[3][]",
          "name": "",
          "type": "uint256[3][]"
        }
      ],
      "stateMutability": "view",
      "type": "function"
    },
    {
      "inputs": [
        {
          "internalType": "uint256",
          "name": "_amount",
          "type": "uint256"
        },
        {
          "internalType": "uint8",
          "name": "_pid",
          "type": "uint8"
        }
      ],
      "name": "withdrawPool",
      "outputs": [],
      "stateMutability": "nonpayable",
      "type": "function"
    }
  ],
  "transactionHash": "0x617f063181e2edaa638f0097e32a9d971b85ed72d8b3ffe530a54559ac977b0f",
  "args": [
    "0x7eDA899b3522683636746a2f3a7814e6fFca75e1",
    "0x1e0F2A75Be02c025Bd84177765F89200c04337Da",
    809480,
    810960,
    177534,
    "50000000000000000000",
    "0x7e6E03822D0077F3C417D33caeAc900Fc2645679",
    [
      3000,
      2333,
      2333,
      2334
    ],
    "0x000000000000000000000000000000000000000000000000000000000000006000000000000000000000000000000000000000000000000000000000000000e0000000000000000000000000000000000000000000000000000000000000016000000000000000000000000000000000000000000000000000000000000000030000000000000000000000000000000000000000000000000000000000000032000000000000000000000000000000000000000000000000000000000000009600000000000000000000000000000000000000000000000000000000000001f4000000000000000000000000000000000000000000000000000000000000000300000000000000000000000000000000000000000000000000000000000000010000000000000000000000000000000000000000000000000000000000000002000000000000000000000000000000000000000000000000000000000000000a0000000000000000000000000000000000000000000000000000000000000003000000000000000000000000000000000000000000000000000000000000006000000000000000000000000000000000000000000000000000000000000000e00000000000000000000000000000000000000000000000000000000000000160000000000000000000000000000000000000000000000000000000000000000300000000000000000000000000000000000000000000000000000000000000010000000000000000000000000000000000000000000000000000000000000003000000000000000000000000000000000000000000000000000000000000000a000000000000000000000000000000000000000000000000000000000000000300000000000000000000000000000000000000000000000000000000000000010000000000000000000000000000000000000000000000000000000000000003000000000000000000000000000000000000000000000000000000000000000a000000000000000000000000000000000000000000000000000000000000000300000000000000000000000000000000000000000000000000000000000000010000000000000000000000000000000000000000000000000000000000000003000000000000000000000000000000000000000000000000000000000000000a"
  ],
  "solcInputHash": "08ce50431086bdfe518be638679460b0",
  "bytecode": "0x60806040526010805460ff191690553480156200001b57600080fd5b50604051620055f2380380620055f28339810160408190526200003e9162000a89565b60016000556200004e33620003a6565b6000896001600160a01b03166318160ddd6040518163ffffffff1660e01b815260040160206040518083038186803b1580156200008a57600080fd5b505afa1580156200009f573d6000803e3d6000fd5b505050506040513d601f19601f82011682018060405250810190620000c5919062000b5a565b1015620000d157600080fd5b6000886001600160a01b03166318160ddd6040518163ffffffff1660e01b815260040160206040518083038186803b1580156200010d57600080fd5b505afa15801562000122573d6000803e3d6000fd5b505050506040513d601f19601f8201168201806040525081019062000148919062000b5a565b10156200015457600080fd5b876001600160a01b0316896001600160a01b03161415620001bc5760405162461bcd60e51b815260206004820152601860248201527f546f6b656e73206d75737420626520646966666572656e74000000000000000060448201526064015b60405180910390fd5b81516004146200020f5760405162461bcd60e51b815260206004820152601b60248201527f68617276657374207363686564756c65206d757374206d6174636800000000006044820152606401620001b3565b6000805b83518110156200025e5783818151811062000232576200023262000d0b565b60200260200101518262000247919062000c77565b915080620002558162000cb4565b91505062000213565b508061271014620002b25760405162461bcd60e51b815260206004820181905260248201527f686172766573742070657263656e74206d75737420746f74616c2031303030306044820152606401620001b3565b600280546001600160a01b03808d166001600160a01b031992831617909255600380548c8416908316179055600d8a9055600e899055600f87905560048054928716929091169190911790556200030982620003f8565b60005b6004811015620003955762000322818862000c92565b600e5462000331919062000c77565b6005826004811062000347576200034762000d0b565b0155835184908290811062000360576200036062000d0b565b6020026020010151600982600481106200037e576200037e62000d0b565b0155806200038c8162000cb4565b9150506200030c565b505050505050505050505062000d50565b600180546001600160a01b038381166001600160a01b0319831681179093556040519116919082907f8be0079c531659141344cd1fd0a4f28419497f9722a3daafe3b4186f6b6457e090600090a35050565b60008060008380602001905181019062000413919062000983565b925092509250600360ff1682511480156200042f575080516003145b6200047d5760405162461bcd60e51b815260206004820152601560248201527f626164207661756c7420706f6f6c206c656e67746800000000000000000000006044820152606401620001b3565b8251600314620004d05760405162461bcd60e51b815260206004820152601460248201527f626164207468726573686f6c64206c656e6774680000000000000000000000006044820152606401620001b3565b60005b600360ff821610156200055757838160ff1681518110620004f857620004f862000d0b565b602002602001015160206000018260ff16600381106200051c576200051c62000d0b565b601091828204019190066002026101000a81548161ffff021916908361ffff16021790555080806200054e9062000cd2565b915050620004d3565b5060005b600360ff821610156200070857828160ff168151811062000580576200058062000d0b565b602002602001015160206001018260ff1660038110620005a457620005a462000d0b565b602091828204019190066101000a81548160ff021916908360ff160217905550600360ff16828260ff1681518110620005e157620005e162000d0b565b60200260200101515114620006395760405162461bcd60e51b815260206004820152601460248201527f626164207468726573686f6c64206c656e6774680000000000000000000000006044820152606401620001b3565b60005b600360ff82161015620006f257828260ff168151811062000661576200066162000d0b565b60200260200101518160ff168151811062000680576200068062000d0b565b602002602001015160206002018360ff1660038110620006a457620006a462000d0b565b018260ff1660038110620006bc57620006bc62000d0b565b602091828204019190066101000a81548160ff021916908360ff1602179055508080620006e99062000cd2565b9150506200063c565b5080620006ff8162000cd2565b9150506200055b565b506040517fbfd876ad455399d10dc2d1788e56b9526a9ca9d32b9e5c6dc9b7a8d63f8d2ef190620007429060209060219060229062000b74565b60405180910390a150505050565b80516200075d8162000d37565b919050565b600082601f8301126200077457600080fd5b815160206200078d620007878362000c51565b62000c1e565b80838252828201915082860187848660051b8901011115620007ae57600080fd5b6000805b86811015620007f55782516001600160401b03811115620007d1578283fd5b620007e18b88838d010162000877565b8652509385019391850191600101620007b2565b509198975050505050505050565b600082601f8301126200081557600080fd5b8151602062000828620007878362000c51565b80838252828201915082860187848660051b89010111156200084957600080fd5b60005b858110156200086a578151845292840192908401906001016200084c565b5090979650505050505050565b600082601f8301126200088957600080fd5b815160206200089c620007878362000c51565b80838252828201915082860187848660051b8901011115620008bd57600080fd5b6000805b86811015620007f557825160ff81168114620008db578283fd5b85529385019391850191600101620008c1565b600082601f8301126200090057600080fd5b81516001600160401b038111156200091c576200091c62000d21565b602062000932601f8301601f1916820162000c1e565b82815285828487010111156200094757600080fd5b60005b83811015620009675785810183015182820184015282016200094a565b83811115620009795760008385840101525b5095945050505050565b6000806000606084860312156200099957600080fd5b83516001600160401b0380821115620009b157600080fd5b818601915086601f830112620009c657600080fd5b81516020620009d9620007878362000c51565b8083825282820191508286018b848660051b8901011115620009fa57600080fd5b600096505b8487101562000a3057805161ffff8116811462000a1b57600080fd5b835260019690960195918301918301620009ff565b509189015191975090935050508082111562000a4b57600080fd5b62000a598783880162000877565b9350604086015191508082111562000a7057600080fd5b5062000a7f8682870162000762565b9150509250925092565b60008060008060008060008060006101208a8c03121562000aa957600080fd5b895162000ab68162000d37565b60208b015190995062000ac98162000d37565b8098505060408a0151965060608a0151955060808a0151945060a08a0151935062000af760c08b0162000750565b60e08b01519093506001600160401b038082111562000b1557600080fd5b62000b238d838e0162000803565b93506101008c015191508082111562000b3b57600080fd5b5062000b4a8c828d01620008ee565b9150509295985092959850929598565b60006020828403121562000b6d57600080fd5b5051919050565b60006101e082019050845461ffff8082168452808260101c166020850152808260201c1660408501525050606062000bce81840186805460ff8116835260ff8160081c16602084015260ff8160101c166040840152505050565b60c083018460005b600381101562000c1257815460ff8082168552600882901c8116602086015260109190911c166040840152918301916001918201910162000bd6565b50505050949350505050565b604051601f8201601f191681016001600160401b038111828210171562000c495762000c4962000d21565b604052919050565b60006001600160401b0382111562000c6d5762000c6d62000d21565b5060051b60200190565b6000821982111562000c8d5762000c8d62000cf5565b500190565b600081600019048311821515161562000caf5762000caf62000cf5565b500290565b600060001982141562000ccb5762000ccb62000cf5565b5060010190565b600060ff821660ff81141562000cec5762000cec62000cf5565b60010192915050565b634e487b7160e01b600052601160045260246000fd5b634e487b7160e01b600052603260045260246000fd5b634e487b7160e01b600052604160045260246000fd5b6001600160a01b038116811462000d4d57600080fd5b50565b6148928062000d606000396000f3fe608060405234801561001057600080fd5b506004361061025c5760003560e01c80638da5cb5b11610145578063b7813607116100bd578063dc8d31b61161008c578063f2fde38b11610071578063f2fde38b14610587578063f9cd5c121461059a578063fbfa77cf146105ba57600080fd5b8063dc8d31b61461056b578063efccd9ac1461057457600080fd5b8063b781360714610505578063c5e22f3f14610525578063ca463ca41461054b578063d08d66bd1461045e57600080fd5b80639f1b524811610114578063b1c97194116100f9578063b1c9719414610490578063b2151071146104ea578063b42392f1146104fd57600080fd5b80639f1b524814610466578063a330ebc01461047957600080fd5b80638da5cb5b1461041a5780639513997f14610438578063973540d91461044b5780639ccb28341461045e57600080fd5b8063362b297c116101d857806348cd4cb1116101a75780636ea056a91161018c5780636ea056a9146103ec578063715018a6146103ff5780637f1bdd761461040757600080fd5b806348cd4cb11461039e5780635fcbd285146103a757600080fd5b8063362b297c1461035257806337f859b8146103655780633c7d0d961461037857806345b8bf911461038b57600080fd5b80631526fe271161022f5780632799d8df116102145780632799d8df1461031a5780632866ed211461033d57806328dae6e31461034a57600080fd5b80631526fe27146102bf5780631adad1a11461030757600080fd5b8063083c632314610261578063089a6fb81461027d5780630e1da786146102925780631025bff8146102ac575b600080fd5b61026a600e5481565b6040519081526020015b60405180910390f35b61029061028b366004614275565b6105da565b005b61029a600481565b60405160ff9091168152602001610274565b61026a6102ba36600461418b565b610a46565b6102d26102cd36600461418b565b610a5d565b604080519788526020880196909652948601939093529015156060850152608084015260a083015260c082015260e001610274565b61026a61031536600461418b565b610aa4565b61032d610328366004613f79565b610ab4565b6040519015158152602001610274565b60105461032d9060ff1681565b610290610b1d565b6102906103603660046140d8565b610ccd565b61026a61037336600461418b565b610dc5565b61029061038636600461418b565b610e32565b6102906103993660046141df565b610f23565b61026a600d5481565b6002546103c79073ffffffffffffffffffffffffffffffffffffffff1681565b60405173ffffffffffffffffffffffffffffffffffffffff9091168152602001610274565b6102906103fa366004613f14565b611174565b610290611316565b610290610415366004614275565b6113a3565b60015473ffffffffffffffffffffffffffffffffffffffff166103c7565b6102906104463660046141bd565b6119da565b6102906104593660046142b7565b611c24565b61029a600381565b6102906104743660046141bd565b61225f565b6104816125e9565b60405161027493929190614440565b6104cd61049e366004613f40565b601160209081526000928352604080842090915290825290208054600182015460039092015490919060ff1683565b604080519384526020840192909252151590820152606001610274565b61032d6104f8366004613e6f565b61289a565b61029a600281565b6003546103c79073ffffffffffffffffffffffffffffffffffffffff1681565b610538610533366004613e6f565b612987565b60405161ffff9091168152602001610274565b61055e610559366004613e8c565b612b69565b604051610274919061432f565b61026a600f5481565b610290610582366004613e6f565b612cb5565b610290610595366004613e6f565b612e73565b6105ad6105a8366004613e8c565b612fa0565b6040516102749190614510565b6004546103c79073ffffffffffffffffffffffffffffffffffffffff1681565b6002600054141561064c576040517f08c379a000000000000000000000000000000000000000000000000000000000815260206004820152601f60248201527f5265656e7472616e637947756172643a207265656e7472616e742063616c6c0060448201526064015b60405180910390fd5b6002600055600d5443108015906106645750600e5443105b6106ca576040517f08c379a000000000000000000000000000000000000000000000000000000000815260206004820152600f60248201527f53616c65206e6f742061637469766500000000000000000000000000000000006044820152606401610643565b33600090815260116020908152604080832060ff8516808552925290912090600211610752576040517f08c379a000000000000000000000000000000000000000000000000000000000815260206004820152601360248201527f706f6f6c20646f6573206e6f74206578697374000000000000000000000000006044820152606401610643565b600060128360ff166002811061076a5761076a6147bf565b60070201600101541180156107995750600060128360ff1660028110610792576107926147bf565b6007020154115b6107ff576040517f08c379a000000000000000000000000000000000000000000000000000000000815260206004820152600c60248201527f706f6f6c206e6f742073657400000000000000000000000000000000000000006044820152606401610643565b60008311801561080f5750805415155b801561081c575080548311155b6108a8576040517f08c379a000000000000000000000000000000000000000000000000000000000815260206004820152602960248201527f77697468647261773a20616d6f756e7420686967686572207468616e2075736560448201527f722062616c616e636500000000000000000000000000000000000000000000006064820152608401610643565b828160000160008282546108bc91906146d2565b90915550839050601260ff8416600281106108d9576108d96147bf565b6007020160040160008282546108ef91906146d2565b909155506012905060ff83166002811061090b5761090b6147bf565b6007020160020154600014156109de57600061092633612987565b33600090815260116020908152604080832060ff88168085529252909120600101549192506012906002811061095e5761095e6147bf565b60070201600601600082825461097491906146d2565b9091555050815461098a9061ffff831690614695565b33600090815260116020908152604080832060ff88168085529252909120600101829055601290600281106109c1576109c16147bf565b6007020160060160008282546109d79190614618565b9091555050505b600254610a029073ffffffffffffffffffffffffffffffffffffffff16338561305c565b60405183815260ff83169033907ff279e6a1f5e320cca91135676d9cb6e44ca8a08c0b88342bcdb1144f6511b5689060200160405180910390a35050600160005550565b60058160048110610a5657600080fd5b0154905081565b60128160028110610a6d57600080fd5b600702018054600182015460028301546003840154600485015460058601546006909601549496509294919360ff90911692919087565b60098160048110610a5657600080fd5b73ffffffffffffffffffffffffffffffffffffffff8316600090815260116020908152604080832060ff80871685529252822060020190831660048110610afd57610afd6147bf565b602081049091015460ff601f9092166101000a90041690505b9392505050565b60015473ffffffffffffffffffffffffffffffffffffffff163314610b9e576040517f08c379a000000000000000000000000000000000000000000000000000000000815260206004820181905260248201527f4f776e61626c653a2063616c6c6572206973206e6f7420746865206f776e65726044820152606401610643565b600e54431015610c0a576040517f08c379a000000000000000000000000000000000000000000000000000000000815260206004820152601160248201527f73616c65207374696c6c206163746976650000000000000000000000000000006044820152606401610643565b60105460ff1615610c77576040517f08c379a000000000000000000000000000000000000000000000000000000000815260206004820152601860248201527f636c61696d20697320616c726561647920656e61626c656400000000000000006044820152606401610643565b601080547fffffffffffffffffffffffffffffffffffffffffffffffffffffffffffffff001660011790556040517fca666f7745697e47f1359d151c9445641549379e821785dd1fa6c38f7f8bc3da90600090a1565b60015473ffffffffffffffffffffffffffffffffffffffff163314610d4e576040517f08c379a000000000000000000000000000000000000000000000000000000000815260206004820181905260248201527f4f776e61626c653a2063616c6c6572206973206e6f7420746865206f776e65726044820152606401610643565b600d544310610db9576040517f08c379a000000000000000000000000000000000000000000000000000000000815260206004820152601660248201527f73616c6520697320616c726561647920616374697665000000000000000000006044820152606401610643565b610dc281613135565b50565b600060128260028110610dda57610dda6147bf565b600702016003015460ff16610df157506000919050565b610e2c60128360028110610e0757610e076147bf565b600702016004015460128460028110610e2257610e226147bf565b60070201546134a9565b92915050565b60015473ffffffffffffffffffffffffffffffffffffffff163314610eb3576040517f08c379a000000000000000000000000000000000000000000000000000000000815260206004820181905260248201527f4f776e61626c653a2063616c6c6572206973206e6f7420746865206f776e65726044820152606401610643565b600d544310610f1e576040517f08c379a000000000000000000000000000000000000000000000000000000000815260206004820152601660248201527f73616c6520697320616c726561647920616374697665000000000000000000006044820152606401610643565b600f55565b60015473ffffffffffffffffffffffffffffffffffffffff163314610fa4576040517f08c379a000000000000000000000000000000000000000000000000000000000815260206004820181905260248201527f4f776e61626c653a2063616c6c6572206973206e6f7420746865206f776e65726044820152606401610643565b600d54431061100f576040517f08c379a000000000000000000000000000000000000000000000000000000000815260206004820152601660248201527f73616c6520697320616c726561647920616374697665000000000000000000006044820152606401610643565b600260ff82161061107c576040517f08c379a000000000000000000000000000000000000000000000000000000000815260206004820152601360248201527f706f6f6c20646f6573206e6f74206578697374000000000000000000000000006044820152606401610643565b8460128260ff1660028110611093576110936147bf565b600702015583601260ff8316600281106110af576110af6147bf565b60070201600101819055508260128260ff16600281106110d1576110d16147bf565b60070201600201819055508160128260ff16600281106110f3576110f36147bf565b6007020160030180547fffffffffffffffffffffffffffffffffffffffffffffffffffffffffffffff0016911515919091179055604080518581526020810187905260ff8316918101919091527fddaf243a142670be60c19ff7116b5d8b124717b29bb4cc03cead42161614105b9060600160405180910390a15050505050565b60015473ffffffffffffffffffffffffffffffffffffffff1633146111f5576040517f08c379a000000000000000000000000000000000000000000000000000000000815260206004820181905260248201527f4f776e61626c653a2063616c6c6572206973206e6f7420746865206f776e65726044820152606401610643565b60025473ffffffffffffffffffffffffffffffffffffffff83811691161480159061123b575060035473ffffffffffffffffffffffffffffffffffffffff838116911614155b6112a1576040517f08c379a000000000000000000000000000000000000000000000000000000000815260206004820152601e60248201527f43616e6e6f74206265204c50206f72204f66666572696e6720746f6b656e00006044820152606401610643565b6112c273ffffffffffffffffffffffffffffffffffffffff8316338361305c565b6040805173ffffffffffffffffffffffffffffffffffffffff84168152602081018390527f74545154aac348a3eac92596bd1971957ca94795f4e954ec5f613b55fab7812991015b60405180910390a15050565b60015473ffffffffffffffffffffffffffffffffffffffff163314611397576040517f08c379a000000000000000000000000000000000000000000000000000000000815260206004820181905260248201527f4f776e61626c653a2063616c6c6572206973206e6f7420746865206f776e65726044820152606401610643565b6113a1600061351c565b565b600d5443101580156113b65750600e5443105b61141c576040517f08c379a000000000000000000000000000000000000000000000000000000000815260206004820152600f60248201527f53616c65206e6f742061637469766500000000000000000000000000000000006044820152606401610643565b60026000541415611489576040517f08c379a000000000000000000000000000000000000000000000000000000000815260206004820152601f60248201527f5265656e7472616e637947756172643a207265656e7472616e742063616c6c006044820152606401610643565b6002600081815533815260116020908152604080832060ff861680855292529091209111611513576040517f08c379a000000000000000000000000000000000000000000000000000000000815260206004820152601360248201527f706f6f6c20646f6573206e6f74206578697374000000000000000000000000006044820152606401610643565b600060128360ff166002811061152b5761152b6147bf565b600702016001015411801561155a5750600060128360ff1660028110611553576115536147bf565b6007020154115b6115c0576040517f08c379a000000000000000000000000000000000000000000000000000000000815260206004820152600c60248201527f506f6f6c206e6f742073657400000000000000000000000000000000000000006044820152606401610643565b60005b600260ff82161015611673578260ff168160ff16146116615733600090815260116020908152604080832060ff8516845290915290205415611661576040517f08c379a000000000000000000000000000000000000000000000000000000000815260206004820181905260248201527f616c726561647920636f6d6d6974656420696e20616e6f7468657220706f6f6c6044820152606401610643565b8061166b81614770565b9150506115c3565b5060005b600381101561171c57600480546040517fe2bbb1580000000000000000000000000000000000000000000000000000000081529182018390526000602483015273ffffffffffffffffffffffffffffffffffffffff169063e2bbb15890604401600060405180830381600087803b1580156116f157600080fd5b505af1158015611705573d6000803e3d6000fd5b50505050808061171490614737565b915050611677565b5060006117283361289a565b905080611791576040517f08c379a000000000000000000000000000000000000000000000000000000000815260206004820152601160248201527f75736572206e6f7420656c696769626c650000000000000000000000000000006044820152606401610643565b6002546117b69073ffffffffffffffffffffffffffffffffffffffff16333087613593565b838260000160008282546117ca9190614618565b9091555060009050601260ff8516600281106117e8576117e86147bf565b600702016002015411156118a057600061180133612987565b90508061ffff1660128560ff166002811061181e5761181e6147bf565b60070201600201546118309190614695565b8354111561189a576040517f08c379a000000000000000000000000000000000000000000000000000000000815260206004820152601b60248201527f4e657720616d6f756e742061626f76652075736572206c696d697400000000006044820152606401610643565b50611963565b60006118ab33612987565b33600090815260116020908152604080832060ff8916808552925290912060010154919250601290600281106118e3576118e36147bf565b6007020160060160008282546118f991906146d2565b9091555050825461190f9061ffff831690614695565b33600090815260116020908152604080832060ff8916808552925290912060010182905560129060028110611946576119466147bf565b60070201600601600082825461195c9190614618565b9091555050505b8360128460ff166002811061197a5761197a6147bf565b6007020160040160008282546119909190614618565b909155505060405184815260ff84169033907f90890809c654f11d6e72a28fa60149770a0d11ec6c92319d6ceb2bb0a4ea1a159060200160405180910390a3505060016000555050565b60015473ffffffffffffffffffffffffffffffffffffffff163314611a5b576040517f08c379a000000000000000000000000000000000000000000000000000000000815260206004820181905260248201527f4f776e61626c653a2063616c6c6572206973206e6f7420746865206f776e65726044820152606401610643565b600d544310611ac6576040517f08c379a000000000000000000000000000000000000000000000000000000000815260206004820152601660248201527f73616c6520697320616c726561647920616374697665000000000000000000006044820152606401610643565b808210611b55576040517f08c379a000000000000000000000000000000000000000000000000000000000815260206004820152602e60248201527f6e6577207374617274426c6f636b206d757374206265206c6f7765722074686160448201527f6e206e657720656e64426c6f636b0000000000000000000000000000000000006064820152608401610643565b814310611be4576040517f08c379a000000000000000000000000000000000000000000000000000000000815260206004820152603060248201527f4e6577207374617274426c6f636b206d7573742062652068696768657220746860448201527f616e2063757272656e7420626c6f636b000000000000000000000000000000006064820152608401610643565b600d829055600e81905560408051838152602081018390527f7cd0ab87d19036f3dfadadb232c78aa4879dda3f0c994a9d637532410ee2ce06910161130a565b60026000541415611c91576040517f08c379a000000000000000000000000000000000000000000000000000000000815260206004820152601f60248201527f5265656e7472616e637947756172643a207265656e7472616e742063616c6c006044820152606401610643565b6002600055600e544310801590611caa575060105460ff165b611d10576040517f08c379a000000000000000000000000000000000000000000000000000000000815260206004820152601160248201527f73616c65206e6f742066696e69736865640000000000000000000000000000006044820152606401610643565b600260ff831610611d7d576040517f08c379a000000000000000000000000000000000000000000000000000000000815260206004820152601360248201527f706f6f6c20646f6573206e6f74206578697374000000000000000000000000006044820152606401610643565b600460ff821610611dea576040517f08c379a000000000000000000000000000000000000000000000000000000000815260206004820152601b60248201527f6861727665737420706572696f64206f7574206f662072616e676500000000006044820152606401610643565b60058160ff1660048110611e0057611e006147bf565b01544311611e6a576040517f08c379a000000000000000000000000000000000000000000000000000000000815260206004820152601060248201527f6e6f7420686172766573742074696d65000000000000000000000000000000006044820152606401610643565b33600090815260116020908152604080832060ff86168452909152902054611eee576040517f08c379a000000000000000000000000000000000000000000000000000000000815260206004820152601360248201527f646964206e6f74207061727469636970617465000000000000000000000000006044820152606401610643565b33600090815260116020908152604080832060ff8087168552925290912060020190821660048110611f2257611f226147bf565b602081049091015460ff601f9092166101000a90041615611fc5576040517f08c379a000000000000000000000000000000000000000000000000000000000815260206004820152602260248201527f6861727665737420666f7220706572696f6420616c726561647920636c61696d60448201527f65640000000000000000000000000000000000000000000000000000000000006064820152608401610643565b33600090815260116020908152604080832060ff80871685529252909120600191600290910190831660048110611ffe57611ffe6147bf565b602091828204019190066101000a81548160ff021916908315150217905550600080600061202c33866135f7565b919450925090508015801590612062575033600090815260116020908152604080832060ff808a16855292529091206003015416155b1561209a578060128660ff166002811061207e5761207e6147bf565b6007020160050160008282546120949190614618565b90915550505b6000821180156120ca575033600090815260116020908152604080832060ff808a16855292529091206003015416155b1561213f5733600081815260116020908152604080832060ff8a168452909152902060030180547fffffffffffffffffffffffffffffffffffffffffffffffffffffffffffffff0016600117905560025461213f9173ffffffffffffffffffffffffffffffffffffffff91909116908461305c565b6000831561219d5761271060098660ff1660048110612160576121606147bf565b015461216c9086614695565b6121769190614630565b60035490915061219d9073ffffffffffffffffffffffffffffffffffffffff16338361305c565b33600090815260116020908152604080832060ff808b16855292529091206001916002909101908716600481106121d6576121d66147bf565b602091828204019190066101000a81548160ff0219169083151502179055508560ff163373ffffffffffffffffffffffffffffffffffffffff167f51524c2e5edfedf8b01b29719c661e4fbe27e71734e7cd773dabb7cb712fb3b3838660405161224a929190918252602082015260400190565b60405180910390a35050600160005550505050565b60015473ffffffffffffffffffffffffffffffffffffffff1633146122e0576040517f08c379a000000000000000000000000000000000000000000000000000000000815260206004820181905260248201527f4f776e61626c653a2063616c6c6572206973206e6f7420746865206f776e65726044820152606401610643565b600e54431161234b576040517f08c379a000000000000000000000000000000000000000000000000000000000815260206004820152601560248201527f73616c6520686173206e6f742066696e697368656400000000000000000000006044820152606401610643565b6002546040517f70a0823100000000000000000000000000000000000000000000000000000000815230600482015273ffffffffffffffffffffffffffffffffffffffff909116906370a082319060240160206040518083038186803b1580156123b457600080fd5b505afa1580156123c8573d6000803e3d6000fd5b505050506040513d601f19601f820116820180604052508101906123ec91906141a4565b821115612455576040517f08c379a000000000000000000000000000000000000000000000000000000000815260206004820152601460248201527f4e6f7420656e6f756768204c5020746f6b656e730000000000000000000000006044820152606401610643565b6003546040517f70a0823100000000000000000000000000000000000000000000000000000000815230600482015273ffffffffffffffffffffffffffffffffffffffff909116906370a082319060240160206040518083038186803b1580156124be57600080fd5b505afa1580156124d2573d6000803e3d6000fd5b505050506040513d601f19601f820116820180604052508101906124f691906141a4565b81111561255f576040517f08c379a000000000000000000000000000000000000000000000000000000000815260206004820152601a60248201527f4e6f7420656e6f756768206f66666572696e6720746f6b656e730000000000006044820152606401610643565b8115612589576002546125899073ffffffffffffffffffffffffffffffffffffffff16338461305c565b80156125b3576003546125b39073ffffffffffffffffffffffffffffffffffffffff16338361305c565b60408051838152602081018390527f94ebb62a252249c867ecb758d386f50a95be7e8df9e1c52917c9cf494327dd7d910161130a565b60408051600380825260808201909252606091829182916000919060208201848036833701905050905060005b60038161ffff16101561268f57602061ffff82166003811061263a5761263a6147bf565b601091828204019190066002029054906101000a900461ffff16828261ffff168151811061266a5761266a6147bf565b61ffff909216602092830291909101909101528061268781614715565b915050612616565b50604080516003808252608082019092526000916020820160608036833701905050905060005b60038160ff16101561272757602160ff8216600381106126d8576126d86147bf565b602091828204019190069054906101000a900460ff16828260ff1681518110612703576127036147bf565b60ff909216602092830291909101909101528061271f81614770565b9150506126b6565b5060408051600380825260808201909252600091816020015b606081526020019060019003908161274057905050905060005b60038160ff16101561288d57602260ff82166003811061277c5761277c6147bf565b505060408051600380825260808201909252906020820160608036833701905050828260ff16815181106127b2576127b26147bf565b602002602001018190525060005b602260ff8316600381106127d6576127d66147bf565b505060038160ff16101561287a57602260ff8316600381106127fa576127fa6147bf565b018160ff166003811061280f5761280f6147bf565b602091828204019190069054906101000a900460ff16838360ff168151811061283a5761283a6147bf565b60200260200101518260ff1681518110612856576128566147bf565b60ff909216602092830291909101909101528061287281614770565b9150506127c0565b508061288581614770565b91505061275a565b5091959094509092509050565b60008060005b600381101561297d57600480546040517f93f1a40b00000000000000000000000000000000000000000000000000000000815291820183905273ffffffffffffffffffffffffffffffffffffffff868116602484015216906393f1a40b9060440160a06040518083038186803b15801561291957600080fd5b505afa15801561292d573d6000803e3d6000fd5b505050506040513d601f19601f820116820180604052508101906129519190614235565b5050600f549294505050821061296b575060019392505050565b8061297581614737565b9150506128a0565b5060009392505050565b60008060008060005b600360ff82161015612b5f57600480546040517f93f1a40b00000000000000000000000000000000000000000000000000000000815260ff84169281019290925273ffffffffffffffffffffffffffffffffffffffff888116602484015216906393f1a40b9060440160a06040518083038186803b158015612a1157600080fd5b505afa158015612a25573d6000803e3d6000fd5b505050506040513d601f19601f82011682018060405250810190612a499190614235565b509294506000925050505b600360ff82161015612b4c57602260ff831660038110612a7657612a766147bf565b018160ff1660038110612a8b57612a8b6147bf565b602081049091015460ff601f9092166101000a9004811690602190841660038110612ab857612ab86147bf565b602081049190910154612ad79291601f166101000a900460ff1661466b565b9350602060ff821660038110612aef57612aef6147bf565b601091828204019190066002029054906101000a900461ffff1661ffff16670de0b6b3a7640000612b209190614695565b8310612b3a578461ffff168461ffff161115612b3a578394505b80612b4481614770565b915050612a54565b5080612b5781614770565b915050612990565b5091949350505050565b606060008267ffffffffffffffff811115612b8657612b866147ee565b604051908082528060200260200182016040528015612bbf57816020015b612bac613d44565b815260200190600190039081612ba45790505b50905060005b60ff8116841115612cac57600080600080601289898760ff16818110612bed57612bed6147bf565b9050602002016020810190612c02919061429a565b60ff1660028110612c1557612c156147bf565b60070201541115612c5b57612c538989898760ff16818110612c3957612c396147bf565b9050602002016020810190612c4e919061429a565b6135f7565b919450925090505b604051806060016040528084815260200183815260200182815250858560ff1681518110612c8b57612c8b6147bf565b60200260200101819052505050508080612ca490614770565b915050612bc5565b50949350505050565b60015473ffffffffffffffffffffffffffffffffffffffff163314612d36576040517f08c379a000000000000000000000000000000000000000000000000000000000815260206004820181905260248201527f4f776e61626c653a2063616c6c6572206973206e6f7420746865206f776e65726044820152606401610643565b600d544310612da1576040517f08c379a000000000000000000000000000000000000000000000000000000000815260206004820152601660248201527f73616c6520697320616c726561647920616374697665000000000000000000006044820152606401610643565b60008173ffffffffffffffffffffffffffffffffffffffff166318160ddd6040518163ffffffff1660e01b815260040160206040518083038186803b158015612de957600080fd5b505afa158015612dfd573d6000803e3d6000fd5b505050506040513d601f19601f82011682018060405250810190612e2191906141a4565b1015612e2c57600080fd5b600380547fffffffffffffffffffffffff00000000000000000000000000000000000000001673ffffffffffffffffffffffffffffffffffffffff92909216919091179055565b60015473ffffffffffffffffffffffffffffffffffffffff163314612ef4576040517f08c379a000000000000000000000000000000000000000000000000000000000815260206004820181905260248201527f4f776e61626c653a2063616c6c6572206973206e6f7420746865206f776e65726044820152606401610643565b73ffffffffffffffffffffffffffffffffffffffff8116612f97576040517f08c379a000000000000000000000000000000000000000000000000000000000815260206004820152602660248201527f4f776e61626c653a206e6577206f776e657220697320746865207a65726f206160448201527f64647265737300000000000000000000000000000000000000000000000000006064820152608401610643565b610dc28161351c565b606060008267ffffffffffffffff811115612fbd57612fbd6147ee565b604051908082528060200260200182016040528015612fe6578160200160208202803683370190505b50905060005b60ff8116841115612cac5761302a8686868460ff16818110613010576130106147bf565b9050602002016020810190613025919061429a565b61390b565b828260ff168151811061303f5761303f6147bf565b60209081029190910101528061305481614770565b915050612fec565b60405173ffffffffffffffffffffffffffffffffffffffff83166024820152604481018290526131309084907fa9059cbb00000000000000000000000000000000000000000000000000000000906064015b604080517fffffffffffffffffffffffffffffffffffffffffffffffffffffffffffffffe08184030181529190526020810180517bffffffffffffffffffffffffffffffffffffffffffffffffffffffff167fffffffff0000000000000000000000000000000000000000000000000000000090931692909217909152613a4e565b505050565b60008060008380602001905181019061314e9190613fc4565b925092509250600360ff168251148015613169575080516003145b6131cf576040517f08c379a000000000000000000000000000000000000000000000000000000000815260206004820152601560248201527f626164207661756c7420706f6f6c206c656e67746800000000000000000000006044820152606401610643565b825160031461323a576040517f08c379a000000000000000000000000000000000000000000000000000000000815260206004820152601460248201527f626164207468726573686f6c64206c656e6774680000000000000000000000006044820152606401610643565b60005b600360ff821610156132b757838160ff168151811061325e5761325e6147bf565b602002602001015160206000018260ff166003811061327f5761327f6147bf565b601091828204019190066002026101000a81548161ffff021916908361ffff16021790555080806132af90614770565b91505061323d565b5060005b600360ff8216101561346357828160ff16815181106132dc576132dc6147bf565b602002602001015160206001018260ff16600381106132fd576132fd6147bf565b602091828204019190066101000a81548160ff021916908360ff160217905550600360ff16828260ff1681518110613337576133376147bf565b602002602001015151146133a7576040517f08c379a000000000000000000000000000000000000000000000000000000000815260206004820152601460248201527f626164207468726573686f6c64206c656e6774680000000000000000000000006044820152606401610643565b60005b600360ff8216101561345057828260ff16815181106133cb576133cb6147bf565b60200260200101518160ff16815181106133e7576133e76147bf565b602002602001015160206002018360ff1660038110613408576134086147bf565b018260ff166003811061341d5761341d6147bf565b602091828204019190066101000a81548160ff021916908360ff160217905550808061344890614770565b9150506133aa565b508061345b81614770565b9150506132bb565b506040517fbfd876ad455399d10dc2d1788e56b9526a9ca9d32b9e5c6dc9b7a8d63f8d2ef19061349b90602090602190602290614399565b60405180910390a150505050565b6000806134b68385614630565b90506101f481106134ce576377359400915050610e2c565b60fa81106134e357639502f900915050610e2c565b606481106134f85763b2d05e00915050610e2c565b6032811061350e5764012a05f200915050610e2c565b506402540be4009392505050565b6001805473ffffffffffffffffffffffffffffffffffffffff8381167fffffffffffffffffffffffff0000000000000000000000000000000000000000831681179093556040519116919082907f8be0079c531659141344cd1fd0a4f28419497f9722a3daafe3b4186f6b6457e090600090a35050565b60405173ffffffffffffffffffffffffffffffffffffffff808516602483015283166044820152606481018290526135f19085907f23b872dd00000000000000000000000000000000000000000000000000000000906084016130ae565b50505050565b60008060008060008060128760ff1660028110613616576136166147bf565b6007020154601260ff891660028110613631576136316147bf565b6007020160040154111561380557600061364b898961390b565b905064e8d4a510008160128a60ff166002811061366a5761366a6147bf565b600702016001015461367c9190614695565b6136869190614630565b93506000670de0b6b3a764000060128a60ff16600281106136a9576136a96147bf565b600702016004015473ffffffffffffffffffffffffffffffffffffffff8c16600090815260116020908152604080832060ff8f1680855292529091205490601290600281106136fa576136fa6147bf565b60070201546137099190614695565b61371b90670de0b6b3a7640000614695565b6137259190614630565b61372f9190614630565b73ffffffffffffffffffffffffffffffffffffffff8b16600090815260116020908152604080832060ff8e1684529091529020549091506137719082906146d2565b935060128960ff1660028110613789576137896147bf565b600702016003015460ff16156137fe5760006137d260128b60ff16600281106137b4576137b46147bf565b600702016004015460128c60ff1660028110610e2257610e226147bf565b905064e8d4a510006137e48287614695565b6137ee9190614630565b93506137fa84866146d2565b9450505b50506138fd565b50600090508080601260ff891660028110613822576138226147bf565b600702016002015411156138b85760128760ff1660028110613846576138466147bf565b6007020154601260ff891660028110613861576138616147bf565b600702016001015473ffffffffffffffffffffffffffffffffffffffff8a16600090815260116020908152604080832060ff8d1684529091529020546138a79190614695565b6138b19190614630565b92506138fd565b64e8d4a510006138c8898961390b565b60128960ff16600281106138de576138de6147bf565b60070201600101546138f09190614695565b6138fa9190614630565b92505b919450925090509250925092565b60008060128360ff1660028110613924576139246147bf565b60070201600401541115613a4657600060128360ff166002811061394a5761394a6147bf565b600702016002015411156139db57620f424060128360ff1660028110613972576139726147bf565b600702016004015473ffffffffffffffffffffffffffffffffffffffff8516600090815260116020908152604080832060ff881684529091529020546139c090670de0b6b3a7640000614695565b6139ca9190614630565b6139d49190614630565b9050610e2c565b620f424060128360ff16600281106139f5576139f56147bf565b600702016006015473ffffffffffffffffffffffffffffffffffffffff8516600090815260116020908152604080832060ff881684529091529020600101546139c090670de0b6b3a7640000614695565b506000610e2c565b6000613ab0826040518060400160405280602081526020017f5361666545524332303a206c6f772d6c6576656c2063616c6c206661696c65648152508573ffffffffffffffffffffffffffffffffffffffff16613b5a9092919063ffffffff16565b8051909150156131305780806020019051810190613ace91906140bb565b613130576040517f08c379a000000000000000000000000000000000000000000000000000000000815260206004820152602a60248201527f5361666545524332303a204552433230206f7065726174696f6e20646964206e60448201527f6f742073756363656564000000000000000000000000000000000000000000006064820152608401610643565b6060613b698484600085613b71565b949350505050565b606082471015613c03576040517f08c379a000000000000000000000000000000000000000000000000000000000815260206004820152602660248201527f416464726573733a20696e73756666696369656e742062616c616e636520666f60448201527f722063616c6c00000000000000000000000000000000000000000000000000006064820152608401610643565b843b613c6b576040517f08c379a000000000000000000000000000000000000000000000000000000000815260206004820152601d60248201527f416464726573733a2063616c6c20746f206e6f6e2d636f6e74726163740000006044820152606401610643565b6000808673ffffffffffffffffffffffffffffffffffffffff168587604051613c949190614313565b60006040518083038185875af1925050503d8060008114613cd1576040519150601f19603f3d011682016040523d82523d6000602084013e613cd6565b606091505b5091509150613ce6828286613cf1565b979650505050505050565b60608315613d00575081610b16565b825115613d105782518084602001fd5b816040517f08c379a00000000000000000000000000000000000000000000000000000000081526004016106439190614554565b60405180606001604052806003906020820280368337509192915050565b600082601f830112613d7357600080fd5b81516020613d88613d83836145f4565b6145a5565b80838252828201915082860187848660051b8901011115613da857600080fd5b6000805b86811015613deb57825167ffffffffffffffff811115613dca578283fd5b613dd88b88838d0101613df9565b8652509385019391850191600101613dac565b509198975050505050505050565b600082601f830112613e0a57600080fd5b81516020613e1a613d83836145f4565b80838252828201915082860187848660051b8901011115613e3a57600080fd5b60005b85811015613e62578151613e508161484d565b84529284019290840190600101613e3d565b5090979650505050505050565b600060208284031215613e8157600080fd5b8135610b168161481d565b600080600060408486031215613ea157600080fd5b8335613eac8161481d565b9250602084013567ffffffffffffffff80821115613ec957600080fd5b818601915086601f830112613edd57600080fd5b813581811115613eec57600080fd5b8760208260051b8501011115613f0157600080fd5b6020830194508093505050509250925092565b60008060408385031215613f2757600080fd5b8235613f328161481d565b946020939093013593505050565b60008060408385031215613f5357600080fd5b8235613f5e8161481d565b91506020830135613f6e8161484d565b809150509250929050565b600080600060608486031215613f8e57600080fd5b8335613f998161481d565b92506020840135613fa98161484d565b91506040840135613fb98161484d565b809150509250925092565b600080600060608486031215613fd957600080fd5b835167ffffffffffffffff80821115613ff157600080fd5b818601915086601f83011261400557600080fd5b81516020614015613d83836145f4565b8083825282820191508286018b848660051b890101111561403557600080fd5b600096505b8487101561406857805161ffff8116811461405457600080fd5b83526001969096019591830191830161403a565b509189015191975090935050508082111561408257600080fd5b61408e87838801613df9565b935060408601519150808211156140a457600080fd5b506140b186828701613d62565b9150509250925092565b6000602082840312156140cd57600080fd5b8151610b168161483f565b600060208083850312156140eb57600080fd5b823567ffffffffffffffff8082111561410357600080fd5b818501915085601f83011261411757600080fd5b813581811115614129576141296147ee565b614159847fffffffffffffffffffffffffffffffffffffffffffffffffffffffffffffffe0601f840116016145a5565b9150808252868482850101111561416f57600080fd5b8084840185840137600090820190930192909252509392505050565b60006020828403121561419d57600080fd5b5035919050565b6000602082840312156141b657600080fd5b5051919050565b600080604083850312156141d057600080fd5b50508035926020909101359150565b600080600080600060a086880312156141f757600080fd5b85359450602086013593506040860135925060608601356142178161483f565b915060808601356142278161484d565b809150509295509295909350565b600080600080600060a0868803121561424d57600080fd5b5050835160208501516040860151606087015160809097015192989197509594509092509050565b6000806040838503121561428857600080fd5b823591506020830135613f6e8161484d565b6000602082840312156142ac57600080fd5b8135610b168161484d565b600080604083850312156142ca57600080fd5b8235613f5e8161484d565b600081518084526020808501945080840160005b8381101561430857815160ff16875295820195908201906001016142e9565b509495945050505050565b600082516143258184602087016146e9565b9190910192915050565b602080825282518282018190526000919084820190604085019084805b8281101561438c57845184835b600381101561437657825182529188019190880190600101614359565b505050938501936060939093019260010161434c565b5091979650505050505050565b60006101e082019050845461ffff8082168452808260101c166020850152808260201c166040850152505060606143f281840186805460ff8116835260ff8160081c16602084015260ff8160101c166040840152505050565b60c083018460005b600381101561443457815460ff8082168552600882901c8116602086015260109190911c16604084015291830191600191820191016143fa565b50505050949350505050565b606080825284519082018190526000906020906080840190828801845b8281101561447d57815161ffff168452928401929084019060010161445d565b5050508381038285015261449181876142d5565b905083810360408501528085518083528383019150838160051b84010184880160005b83811015614500577fffffffffffffffffffffffffffffffffffffffffffffffffffffffffffffffe08684030185526144ee8383516142d5565b948701949250908601906001016144b4565b50909a9950505050505050505050565b6020808252825182820181905260009190848201906040850190845b818110156145485783518352928401929184019160010161452c565b50909695505050505050565b60208152600082518060208401526145738160408501602087016146e9565b601f017fffffffffffffffffffffffffffffffffffffffffffffffffffffffffffffffe0169190910160400192915050565b604051601f82017fffffffffffffffffffffffffffffffffffffffffffffffffffffffffffffffe016810167ffffffffffffffff811182821017156145ec576145ec6147ee565b604052919050565b600067ffffffffffffffff82111561460e5761460e6147ee565b5060051b60200190565b6000821982111561462b5761462b614790565b500190565b600082614666577f4e487b7100000000000000000000000000000000000000000000000000000000600052601260045260246000fd5b500490565b600061ffff8083168185168183048111821515161561468c5761468c614790565b02949350505050565b6000817fffffffffffffffffffffffffffffffffffffffffffffffffffffffffffffffff04831182151516156146cd576146cd614790565b500290565b6000828210156146e4576146e4614790565b500390565b60005b838110156147045781810151838201526020016146ec565b838111156135f15750506000910152565b600061ffff8083168181141561472d5761472d614790565b6001019392505050565b60007fffffffffffffffffffffffffffffffffffffffffffffffffffffffffffffffff82141561476957614769614790565b5060010190565b600060ff821660ff81141561478757614787614790565b60010192915050565b7f4e487b7100000000000000000000000000000000000000000000000000000000600052601160045260246000fd5b7f4e487b7100000000000000000000000000000000000000000000000000000000600052603260045260246000fd5b7f4e487b7100000000000000000000000000000000000000000000000000000000600052604160045260246000fd5b73ffffffffffffffffffffffffffffffffffffffff81168114610dc257600080fd5b8015158114610dc257600080fd5b60ff81168114610dc257600080fdfea2646970667358221220b76543ee55fddcee9e0e4f716bc106539b94eb44bf7fd4845c5b8a4801f51fd064736f6c63430008070033",
  "devdoc": {
    "kind": "dev",
    "methods": {
      "depositPool(uint256,uint8)": {
        "details": "cannot withdraw LP tokens or Offering tokens",
        "params": {
          "_amount": ": amount of LP tokens to deposit",
          "_pid": ": pool to depoist in"
        }
      },
      "enableClaim()": {
        "details": "This function is only callable by owner."
      },
      "finalWithdraw(uint256,uint256)": {
        "details": "can only withdraw after the sale is finished",
        "params": {
          "_lpAmount": ": amount of LP token to withdraw",
          "_offerAmount": ": amount of IDO tokens to withdraw"
        }
      },
      "harvestPool(uint8,uint8)": {
        "params": {
          "_harvestPeriod": ": chosen harvest period to claim",
          "_pid": ": pool id"
        }
      },
      "owner()": {
        "details": "Returns the address of the current owner."
      },
      "renounceOwnership()": {
        "details": "Leaves the contract without owner. It will not be possible to call `onlyOwner` functions anymore. Can only be called by the current owner. NOTE: Renouncing ownership will leave the contract without an owner, thereby removing any functionality that is only available to the owner."
      },
      "setEligibilityThreshold(uint256)": {
        "params": {
          "_eligibilityThreshold": ": Number of solar staked to be eligibile. (1e18)"
        }
      },
      "setMultipliers(bytes)": {
        "params": {
          "_multipliers": ": abi encoded arrays"
        }
      },
      "setPool(uint256,uint256,uint256,bool,uint8)": {
        "details": "If _baseLimitInLP is set to zero, the allocation will be weighted by allocation points. (see below)",
        "params": {
          "_baseLimitInLP": ": base limit of tokens per eligible user (if 0, it is ignored) (1e18)",
          "_hasTax": ": true if a pool is to be taxed on overflow",
          "_offeringAmount": ": amount of IDO tokens the pool is offering (1e18)",
          "_pid": ": pool identification number",
          "_raisingAmount": ": amount of LP token the pool aims to raise (1e18)"
        }
      },
      "sweep(address,uint256)": {
        "details": "cannot withdraw LP tokens or Offering tokens",
        "params": {
          "_amount": ": amount to withdraw",
          "_tokenAddress": ": address of ERC20 token to withdraw"
        }
      },
      "transferOwnership(address)": {
        "details": "Transfers ownership of the contract to a new account (`newOwner`). Can only be called by the current owner."
      },
      "viewPoolTaxRateOverflow(uint256)": {
        "details": "100,000,000,000 means 0.1 (10%) / 1 means 0.0000000000001 (0.0000001%) / 1,000,000,000,000 means 1 (100%)",
        "params": {
          "_pid": ": poolId"
        },
        "returns": {
          "_0": "It returns the tax percentage"
        }
      },
      "viewUserAllocationPools(address,uint8[])": {
        "params": {
          "_pids": "[]: array of pids",
          "_user": ": user address"
        },
        "returns": {
          "_0": ""
        }
      },
      "viewUserOfferingAndRefundingAmountsForPools(address,uint8[])": {
        "params": {
          "_pids": ": array of pids",
          "_user": ": user address"
        }
      },
      "withdrawPool(uint256,uint8)": {
        "params": {
          "_amount": ": the number of LP token used (18 decimals)",
          "_pid": ": pool id"
        }
      }
    },
    "version": 1
  },
  "userdoc": {
    "kind": "user",
    "methods": {
      "depositPool(uint256,uint8)": {
        "notice": "It lets users deposit into a pool for a share of offering tokens"
      },
      "enableClaim()": {
        "notice": "It allows the admin to end sale and start claim"
      },
      "finalWithdraw(uint256,uint256)": {
        "notice": "It allows the owner to withdraw LPtokens and Offering tokens after the sale"
      },
      "harvestPool(uint8,uint8)": {
        "notice": "It allows users to harvest from pool"
      },
      "setEligibilityThreshold(uint256)": {
        "notice": "It sets the threshold of solar staked to be eligible to participate."
      },
      "setMultipliers(bytes)": {
        "notice": "It sets the multiplier matrix."
      },
      "setPool(uint256,uint256,uint256,bool,uint8)": {
        "notice": "It creates a pool."
      },
      "sweep(address,uint256)": {
        "notice": "It allows the owner to withdraw ERC20 tokens"
      },
      "updateStartAndEndBlocks(uint256,uint256)": {
        "notice": "It sets the start and end blocks of the sale."
      },
      "viewPoolTaxRateOverflow(uint256)": {
        "notice": "It returns the tax overflow rate calculated for a pool"
      },
      "viewUserAllocationPools(address,uint8[])": {
        "notice": "External view function to see user allocations for both pools"
      },
      "viewUserOfferingAndRefundingAmountsForPools(address,uint8[])": {
        "notice": "External view function to see user offering and refunding amounts for both pools"
      },
      "withdrawPool(uint256,uint8)": {
        "notice": "It allows users to withdraw LP tokens to pool"
      }
    },
    "version": 1
  },
  "storageLayout": {
    "storage": [
      {
        "astId": 650,
        "contract": "contracts/eclipse/CommonEclipse.sol:CommonEclipse",
        "label": "_status",
        "offset": 0,
        "slot": "0",
        "type": "t_uint256"
      },
      {
        "astId": 375,
        "contract": "contracts/eclipse/CommonEclipse.sol:CommonEclipse",
        "label": "_owner",
        "offset": 0,
        "slot": "1",
        "type": "t_address"
      },
      {
        "astId": 4020,
        "contract": "contracts/eclipse/CommonEclipse.sol:CommonEclipse",
        "label": "lpToken",
        "offset": 0,
        "slot": "2",
        "type": "t_contract(IERC20)1303"
      },
      {
        "astId": 4023,
        "contract": "contracts/eclipse/CommonEclipse.sol:CommonEclipse",
        "label": "offeringToken",
        "offset": 0,
        "slot": "3",
        "type": "t_contract(IERC20)1303"
      },
      {
        "astId": 4026,
        "contract": "contracts/eclipse/CommonEclipse.sol:CommonEclipse",
        "label": "vault",
        "offset": 0,
        "slot": "4",
        "type": "t_contract(SolarVault)9470"
      },
      {
        "astId": 4039,
        "contract": "contracts/eclipse/CommonEclipse.sol:CommonEclipse",
        "label": "harvestReleaseBlocks",
        "offset": 0,
        "slot": "5",
        "type": "t_array(t_uint256)4_storage"
      },
      {
        "astId": 4043,
        "contract": "contracts/eclipse/CommonEclipse.sol:CommonEclipse",
        "label": "harvestReleasePercent",
        "offset": 0,
        "slot": "9",
        "type": "t_array(t_uint256)4_storage"
      },
      {
        "astId": 4045,
        "contract": "contracts/eclipse/CommonEclipse.sol:CommonEclipse",
        "label": "startBlock",
        "offset": 0,
        "slot": "13",
        "type": "t_uint256"
      },
      {
        "astId": 4047,
        "contract": "contracts/eclipse/CommonEclipse.sol:CommonEclipse",
        "label": "endBlock",
        "offset": 0,
        "slot": "14",
        "type": "t_uint256"
      },
      {
        "astId": 4049,
        "contract": "contracts/eclipse/CommonEclipse.sol:CommonEclipse",
        "label": "eligibilityThreshold",
        "offset": 0,
        "slot": "15",
        "type": "t_uint256"
      },
      {
        "astId": 4052,
        "contract": "contracts/eclipse/CommonEclipse.sol:CommonEclipse",
        "label": "claimEnabled",
        "offset": 0,
        "slot": "16",
        "type": "t_bool"
      },
      {
        "astId": 4103,
        "contract": "contracts/eclipse/CommonEclipse.sol:CommonEclipse",
        "label": "userInfo",
        "offset": 0,
        "slot": "17",
        "type": "t_mapping(t_address,t_mapping(t_uint8,t_struct(UserInfo)4078_storage))"
      },
      {
        "astId": 4108,
        "contract": "contracts/eclipse/CommonEclipse.sol:CommonEclipse",
        "label": "poolInfo",
        "offset": 0,
        "slot": "18",
        "type": "t_array(t_struct(PoolInfo)4093_storage)2_storage"
      },
      {
        "astId": 4111,
        "contract": "contracts/eclipse/CommonEclipse.sol:CommonEclipse",
        "label": "_multiplierInfo",
        "offset": 0,
        "slot": "32",
        "type": "t_struct(Multipliers)4067_storage"
      }
    ],
    "types": {
      "t_address": {
        "encoding": "inplace",
        "label": "address",
        "numberOfBytes": "20"
      },
      "t_array(t_array(t_uint8)3_storage)3_storage": {
        "base": "t_array(t_uint8)3_storage",
        "encoding": "inplace",
        "label": "uint8[3][3]",
        "numberOfBytes": "96"
      },
      "t_array(t_bool)4_storage": {
        "base": "t_bool",
        "encoding": "inplace",
        "label": "bool[4]",
        "numberOfBytes": "32"
      },
      "t_array(t_struct(PoolInfo)4093_storage)2_storage": {
        "base": "t_struct(PoolInfo)4093_storage",
        "encoding": "inplace",
        "label": "struct CommonEclipse.PoolInfo[2]",
        "numberOfBytes": "448"
      },
      "t_array(t_uint16)3_storage": {
        "base": "t_uint16",
        "encoding": "inplace",
        "label": "uint16[3]",
        "numberOfBytes": "32"
      },
      "t_array(t_uint256)4_storage": {
        "base": "t_uint256",
        "encoding": "inplace",
        "label": "uint256[4]",
        "numberOfBytes": "128"
      },
      "t_array(t_uint8)3_storage": {
        "base": "t_uint8",
        "encoding": "inplace",
        "label": "uint8[3]",
        "numberOfBytes": "32"
      },
      "t_bool": {
        "encoding": "inplace",
        "label": "bool",
        "numberOfBytes": "1"
      },
      "t_contract(IERC20)1303": {
        "encoding": "inplace",
        "label": "contract IERC20",
        "numberOfBytes": "20"
      },
      "t_contract(SolarVault)9470": {
        "encoding": "inplace",
        "label": "contract SolarVault",
        "numberOfBytes": "20"
      },
      "t_mapping(t_address,t_mapping(t_uint8,t_struct(UserInfo)4078_storage))": {
        "encoding": "mapping",
        "key": "t_address",
        "label": "mapping(address => mapping(uint8 => struct CommonEclipse.UserInfo))",
        "numberOfBytes": "32",
        "value": "t_mapping(t_uint8,t_struct(UserInfo)4078_storage)"
      },
      "t_mapping(t_uint8,t_struct(UserInfo)4078_storage)": {
        "encoding": "mapping",
        "key": "t_uint8",
        "label": "mapping(uint8 => struct CommonEclipse.UserInfo)",
        "numberOfBytes": "32",
        "value": "t_struct(UserInfo)4078_storage"
      },
      "t_struct(Multipliers)4067_storage": {
        "encoding": "inplace",
        "label": "struct CommonEclipse.Multipliers",
        "members": [
          {
            "astId": 4056,
            "contract": "contracts/eclipse/CommonEclipse.sol:CommonEclipse",
            "label": "poolThresholds",
            "offset": 0,
            "slot": "0",
            "type": "t_array(t_uint16)3_storage"
          },
          {
            "astId": 4060,
            "contract": "contracts/eclipse/CommonEclipse.sol:CommonEclipse",
            "label": "poolBaseMult",
            "offset": 0,
            "slot": "1",
            "type": "t_array(t_uint8)3_storage"
          },
          {
            "astId": 4066,
            "contract": "contracts/eclipse/CommonEclipse.sol:CommonEclipse",
            "label": "poolMultipliers",
            "offset": 0,
            "slot": "2",
            "type": "t_array(t_array(t_uint8)3_storage)3_storage"
          }
        ],
        "numberOfBytes": "160"
      },
      "t_struct(PoolInfo)4093_storage": {
        "encoding": "inplace",
        "label": "struct CommonEclipse.PoolInfo",
        "members": [
          {
            "astId": 4080,
            "contract": "contracts/eclipse/CommonEclipse.sol:CommonEclipse",
            "label": "raisingAmount",
            "offset": 0,
            "slot": "0",
            "type": "t_uint256"
          },
          {
            "astId": 4082,
            "contract": "contracts/eclipse/CommonEclipse.sol:CommonEclipse",
            "label": "offeringAmount",
            "offset": 0,
            "slot": "1",
            "type": "t_uint256"
          },
          {
            "astId": 4084,
            "contract": "contracts/eclipse/CommonEclipse.sol:CommonEclipse",
            "label": "baseLimitInLP",
            "offset": 0,
            "slot": "2",
            "type": "t_uint256"
          },
          {
            "astId": 4086,
            "contract": "contracts/eclipse/CommonEclipse.sol:CommonEclipse",
            "label": "hasTax",
            "offset": 0,
            "slot": "3",
            "type": "t_bool"
          },
          {
            "astId": 4088,
            "contract": "contracts/eclipse/CommonEclipse.sol:CommonEclipse",
            "label": "totalAmountPool",
            "offset": 0,
            "slot": "4",
            "type": "t_uint256"
          },
          {
            "astId": 4090,
            "contract": "contracts/eclipse/CommonEclipse.sol:CommonEclipse",
            "label": "sumTaxesOverflow",
            "offset": 0,
            "slot": "5",
            "type": "t_uint256"
          },
          {
            "astId": 4092,
            "contract": "contracts/eclipse/CommonEclipse.sol:CommonEclipse",
            "label": "totalAllocPoints",
            "offset": 0,
            "slot": "6",
            "type": "t_uint256"
          }
        ],
        "numberOfBytes": "224"
      },
      "t_struct(UserInfo)4078_storage": {
        "encoding": "inplace",
        "label": "struct CommonEclipse.UserInfo",
        "members": [
          {
            "astId": 4069,
            "contract": "contracts/eclipse/CommonEclipse.sol:CommonEclipse",
            "label": "amount",
            "offset": 0,
            "slot": "0",
            "type": "t_uint256"
          },
          {
            "astId": 4071,
            "contract": "contracts/eclipse/CommonEclipse.sol:CommonEclipse",
            "label": "allocPoints",
            "offset": 0,
            "slot": "1",
            "type": "t_uint256"
          },
          {
            "astId": 4075,
            "contract": "contracts/eclipse/CommonEclipse.sol:CommonEclipse",
            "label": "claimed",
            "offset": 0,
            "slot": "2",
            "type": "t_array(t_bool)4_storage"
          },
          {
            "astId": 4077,
            "contract": "contracts/eclipse/CommonEclipse.sol:CommonEclipse",
            "label": "isRefunded",
            "offset": 0,
            "slot": "3",
            "type": "t_bool"
          }
        ],
        "numberOfBytes": "128"
      },
      "t_uint16": {
        "encoding": "inplace",
        "label": "uint16",
        "numberOfBytes": "2"
      },
      "t_uint256": {
        "encoding": "inplace",
        "label": "uint256",
        "numberOfBytes": "32"
      },
      "t_uint8": {
        "encoding": "inplace",
        "label": "uint8",
        "numberOfBytes": "1"
      }
    }
  }
}