{
  "address": "0x3af684Db016dD0148F6Bc607b4C4d700bfA25947",
  "abi": [
    {
      "inputs": [
        {
          "internalType": "contract IBoringERC20",
          "name": "_solar",
          "type": "address"
        },
        {
          "internalType": "uint256",
          "name": "_solarPerSec",
          "type": "uint256"
        },
        {
          "internalType": "address",
          "name": "_teamAddress",
          "type": "address"
        },
        {
          "internalType": "address",
          "name": "_treasuryAddress",
          "type": "address"
        },
        {
          "internalType": "address",
          "name": "_investorAddress",
          "type": "address"
        },
        {
          "internalType": "uint256",
          "name": "_teamPercent",
          "type": "uint256"
        },
        {
          "internalType": "uint256",
          "name": "_treasuryPercent",
          "type": "uint256"
        },
        {
          "internalType": "uint256",
          "name": "_investorPercent",
          "type": "uint256"
        }
      ],
      "stateMutability": "nonpayable",
      "type": "constructor"
    },
    {
      "anonymous": false,
      "inputs": [
        {
          "indexed": true,
          "internalType": "uint256",
          "name": "pid",
          "type": "uint256"
        },
        {
          "indexed": false,
          "internalType": "uint256",
          "name": "allocPoint",
          "type": "uint256"
        },
        {
          "indexed": true,
          "internalType": "contract IBoringERC20",
          "name": "lpToken",
          "type": "address"
        },
        {
          "indexed": false,
          "internalType": "uint16",
          "name": "depositFeeBP",
          "type": "uint16"
        },
        {
          "indexed": false,
          "internalType": "uint256",
          "name": "harvestInterval",
          "type": "uint256"
        },
        {
          "indexed": true,
          "internalType": "contract IComplexRewarder[]",
          "name": "rewarders",
          "type": "address[]"
        }
      ],
      "name": "Add",
      "type": "event"
    },
    {
      "anonymous": false,
      "inputs": [
        {
          "indexed": true,
          "internalType": "address",
          "name": "caller",
          "type": "address"
        },
        {
          "indexed": false,
          "internalType": "uint256",
          "name": "previousAmount",
          "type": "uint256"
        },
        {
          "indexed": false,
          "internalType": "uint256",
          "name": "newAmount",
          "type": "uint256"
        }
      ],
      "name": "AllocPointsUpdated",
      "type": "event"
    },
    {
      "anonymous": false,
      "inputs": [
        {
          "indexed": true,
          "internalType": "address",
          "name": "user",
          "type": "address"
        },
        {
          "indexed": true,
          "internalType": "uint256",
          "name": "pid",
          "type": "uint256"
        },
        {
          "indexed": false,
          "internalType": "uint256",
          "name": "amount",
          "type": "uint256"
        }
      ],
      "name": "Deposit",
      "type": "event"
    },
    {
      "anonymous": false,
      "inputs": [
        {
          "indexed": true,
          "internalType": "address",
          "name": "user",
          "type": "address"
        },
        {
          "indexed": true,
          "internalType": "uint256",
          "name": "pid",
          "type": "uint256"
        },
        {
          "indexed": false,
          "internalType": "uint256",
          "name": "amount",
          "type": "uint256"
        }
      ],
      "name": "EmergencyWithdraw",
      "type": "event"
    },
    {
      "anonymous": false,
      "inputs": [
        {
          "indexed": true,
          "internalType": "address",
          "name": "caller",
          "type": "address"
        },
        {
          "indexed": false,
          "internalType": "uint256",
          "name": "previousValue",
          "type": "uint256"
        },
        {
          "indexed": false,
          "internalType": "uint256",
          "name": "newValue",
          "type": "uint256"
        }
      ],
      "name": "EmissionRateUpdated",
      "type": "event"
    },
    {
      "anonymous": false,
      "inputs": [
        {
          "indexed": true,
          "internalType": "address",
          "name": "previousOwner",
          "type": "address"
        },
        {
          "indexed": true,
          "internalType": "address",
          "name": "newOwner",
          "type": "address"
        }
      ],
      "name": "OwnershipTransferred",
      "type": "event"
    },
    {
      "anonymous": false,
      "inputs": [
        {
          "indexed": true,
          "internalType": "address",
          "name": "user",
          "type": "address"
        },
        {
          "indexed": true,
          "internalType": "uint256",
          "name": "pid",
          "type": "uint256"
        },
        {
          "indexed": false,
          "internalType": "uint256",
          "name": "amountLockedUp",
          "type": "uint256"
        }
      ],
      "name": "RewardLockedUp",
      "type": "event"
    },
    {
      "anonymous": false,
      "inputs": [
        {
          "indexed": true,
          "internalType": "uint256",
          "name": "pid",
          "type": "uint256"
        },
        {
          "indexed": false,
          "internalType": "uint256",
          "name": "allocPoint",
          "type": "uint256"
        },
        {
          "indexed": false,
          "internalType": "uint16",
          "name": "depositFeeBP",
          "type": "uint16"
        },
        {
          "indexed": false,
          "internalType": "uint256",
          "name": "harvestInterval",
          "type": "uint256"
        },
        {
          "indexed": true,
          "internalType": "contract IComplexRewarder[]",
          "name": "rewarders",
          "type": "address[]"
        }
      ],
      "name": "Set",
      "type": "event"
    },
    {
      "anonymous": false,
      "inputs": [
        {
          "indexed": true,
          "internalType": "address",
          "name": "oldAddress",
          "type": "address"
        },
        {
          "indexed": true,
          "internalType": "address",
          "name": "newAddress",
          "type": "address"
        }
      ],
      "name": "SetInvestorAddress",
      "type": "event"
    },
    {
      "anonymous": false,
      "inputs": [
        {
          "indexed": false,
          "internalType": "uint256",
          "name": "oldPercent",
          "type": "uint256"
        },
        {
          "indexed": false,
          "internalType": "uint256",
          "name": "newPercent",
          "type": "uint256"
        }
      ],
      "name": "SetInvestorPercent",
      "type": "event"
    },
    {
      "anonymous": false,
      "inputs": [
        {
          "indexed": true,
          "internalType": "address",
          "name": "oldAddress",
          "type": "address"
        },
        {
          "indexed": true,
          "internalType": "address",
          "name": "newAddress",
          "type": "address"
        }
      ],
      "name": "SetTeamAddress",
      "type": "event"
    },
    {
      "anonymous": false,
      "inputs": [
        {
          "indexed": false,
          "internalType": "uint256",
          "name": "oldPercent",
          "type": "uint256"
        },
        {
          "indexed": false,
          "internalType": "uint256",
          "name": "newPercent",
          "type": "uint256"
        }
      ],
      "name": "SetTeamPercent",
      "type": "event"
    },
    {
      "anonymous": false,
      "inputs": [
        {
          "indexed": true,
          "internalType": "address",
          "name": "oldAddress",
          "type": "address"
        },
        {
          "indexed": true,
          "internalType": "address",
          "name": "newAddress",
          "type": "address"
        }
      ],
      "name": "SetTreasuryAddress",
      "type": "event"
    },
    {
      "anonymous": false,
      "inputs": [
        {
          "indexed": false,
          "internalType": "uint256",
          "name": "oldPercent",
          "type": "uint256"
        },
        {
          "indexed": false,
          "internalType": "uint256",
          "name": "newPercent",
          "type": "uint256"
        }
      ],
      "name": "SetTreasuryPercent",
      "type": "event"
    },
    {
      "anonymous": false,
      "inputs": [
        {
          "indexed": true,
          "internalType": "uint256",
          "name": "pid",
          "type": "uint256"
        },
        {
          "indexed": false,
          "internalType": "uint256",
          "name": "lastRewardTimestamp",
          "type": "uint256"
        },
        {
          "indexed": false,
          "internalType": "uint256",
          "name": "lpSupply",
          "type": "uint256"
        },
        {
          "indexed": false,
          "internalType": "uint256",
          "name": "accSolarPerShare",
          "type": "uint256"
        }
      ],
      "name": "UpdatePool",
      "type": "event"
    },
    {
      "anonymous": false,
      "inputs": [
        {
          "indexed": true,
          "internalType": "address",
          "name": "user",
          "type": "address"
        },
        {
          "indexed": true,
          "internalType": "uint256",
          "name": "pid",
          "type": "uint256"
        },
        {
          "indexed": false,
          "internalType": "uint256",
          "name": "amount",
          "type": "uint256"
        }
      ],
      "name": "Withdraw",
      "type": "event"
    },
    {
      "inputs": [],
      "name": "MAXIMUM_DEPOSIT_FEE_RATE",
      "outputs": [
        {
          "internalType": "uint16",
          "name": "",
          "type": "uint16"
        }
      ],
      "stateMutability": "view",
      "type": "function"
    },
    {
      "inputs": [],
      "name": "MAXIMUM_HARVEST_INTERVAL",
      "outputs": [
        {
          "internalType": "uint256",
          "name": "",
          "type": "uint256"
        }
      ],
      "stateMutability": "view",
      "type": "function"
    },
    {
      "inputs": [
        {
          "internalType": "uint256",
          "name": "_allocPoint",
          "type": "uint256"
        },
        {
          "internalType": "contract IBoringERC20",
          "name": "_lpToken",
          "type": "address"
        },
        {
          "internalType": "uint16",
          "name": "_depositFeeBP",
          "type": "uint16"
        },
        {
          "internalType": "uint256",
          "name": "_harvestInterval",
          "type": "uint256"
        },
        {
          "internalType": "contract IComplexRewarder[]",
          "name": "_rewarders",
          "type": "address[]"
        }
      ],
      "name": "add",
      "outputs": [],
      "stateMutability": "nonpayable",
      "type": "function"
    },
    {
      "inputs": [
        {
          "internalType": "uint256",
          "name": "_pid",
          "type": "uint256"
        },
        {
          "internalType": "address",
          "name": "_user",
          "type": "address"
        }
      ],
      "name": "canHarvest",
      "outputs": [
        {
          "internalType": "bool",
          "name": "",
          "type": "bool"
        }
      ],
      "stateMutability": "view",
      "type": "function"
    },
    {
      "inputs": [
        {
          "internalType": "uint256",
          "name": "_pid",
          "type": "uint256"
        },
        {
          "internalType": "uint256",
          "name": "_amount",
          "type": "uint256"
        }
      ],
      "name": "deposit",
      "outputs": [],
      "stateMutability": "nonpayable",
      "type": "function"
    },
    {
      "inputs": [
        {
          "internalType": "uint256",
          "name": "_pid",
          "type": "uint256"
        }
      ],
      "name": "emergencyWithdraw",
      "outputs": [],
      "stateMutability": "nonpayable",
      "type": "function"
    },
    {
      "inputs": [
        {
          "internalType": "uint256[]",
          "name": "_pids",
          "type": "uint256[]"
        }
      ],
      "name": "harvestMany",
      "outputs": [],
      "stateMutability": "nonpayable",
      "type": "function"
    },
    {
      "inputs": [],
      "name": "investorAddress",
      "outputs": [
        {
          "internalType": "address",
          "name": "",
          "type": "address"
        }
      ],
      "stateMutability": "view",
      "type": "function"
    },
    {
      "inputs": [],
      "name": "investorPercent",
      "outputs": [
        {
          "internalType": "uint256",
          "name": "",
          "type": "uint256"
        }
      ],
      "stateMutability": "view",
      "type": "function"
    },
    {
      "inputs": [],
      "name": "massUpdatePools",
      "outputs": [],
      "stateMutability": "nonpayable",
      "type": "function"
    },
    {
      "inputs": [],
      "name": "owner",
      "outputs": [
        {
          "internalType": "address",
          "name": "",
          "type": "address"
        }
      ],
      "stateMutability": "view",
      "type": "function"
    },
    {
      "inputs": [
        {
          "internalType": "uint256",
          "name": "_pid",
          "type": "uint256"
        },
        {
          "internalType": "address",
          "name": "_user",
          "type": "address"
        }
      ],
      "name": "pendingTokens",
      "outputs": [
        {
          "internalType": "address[]",
          "name": "addresses",
          "type": "address[]"
        },
        {
          "internalType": "string[]",
          "name": "symbols",
          "type": "string[]"
        },
        {
          "internalType": "uint256[]",
          "name": "decimals",
          "type": "uint256[]"
        },
        {
          "internalType": "uint256[]",
          "name": "amounts",
          "type": "uint256[]"
        }
      ],
      "stateMutability": "view",
      "type": "function"
    },
    {
      "inputs": [
        {
          "internalType": "uint256",
          "name": "",
          "type": "uint256"
        }
      ],
      "name": "poolInfo",
      "outputs": [
        {
          "internalType": "contract IBoringERC20",
          "name": "lpToken",
          "type": "address"
        },
        {
          "internalType": "uint256",
          "name": "allocPoint",
          "type": "uint256"
        },
        {
          "internalType": "uint256",
          "name": "lastRewardTimestamp",
          "type": "uint256"
        },
        {
          "internalType": "uint256",
          "name": "accSolarPerShare",
          "type": "uint256"
        },
        {
          "internalType": "uint16",
          "name": "depositFeeBP",
          "type": "uint16"
        },
        {
          "internalType": "uint256",
          "name": "harvestInterval",
          "type": "uint256"
        },
        {
          "internalType": "uint256",
          "name": "totalLp",
          "type": "uint256"
        }
      ],
      "stateMutability": "view",
      "type": "function"
    },
    {
      "inputs": [],
      "name": "poolLength",
      "outputs": [
        {
          "internalType": "uint256",
          "name": "",
          "type": "uint256"
        }
      ],
      "stateMutability": "view",
      "type": "function"
    },
    {
      "inputs": [
        {
          "internalType": "uint256",
          "name": "_pid",
          "type": "uint256"
        }
      ],
      "name": "poolRewarders",
      "outputs": [
        {
          "internalType": "address[]",
          "name": "rewarders",
          "type": "address[]"
        }
      ],
      "stateMutability": "view",
      "type": "function"
    },
    {
      "inputs": [
        {
          "internalType": "uint256",
          "name": "_pid",
          "type": "uint256"
        }
      ],
      "name": "poolRewardsPerSec",
      "outputs": [
        {
          "internalType": "address[]",
          "name": "addresses",
          "type": "address[]"
        },
        {
          "internalType": "string[]",
          "name": "symbols",
          "type": "string[]"
        },
        {
          "internalType": "uint256[]",
          "name": "decimals",
          "type": "uint256[]"
        },
        {
          "internalType": "uint256[]",
          "name": "rewardsPerSec",
          "type": "uint256[]"
        }
      ],
      "stateMutability": "view",
      "type": "function"
    },
    {
      "inputs": [
        {
          "internalType": "uint256",
          "name": "pid",
          "type": "uint256"
        }
      ],
      "name": "poolTotalLp",
      "outputs": [
        {
          "internalType": "uint256",
          "name": "",
          "type": "uint256"
        }
      ],
      "stateMutability": "view",
      "type": "function"
    },
    {
      "inputs": [],
      "name": "renounceOwnership",
      "outputs": [],
      "stateMutability": "nonpayable",
      "type": "function"
    },
    {
      "inputs": [
        {
          "internalType": "uint256",
          "name": "_pid",
          "type": "uint256"
        },
        {
          "internalType": "uint256",
          "name": "_allocPoint",
          "type": "uint256"
        },
        {
          "internalType": "uint16",
          "name": "_depositFeeBP",
          "type": "uint16"
        },
        {
          "internalType": "uint256",
          "name": "_harvestInterval",
          "type": "uint256"
        },
        {
          "internalType": "contract IComplexRewarder[]",
          "name": "_rewarders",
          "type": "address[]"
        }
      ],
      "name": "set",
      "outputs": [],
      "stateMutability": "nonpayable",
      "type": "function"
    },
    {
      "inputs": [
        {
          "internalType": "address",
          "name": "_investorAddress",
          "type": "address"
        }
      ],
      "name": "setInvestorAddress",
      "outputs": [],
      "stateMutability": "nonpayable",
      "type": "function"
    },
    {
      "inputs": [
        {
          "internalType": "uint256",
          "name": "_newInvestorPercent",
          "type": "uint256"
        }
      ],
      "name": "setInvestorPercent",
      "outputs": [],
      "stateMutability": "nonpayable",
      "type": "function"
    },
    {
      "inputs": [
        {
          "internalType": "address",
          "name": "_teamAddress",
          "type": "address"
        }
      ],
      "name": "setTeamAddress",
      "outputs": [],
      "stateMutability": "nonpayable",
      "type": "function"
    },
    {
      "inputs": [
        {
          "internalType": "uint256",
          "name": "_newTeamPercent",
          "type": "uint256"
        }
      ],
      "name": "setTeamPercent",
      "outputs": [],
      "stateMutability": "nonpayable",
      "type": "function"
    },
    {
      "inputs": [
        {
          "internalType": "address",
          "name": "_treasuryAddress",
          "type": "address"
        }
      ],
      "name": "setTreasuryAddr",
      "outputs": [],
      "stateMutability": "nonpayable",
      "type": "function"
    },
    {
      "inputs": [
        {
          "internalType": "uint256",
          "name": "_newTreasuryPercent",
          "type": "uint256"
        }
      ],
      "name": "setTreasuryPercent",
      "outputs": [],
      "stateMutability": "nonpayable",
      "type": "function"
    },
    {
      "inputs": [],
      "name": "solar",
      "outputs": [
        {
          "internalType": "contract IBoringERC20",
          "name": "",
          "type": "address"
        }
      ],
      "stateMutability": "view",
      "type": "function"
    },
    {
      "inputs": [],
      "name": "solarPerSec",
      "outputs": [
        {
          "internalType": "uint256",
          "name": "",
          "type": "uint256"
        }
      ],
      "stateMutability": "view",
      "type": "function"
    },
    {
      "inputs": [],
      "name": "startFarming",
      "outputs": [],
      "stateMutability": "nonpayable",
      "type": "function"
    },
    {
      "inputs": [],
      "name": "startTimestamp",
      "outputs": [
        {
          "internalType": "uint256",
          "name": "",
          "type": "uint256"
        }
      ],
      "stateMutability": "view",
      "type": "function"
    },
    {
      "inputs": [],
      "name": "teamAddress",
      "outputs": [
        {
          "internalType": "address",
          "name": "",
          "type": "address"
        }
      ],
      "stateMutability": "view",
      "type": "function"
    },
    {
      "inputs": [],
      "name": "teamPercent",
      "outputs": [
        {
          "internalType": "uint256",
          "name": "",
          "type": "uint256"
        }
      ],
      "stateMutability": "view",
      "type": "function"
    },
    {
      "inputs": [],
      "name": "totalAllocPoint",
      "outputs": [
        {
          "internalType": "uint256",
          "name": "",
          "type": "uint256"
        }
      ],
      "stateMutability": "view",
      "type": "function"
    },
    {
      "inputs": [],
      "name": "totalLockedUpRewards",
      "outputs": [
        {
          "internalType": "uint256",
          "name": "",
          "type": "uint256"
        }
      ],
      "stateMutability": "view",
      "type": "function"
    },
    {
      "inputs": [],
      "name": "totalSolarInPools",
      "outputs": [
        {
          "internalType": "uint256",
          "name": "",
          "type": "uint256"
        }
      ],
      "stateMutability": "view",
      "type": "function"
    },
    {
      "inputs": [
        {
          "internalType": "address",
          "name": "newOwner",
          "type": "address"
        }
      ],
      "name": "transferOwnership",
      "outputs": [],
      "stateMutability": "nonpayable",
      "type": "function"
    },
    {
      "inputs": [],
      "name": "treasuryAddress",
      "outputs": [
        {
          "internalType": "address",
          "name": "",
          "type": "address"
        }
      ],
      "stateMutability": "view",
      "type": "function"
    },
    {
      "inputs": [],
      "name": "treasuryPercent",
      "outputs": [
        {
          "internalType": "uint256",
          "name": "",
          "type": "uint256"
        }
      ],
      "stateMutability": "view",
      "type": "function"
    },
    {
      "inputs": [
        {
          "internalType": "uint256",
          "name": "_pid",
          "type": "uint256"
        },
        {
          "internalType": "uint256",
          "name": "_allocPoint",
          "type": "uint256"
        }
      ],
      "name": "updateAllocPoint",
      "outputs": [],
      "stateMutability": "nonpayable",
      "type": "function"
    },
    {
      "inputs": [
        {
          "internalType": "uint256",
          "name": "_solarPerSec",
          "type": "uint256"
        }
      ],
      "name": "updateEmissionRate",
      "outputs": [],
      "stateMutability": "nonpayable",
      "type": "function"
    },
    {
      "inputs": [
        {
          "internalType": "uint256",
          "name": "_pid",
          "type": "uint256"
        }
      ],
      "name": "updatePool",
      "outputs": [],
      "stateMutability": "nonpayable",
      "type": "function"
    },
    {
      "inputs": [
        {
          "internalType": "uint256",
          "name": "",
          "type": "uint256"
        },
        {
          "internalType": "address",
          "name": "",
          "type": "address"
        }
      ],
      "name": "userInfo",
      "outputs": [
        {
          "internalType": "uint256",
          "name": "amount",
          "type": "uint256"
        },
        {
          "internalType": "uint256",
          "name": "rewardDebt",
          "type": "uint256"
        },
        {
          "internalType": "uint256",
          "name": "rewardLockedUp",
          "type": "uint256"
        },
        {
          "internalType": "uint256",
          "name": "nextHarvestUntil",
          "type": "uint256"
        }
      ],
      "stateMutability": "view",
      "type": "function"
    },
    {
      "inputs": [
        {
          "internalType": "uint256",
          "name": "_pid",
          "type": "uint256"
        },
        {
          "internalType": "uint256",
          "name": "_amount",
          "type": "uint256"
        }
      ],
      "name": "withdraw",
      "outputs": [],
      "stateMutability": "nonpayable",
      "type": "function"
    }
  ],
  "transactionHash": "0x3281a983d7f5f11c8a763bee2aef95b1edcb6cc3a7e94002a3c1354b377c253b",
  "args": [
    "0x46F79Cca5350E95F30e3F17b6D35CE360bd4EAAB",
    "1574074074074075",
    "0xb152C1746543FdC63b308808497B64F52774f805",
    "0xb152C1746543FdC63b308808497B64F52774f805",
    "0xb152C1746543FdC63b308808497B64F52774f805",
    100,
    100,
    100
  ],
  "solcInputHash": "ce0696306a8f449a758e8b765179384f",
  "bytecode": "0x6080604052600060065560006009553480156200001b57600080fd5b5060405162005524380380620055248339810160408190526200003e91620002c6565b620000493362000276565b600180556103e8831115620000b55760405162461bcd60e51b815260206004820152602760248201527f636f6e7374727563746f723a20696e76616c6964207465616d2070657263656e604482015266742076616c756560c81b60648201526084015b60405180910390fd5b6103e88211156200011d5760405162461bcd60e51b815260206004820152602b60248201527f636f6e7374727563746f723a20696e76616c696420747265617375727920706560448201526a7263656e742076616c756560a81b6064820152608401620000ac565b6103e8811115620001855760405162461bcd60e51b815260206004820152602b60248201527f636f6e7374727563746f723a20696e76616c696420696e766573746f7220706560448201526a7263656e742076616c756560a81b6064820152608401620000ac565b6103e88162000195848662000355565b620001a1919062000355565b1115620001fd5760405162461bcd60e51b815260206004820152602360248201527f636f6e7374727563746f723a20746f74616c2070657263656e74206f766572206044820152620dac2f60eb1b6064820152608401620000ac565b6200020d426301e1338062000355565b600755600280546001600160a01b03199081166001600160a01b039a8b1617909155600397909755600a8054881696891696909617909555600b8054871694881694909417909355600c80549095169190951617909255600d92909255600e55600f5562000395565b600080546001600160a01b038381166001600160a01b0319831681178455604051919092169283917f8be0079c531659141344cd1fd0a4f28419497f9722a3daafe3b4186f6b6457e09190a35050565b600080600080600080600080610100898b031215620002e457600080fd5b8851620002f1816200037c565b60208a015160408b015191995097506200030b816200037c565b60608a01519096506200031e816200037c565b60808a015190955062000331816200037c565b60a08a015160c08b015160e0909b0151999c989b5096999598909790945092505050565b600082198211156200037757634e487b7160e01b600052601160045260246000fd5b500190565b6001600160a01b03811681146200039257600080fd5b50565b61517f80620003a56000396000f3fe608060405234801561001057600080fd5b50600436106102de5760003560e01c8063812c64f111610186578063d761595c116100e3578063e6fa6d6d11610097578063eff8976b11610071578063eff8976b14610682578063f2fde38b146106a2578063ffcd4263146106b557600080fd5b8063e6fa6d6d14610646578063e6fd48bc14610666578063eddf96521461066f57600080fd5b8063de73149d116100c8578063de73149d14610620578063e164ac501461062a578063e2bbb1581461063357600080fd5b8063d761595c14610604578063dc640ac91461060d57600080fd5b8063949e63021161013a578063a7e05b9c1161011f578063a7e05b9c146105c9578063afbcfea1146105dc578063c5f956af146105e457600080fd5b8063949e6302146105ad5780639a26c2fa146105c057600080fd5b806389a2bc251161016b57806389a2bc251461051c5780638da5cb5b1461052f57806393f1a40b1461054d57600080fd5b8063812c64f1146104ed578063876d3c9c1461050957600080fd5b806342602f1e1161023f57806351eb05a6116101f3578063654c9ece116101cd578063654c9ece146104bf5780636690864e146104d2578063715018a6146104e557600080fd5b806351eb05a6146104915780635312ea8e146104a4578063630b5ba1146104b757600080fd5b8063465e81ec11610224578063465e81ec14610452578063474fa63014610475578063508593ab1461047e57600080fd5b806342602f1e1461042c578063441a3e701461043f57600080fd5b80631526fe27116102965780631c75f0851161027b5780631c75f085146103d65780632081ccc4146103f65780632e6c998d1461040957600080fd5b80631526fe271461036a57806317caf6f1146103cd57600080fd5b8063081e3eda116102c7578063081e3eda146103085780630ba84cd21461031057806312e228fd1461032557600080fd5b806304ef9d58146102e35780630735b208146102ff575b600080fd5b6102ec600e5481565b6040519081526020015b60405180910390f35b6102ec600f5481565b6004546102ec565b61032361031e366004614c59565b6106c8565b005b600c546103459073ffffffffffffffffffffffffffffffffffffffff1681565b60405173ffffffffffffffffffffffffffffffffffffffff90911681526020016102f6565b61037d610378366004614c59565b610799565b6040805173ffffffffffffffffffffffffffffffffffffffff9098168852602088019690965294860193909352606085019190915261ffff16608084015260a083015260c082015260e0016102f6565b6102ec60065481565b600a546103459073ffffffffffffffffffffffffffffffffffffffff1681565b610323610404366004614d57565b610803565b61041c610417366004614c8b565b610bf6565b60405190151581526020016102f6565b61032361043a366004614af0565b610cb4565b61032361044d366004614d35565b610df2565b610465610460366004614c59565b6111d4565b6040516102f69493929190614ea9565b6102ec60085481565b61032361048c366004614cbb565b6118f5565b61032361049f366004614c59565b611daa565b6103236104b2366004614c59565b612297565b6103236124b5565b6102ec6104cd366004614c59565b6124dc565b6103236104e0366004614af0565b61250a565b610323612648565b6104f66103e881565b60405161ffff90911681526020016102f6565b610323610517366004614c59565b6126d5565b61032361052a366004614c59565b6128d5565b60005473ffffffffffffffffffffffffffffffffffffffff16610345565b61058d61055b366004614c8b565b600560209081526000928352604080842090915290825290208054600182015460028301546003909301549192909184565b6040805194855260208501939093529183015260608201526080016102f6565b6103236105bb366004614c59565b612ad5565b6102ec60035481565b6103236105d7366004614af0565b612cd5565b610323612dc7565b600b546103459073ffffffffffffffffffffffffffffffffffffffff1681565b6102ec60095481565b61032361061b366004614b0d565b612f2f565b6102ec6212750081565b6102ec600d5481565b610323610641366004614d35565b612f72565b6002546103459073ffffffffffffffffffffffffffffffffffffffff1681565b6102ec60075481565b61032361067d366004614d35565b613430565b610695610690366004614c59565b6135a6565b6040516102f69190614e96565b6103236106b0366004614af0565b6136d9565b6104656106c3366004614c8b565b613809565b60005473ffffffffffffffffffffffffffffffffffffffff16331461074e576040517f08c379a000000000000000000000000000000000000000000000000000000000815260206004820181905260248201527f4f776e61626c653a2063616c6c6572206973206e6f7420746865206f776e657260448201526064015b60405180910390fd5b6107566124b5565b600354604080519182526020820183905233917feedc6338c9c1ad8f3cd6c90dd09dbe98dbd57e610d3e59a17996d07acb0d9511910160405180910390a2600355565b600481815481106107a957600080fd5b6000918252602090912060089091020180546001820154600283015460038401546004850154600586015460069096015473ffffffffffffffffffffffffffffffffffffffff909516965092949193909261ffff16919087565b60005473ffffffffffffffffffffffffffffffffffffffff163314610884576040517f08c379a000000000000000000000000000000000000000000000000000000000815260206004820181905260248201527f4f776e61626c653a2063616c6c6572206973206e6f7420746865206f776e65726044820152606401610745565b600454869081106108f1576040517f08c379a000000000000000000000000000000000000000000000000000000000815260206004820152601360248201527f506f6f6c20646f6573206e6f74206578697374000000000000000000000000006044820152606401610745565b6103e861ffff86161115610961576040517f08c379a000000000000000000000000000000000000000000000000000000000815260206004820152601960248201527f7365743a206465706f7369742066656520746f6f2068696768000000000000006044820152606401610745565b621275008411156109ce576040517f08c379a000000000000000000000000000000000000000000000000000000000815260206004820152601d60248201527f7365743a20696e76616c6964206861727665737420696e74657276616c0000006044820152606401610745565b60005b82811015610a7f57610a098484838181106109ee576109ee6150c9565b9050602002016020810190610a039190614af0565b3b151590565b610a6f576040517f08c379a000000000000000000000000000000000000000000000000000000000815260206004820152601e60248201527f6164643a207265776172646572206d75737420626520636f6e747261637400006044820152606401610745565b610a7881615041565b90506109d1565b50610a886124b5565b8560048881548110610a9c57610a9c6150c9565b906000526020600020906008020160010154600654610abb9190614ffe565b610ac59190614f6e565b6006819055508560048881548110610adf57610adf6150c9565b9060005260206000209060080201600101819055508460048881548110610b0857610b086150c9565b906000526020600020906008020160040160006101000a81548161ffff021916908361ffff1602179055508360048881548110610b4757610b476150c9565b906000526020600020906008020160050181905550828260048981548110610b7157610b716150c9565b90600052602060002090600802016007019190610b8f92919061497b565b508282604051610ba0929190614e2b565b6040805191829003822088835261ffff881660208401529082018690529088907f5ed6f0deef9ab49d02900b40d596df4cd637a2a7fbfa56bbcb377389d3ce8d289060600160405180910390a350505050505050565b60045460009083908110610c66576040517f08c379a000000000000000000000000000000000000000000000000000000000815260206004820152601360248201527f506f6f6c20646f6573206e6f74206578697374000000000000000000000000006044820152606401610745565b600084815260056020908152604080832073ffffffffffffffffffffffffffffffffffffffff8716845290915290206007544210801590610cab575080600301544210155b95945050505050565b600c5473ffffffffffffffffffffffffffffffffffffffff163314610d81576040517f08c379a000000000000000000000000000000000000000000000000000000000815260206004820152604160248201527f73657420696e766573746f7220616464726573733a206f6e6c7920707265766960448201527f6f757320696e766573746f722063616e2063616c6c2074686973206d6574686f60648201527f6400000000000000000000000000000000000000000000000000000000000000608482015260a401610745565b600c80547fffffffffffffffffffffffff00000000000000000000000000000000000000001673ffffffffffffffffffffffffffffffffffffffff831690811790915560405133907f6260cb34f06b782e83bde168f7d74ab2133041cb53b63ce22b127822a92b679190600090a350565b60026001541415610e5f576040517f08c379a000000000000000000000000000000000000000000000000000000000815260206004820152601f60248201527f5265656e7472616e637947756172643a207265656e7472616e742063616c6c006044820152606401610745565b600260015560045482908110610ed1576040517f08c379a000000000000000000000000000000000000000000000000000000000815260206004820152601360248201527f506f6f6c20646f6573206e6f74206578697374000000000000000000000000006044820152606401610745565b600060048481548110610ee657610ee66150c9565b600091825260208083208784526005825260408085203386529092529220805460089092029092019250841115610f79576040517f08c379a000000000000000000000000000000000000000000000000000000000815260206004820181905260248201527f77697468647261773a207573657220616d6f756e74206e6f7420656e6f7567686044820152606401610745565b8382600601541015610fe7576040517f08c379a000000000000000000000000000000000000000000000000000000000815260206004820152601f60248201527f77697468647261773a20706f6f6c20746f74616c206e6f7420656e6f756768006044820152606401610745565b610ff085611daa565b610ff985613eda565b831561107857838160000160008282546110139190614ffe565b9091555050600254825473ffffffffffffffffffffffffffffffffffffffff9081169116141561105557836009600082825461104f9190614ffe565b90915550505b81546110789073ffffffffffffffffffffffffffffffffffffffff16338661406e565b6003820154815464e8d4a510009161108f91614fc1565b6110999190614f86565b600182015560005b6007830154811015611170578260070181815481106110c2576110c26150c9565b60009182526020909120015482546040517ffe8343fb00000000000000000000000000000000000000000000000000000000815260048101899052336024820152604481019190915273ffffffffffffffffffffffffffffffffffffffff9091169063fe8343fb90606401600060405180830381600087803b15801561114757600080fd5b505af115801561115b573d6000803e3d6000fd5b505050508061116990615041565b90506110a1565b508315611191578382600601600082825461118b9190614ffe565b90915550505b604051848152859033907ff279e6a1f5e320cca91135676d9cb6e44ca8a08c0b88342bcdb1144f6511b568906020015b60405180910390a3505060018055505050565b606080606080846004805490508110611249576040517f08c379a000000000000000000000000000000000000000000000000000000000815260206004820152601360248201527f506f6f6c20646f6573206e6f74206578697374000000000000000000000000006044820152606401610745565b60006004878154811061125e5761125e6150c9565b90600052602060002090600802019050806007018054905060016112829190614f6e565b67ffffffffffffffff81111561129a5761129a6150f8565b6040519080825280602002602001820160405280156112c3578160200160208202803683370190505b5060078201549096506112d7906001614f6e565b67ffffffffffffffff8111156112ef576112ef6150f8565b60405190808252806020026020018201604052801561132257816020015b606081526020019060019003908161130d5790505b506007820154909550611336906001614f6e565b67ffffffffffffffff81111561134e5761134e6150f8565b604051908082528060200260200182016040528015611377578160200160208202803683370190505b50600782015490945061138b906001614f6e565b67ffffffffffffffff8111156113a3576113a36150f8565b6040519080825280602002602001820160405280156113cc578160200160208202803683370190505b50600254875191945073ffffffffffffffffffffffffffffffffffffffff169087906000906113fd576113fd6150c9565b73ffffffffffffffffffffffffffffffffffffffff928316602091820292909201015260025461142d91166141de565b85600081518110611440576114406150c9565b602090810291909101015260025461146d9073ffffffffffffffffffffffffffffffffffffffff166142f6565b60ff1684600081518110611483576114836150c9565b60200260200101818152505060035460065482600101546114a49190614f86565b6114ae9190614fc1565b836000815181106114c1576114c16150c9565b60200260200101818152505060005b60078201548110156118eb578160070181815481106114f1576114f16150c9565b60009182526020918290200154604080517ff7c618c1000000000000000000000000000000000000000000000000000000008152905173ffffffffffffffffffffffffffffffffffffffff9092169263f7c618c192600480840193829003018186803b15801561156057600080fd5b505afa158015611574573d6000803e3d6000fd5b505050506040513d601f19601f820116820180604052508101906115989190614b71565b876115a4836001614f6e565b815181106115b4576115b46150c9565b602002602001019073ffffffffffffffffffffffffffffffffffffffff16908173ffffffffffffffffffffffffffffffffffffffff16815250506116c8826007018281548110611606576116066150c9565b60009182526020918290200154604080517ff7c618c1000000000000000000000000000000000000000000000000000000008152905173ffffffffffffffffffffffffffffffffffffffff9092169263f7c618c192600480840193829003018186803b15801561167557600080fd5b505afa158015611689573d6000803e3d6000fd5b505050506040513d601f19601f820116820180604052508101906116ad9190614b71565b73ffffffffffffffffffffffffffffffffffffffff166141de565b866116d4836001614f6e565b815181106116e4576116e46150c9565b60200260200101819052506117c9826007018281548110611707576117076150c9565b60009182526020918290200154604080517ff7c618c1000000000000000000000000000000000000000000000000000000008152905173ffffffffffffffffffffffffffffffffffffffff9092169263f7c618c192600480840193829003018186803b15801561177657600080fd5b505afa15801561178a573d6000803e3d6000fd5b505050506040513d601f19601f820116820180604052508101906117ae9190614b71565b73ffffffffffffffffffffffffffffffffffffffff166142f6565b60ff16856117d8836001614f6e565b815181106117e8576117e86150c9565b602002602001018181525050816007018181548110611809576118096150c9565b6000918252602090912001546040517f465e81ec000000000000000000000000000000000000000000000000000000008152600481018a905273ffffffffffffffffffffffffffffffffffffffff9091169063465e81ec9060240160206040518083038186803b15801561187c57600080fd5b505afa158015611890573d6000803e3d6000fd5b505050506040513d601f19601f820116820180604052508101906118b49190614c72565b846118c0836001614f6e565b815181106118d0576118d06150c9565b60209081029190910101526118e481615041565b90506114d0565b5050509193509193565b60005473ffffffffffffffffffffffffffffffffffffffff163314611976576040517f08c379a000000000000000000000000000000000000000000000000000000000815260206004820181905260248201527f4f776e61626c653a2063616c6c6572206973206e6f7420746865206f776e65726044820152606401610745565b6103e861ffff851611156119e6576040517f08c379a000000000000000000000000000000000000000000000000000000000815260206004820152601960248201527f6164643a206465706f7369742066656520746f6f2068696768000000000000006044820152606401610745565b62127500831115611a53576040517f08c379a000000000000000000000000000000000000000000000000000000000815260206004820152601d60248201527f6164643a20696e76616c6964206861727665737420696e74657276616c0000006044820152606401610745565b843b611ae1576040517f08c379a000000000000000000000000000000000000000000000000000000000815260206004820152602660248201527f6164643a204c5020746f6b656e206d75737420626520612076616c696420636f60448201527f6e747261637400000000000000000000000000000000000000000000000000006064820152608401610745565b60005b81811015611b7757611b018383838181106109ee576109ee6150c9565b611b67576040517f08c379a000000000000000000000000000000000000000000000000000000000815260206004820152601e60248201527f6164643a207265776172646572206d75737420626520636f6e747261637400006044820152606401610745565b611b7081615041565b9050611ae4565b50611b806124b5565b60006007544211611b9357600754611b95565b425b905086600654611ba59190614f6e565b60068190555060046040518061010001604052808873ffffffffffffffffffffffffffffffffffffffff168152602001898152602001838152602001600081526020018761ffff168152602001868152602001600081526020018585808060200260200160405190810160405280939291908181526020018383602002808284376000920182905250939094525050835460018082018655948252602091829020845160089092020180547fffffffffffffffffffffffff00000000000000000000000000000000000000001673ffffffffffffffffffffffffffffffffffffffff9092169190911781558382015194810194909455604083015160028501556060830151600385015560808301516004850180547fffffffffffffffffffffffffffffffffffffffffffffffffffffffffffff00001661ffff90921691909117905560a0830151600585015560c0830151600685015560e08301518051939493611d1a935060078501929190910190614a03565b5050508282604051611d2d929190614e2b565b60405190819003902060045473ffffffffffffffffffffffffffffffffffffffff881690611d5d90600190614ffe565b604080518b815261ffff8a1660208201529081018890527f5ed295c4f5af5aeb1ccd905e1cd55a86ab3bb9fc1fe2346ff64ac47dbef366619060600160405180910390a450505050505050565b60045481908110611e17576040517f08c379a000000000000000000000000000000000000000000000000000000000815260206004820152601360248201527f506f6f6c20646f6573206e6f74206578697374000000000000000000000000006044820152606401610745565b600060048381548110611e2c57611e2c6150c9565b9060005260206000209060080201905080600201544211611e4c57505050565b6006810154801580611e6057506001820154155b15611e715750426002909101555050565b6000826002015442611e839190614ffe565b90506000600654846001015460035484611e9d9190614fc1565b611ea79190614fc1565b611eb19190614f86565b90506000600f54600e54600d546103e8611ecb9190614ffe565b611ed59190614ffe565b611edf9190614ffe565b600254600a54600d5492935073ffffffffffffffffffffffffffffffffffffffff918216926340c10f1992909116906103e890611f1c9087614fc1565b611f269190614f86565b6040517fffffffff0000000000000000000000000000000000000000000000000000000060e085901b16815273ffffffffffffffffffffffffffffffffffffffff90921660048301526024820152604401600060405180830381600087803b158015611f9157600080fd5b505af1158015611fa5573d6000803e3d6000fd5b5050600254600b54600e5473ffffffffffffffffffffffffffffffffffffffff92831694506340c10f1993509116906103e890611fe29087614fc1565b611fec9190614f86565b6040517fffffffff0000000000000000000000000000000000000000000000000000000060e085901b16815273ffffffffffffffffffffffffffffffffffffffff90921660048301526024820152604401600060405180830381600087803b15801561205757600080fd5b505af115801561206b573d6000803e3d6000fd5b5050600254600c54600f5473ffffffffffffffffffffffffffffffffffffffff92831694506340c10f1993509116906103e8906120a89087614fc1565b6120b29190614f86565b6040517fffffffff0000000000000000000000000000000000000000000000000000000060e085901b16815273ffffffffffffffffffffffffffffffffffffffff90921660048301526024820152604401600060405180830381600087803b15801561211d57600080fd5b505af1158015612131573d6000803e3d6000fd5b505060025473ffffffffffffffffffffffffffffffffffffffff1691506340c10f199050306103e86121638587614fc1565b61216d9190614f86565b6040517fffffffff0000000000000000000000000000000000000000000000000000000060e085901b16815273ffffffffffffffffffffffffffffffffffffffff90921660048301526024820152604401600060405180830381600087803b1580156121d857600080fd5b505af11580156121ec573d6000803e3d6000fd5b505050506103e88186600601548464e8d4a5100061220a9190614fc1565b6122149190614f86565b61221e9190614fc1565b6122289190614f86565b85600301600082825461223b9190614f6e565b909155505042600286018190556003860154604080519283526020830187905282015287907f3be3541fc42237d611b30329040bfa4569541d156560acdbbae57640d20b8f469060600160405180910390a250505050505b5050565b60026001541415612304576040517f08c379a000000000000000000000000000000000000000000000000000000000815260206004820152601f60248201527f5265656e7472616e637947756172643a207265656e7472616e742063616c6c006044820152606401610745565b6002600181905550600060048281548110612321576123216150c9565b600091825260208083208584526005825260408085203386529092529220805460089290920290920160068101549093508111156123e1576040517f08c379a000000000000000000000000000000000000000000000000000000000815260206004820152602960248201527f656d657267656e63792077697468647261773a20706f6f6c20746f74616c206e60448201527f6f7420656e6f75676800000000000000000000000000000000000000000000006064820152608401610745565b600080835560018301819055600283018190556003830181905560068401805483929061240f908490614ffe565b9091555050600254835473ffffffffffffffffffffffffffffffffffffffff9081169116141561245157806009600082825461244b9190614ffe565b90915550505b82546124749073ffffffffffffffffffffffffffffffffffffffff16338361406e565b604051818152849033907fbb757047c2b5f3974fe26b7c10f732e7bce710b0952a71082702781e62ae05959060200160405180910390a35050600180555050565b60045460005b81811015612293576124cc81611daa565b6124d581615041565b90506124bb565b6000600482815481106124f1576124f16150c9565b9060005260206000209060080201600601549050919050565b600a5473ffffffffffffffffffffffffffffffffffffffff1633146125d7576040517f08c379a000000000000000000000000000000000000000000000000000000000815260206004820152604160248201527f736574207465616d20616464726573733a206f6e6c792070726576696f75732060448201527f7465616d20616464726573732063616e2063616c6c2074686973206d6574686f60648201527f6400000000000000000000000000000000000000000000000000000000000000608482015260a401610745565b600a80547fffffffffffffffffffffffff00000000000000000000000000000000000000001673ffffffffffffffffffffffffffffffffffffffff831690811790915560405133907f42fbc17d847fdc3e5c82da842a5ef3979c64f3b94cd4e7382310fd5525c6ee0f90600090a350565b60005473ffffffffffffffffffffffffffffffffffffffff1633146126c9576040517f08c379a000000000000000000000000000000000000000000000000000000000815260206004820181905260248201527f4f776e61626c653a2063616c6c6572206973206e6f7420746865206f776e65726044820152606401610745565b6126d360006143e9565b565b60005473ffffffffffffffffffffffffffffffffffffffff163314612756576040517f08c379a000000000000000000000000000000000000000000000000000000000815260206004820181905260248201527f4f776e61626c653a2063616c6c6572206973206e6f7420746865206f776e65726044820152606401610745565b6103e88111156127e8576040517f08c379a000000000000000000000000000000000000000000000000000000000815260206004820152602b60248201527f73657420696e766573746f722070657263656e743a20696e76616c696420706560448201527f7263656e742076616c75650000000000000000000000000000000000000000006064820152608401610745565b6103e8600e5482600d546127fc9190614f6e565b6128069190614f6e565b1115612894576040517f08c379a000000000000000000000000000000000000000000000000000000000815260206004820152602c60248201527f73657420696e766573746f722070657263656e743a20746f74616c207065726360448201527f656e74206f766572206d617800000000000000000000000000000000000000006064820152608401610745565b600f5460408051918252602082018390527f204a076f4a2e4e5e646bb8841cc285306bf747e277f40dbfd5750e782e17b7a6910160405180910390a1600f55565b60005473ffffffffffffffffffffffffffffffffffffffff163314612956576040517f08c379a000000000000000000000000000000000000000000000000000000000815260206004820181905260248201527f4f776e61626c653a2063616c6c6572206973206e6f7420746865206f776e65726044820152606401610745565b6103e88111156129e8576040517f08c379a000000000000000000000000000000000000000000000000000000000815260206004820152602b60248201527f7365742074726561737572792070657263656e743a20696e76616c696420706560448201527f7263656e742076616c75650000000000000000000000000000000000000000006064820152608401610745565b6103e8600f5482600d546129fc9190614f6e565b612a069190614f6e565b1115612a94576040517f08c379a000000000000000000000000000000000000000000000000000000000815260206004820152602c60248201527f7365742074726561737572792070657263656e743a20746f74616c207065726360448201527f656e74206f766572206d617800000000000000000000000000000000000000006064820152608401610745565b600e5460408051918252602082018390527f204a076f4a2e4e5e646bb8841cc285306bf747e277f40dbfd5750e782e17b7a6910160405180910390a1600e55565b60005473ffffffffffffffffffffffffffffffffffffffff163314612b56576040517f08c379a000000000000000000000000000000000000000000000000000000000815260206004820181905260248201527f4f776e61626c653a2063616c6c6572206973206e6f7420746865206f776e65726044820152606401610745565b6103e8811115612be8576040517f08c379a000000000000000000000000000000000000000000000000000000000815260206004820152602760248201527f736574207465616d2070657263656e743a20696e76616c69642070657263656e60448201527f742076616c7565000000000000000000000000000000000000000000000000006064820152608401610745565b6103e8600f5482600e54612bfc9190614f6e565b612c069190614f6e565b1115612c94576040517f08c379a000000000000000000000000000000000000000000000000000000000815260206004820152602860248201527f736574207465616d2070657263656e743a20746f74616c2070657263656e742060448201527f6f766572206d61780000000000000000000000000000000000000000000000006064820152608401610745565b600d5460408051918252602082018390527f204a076f4a2e4e5e646bb8841cc285306bf747e277f40dbfd5750e782e17b7a6910160405180910390a1600d55565b600b5473ffffffffffffffffffffffffffffffffffffffff163314612d56576040517f08c379a000000000000000000000000000000000000000000000000000000000815260206004820152601a60248201527f73657420747265617375727920616464726573733a207775743f0000000000006044820152606401610745565b600b80547fffffffffffffffffffffffff00000000000000000000000000000000000000001673ffffffffffffffffffffffffffffffffffffffff831690811790915560405133907f61885cdba916be748ff3e3f6f15e4206153b8ea3b7acabade9d04b4063a8351090600090a350565b60005473ffffffffffffffffffffffffffffffffffffffff163314612e48576040517f08c379a000000000000000000000000000000000000000000000000000000000815260206004820181905260248201527f4f776e61626c653a2063616c6c6572206973206e6f7420746865206f776e65726044820152606401610745565b6007544210612ed9576040517f08c379a000000000000000000000000000000000000000000000000000000000815260206004820152602360248201527f7374617274206661726d696e673a206661726d207374617274656420616c726560448201527f61647900000000000000000000000000000000000000000000000000000000006064820152608401610745565b60045460005b81811015612f2757600060048281548110612efc57612efc6150c9565b906000526020600020906008020190504281600201819055505080612f2090615041565b9050612edf565b505042600755565b60005b81811015612f6d57612f5d838383818110612f4f57612f4f6150c9565b905060200201356000612f72565b612f6681615041565b9050612f32565b505050565b60026001541415612fdf576040517f08c379a000000000000000000000000000000000000000000000000000000000815260206004820152601f60248201527f5265656e7472616e637947756172643a207265656e7472616e742063616c6c006044820152606401610745565b600260015560045482908110613051576040517f08c379a000000000000000000000000000000000000000000000000000000000815260206004820152601360248201527f506f6f6c20646f6573206e6f74206578697374000000000000000000000000006044820152606401610745565b600060048481548110613066576130666150c9565b6000918252602080832087845260058252604080852033865290925292206008909102909101915061309785611daa565b6130a085613eda565b83156132e35781546040517f70a0823100000000000000000000000000000000000000000000000000000000815230600482015260009173ffffffffffffffffffffffffffffffffffffffff16906370a082319060240160206040518083038186803b15801561310f57600080fd5b505afa158015613123573d6000803e3d6000fd5b505050506040513d601f19601f820116820180604052508101906131479190614c72565b835490915061316e9073ffffffffffffffffffffffffffffffffffffffff1633308861445e565b82546040517f70a0823100000000000000000000000000000000000000000000000000000000815230600482015260009173ffffffffffffffffffffffffffffffffffffffff16906370a082319060240160206040518083038186803b1580156131d757600080fd5b505afa1580156131eb573d6000803e3d6000fd5b505050506040513d601f19601f8201168201806040525081019061320f9190614c72565b905061321b8282614ffe565b600485015490965061ffff161561328a576004840154600090612710906132469061ffff1689614fc1565b6132509190614f86565b600b54865491925061327c9173ffffffffffffffffffffffffffffffffffffffff90811691168361406e565b6132868188614ffe565b9650505b8583600001600082825461329e9190614f6e565b9091555050600254845473ffffffffffffffffffffffffffffffffffffffff908116911614156132e05785600960008282546132da9190614f6e565b90915550505b50505b6003820154815464e8d4a51000916132fa91614fc1565b6133049190614f86565b600182015560005b60078301548110156133db5782600701818154811061332d5761332d6150c9565b60009182526020909120015482546040517ffe8343fb00000000000000000000000000000000000000000000000000000000815260048101899052336024820152604481019190915273ffffffffffffffffffffffffffffffffffffffff9091169063fe8343fb90606401600060405180830381600087803b1580156133b257600080fd5b505af11580156133c6573d6000803e3d6000fd5b50505050806133d490615041565b905061330c565b5083156133fc57838260060160008282546133f69190614f6e565b90915550505b604051848152859033907f90890809c654f11d6e72a28fa60149770a0d11ec6c92319d6ceb2bb0a4ea1a15906020016111c1565b60005473ffffffffffffffffffffffffffffffffffffffff1633146134b1576040517f08c379a000000000000000000000000000000000000000000000000000000000815260206004820181905260248201527f4f776e61626c653a2063616c6c6572206973206e6f7420746865206f776e65726044820152606401610745565b6134b96124b5565b3373ffffffffffffffffffffffffffffffffffffffff167f802633c8d26237616d81bdac01bc40fcdf36e098832601582ec19d7e431c5ef360048481548110613504576135046150c9565b9060005260206000209060080201600101548360405161352e929190918252602082015260400190565b60405180910390a2806004838154811061354a5761354a6150c9565b9060005260206000209060080201600101546006546135699190614ffe565b6135739190614f6e565b600681905550806004838154811061358d5761358d6150c9565b9060005260206000209060080201600101819055505050565b60045460609082908110613616576040517f08c379a000000000000000000000000000000000000000000000000000000000815260206004820152601360248201527f506f6f6c20646f6573206e6f74206578697374000000000000000000000000006044820152606401610745565b60006004848154811061362b5761362b6150c9565b9060005260206000209060080201905060005b60078201548110156136d15781600701818154811061365f5761365f6150c9565b9060005260206000200160009054906101000a900473ffffffffffffffffffffffffffffffffffffffff1684828151811061369c5761369c6150c9565b73ffffffffffffffffffffffffffffffffffffffff909216602092830291909101909101526136ca81615041565b905061363e565b505050919050565b60005473ffffffffffffffffffffffffffffffffffffffff16331461375a576040517f08c379a000000000000000000000000000000000000000000000000000000000815260206004820181905260248201527f4f776e61626c653a2063616c6c6572206973206e6f7420746865206f776e65726044820152606401610745565b73ffffffffffffffffffffffffffffffffffffffff81166137fd576040517f08c379a000000000000000000000000000000000000000000000000000000000815260206004820152602660248201527f4f776e61626c653a206e6577206f776e657220697320746865207a65726f206160448201527f64647265737300000000000000000000000000000000000000000000000000006064820152608401610745565b613806816143e9565b50565b60608060608085600480549050811061387e576040517f08c379a000000000000000000000000000000000000000000000000000000000815260206004820152601360248201527f506f6f6c20646f6573206e6f74206578697374000000000000000000000000006044820152606401610745565b600060048881548110613893576138936150c9565b600091825260208083208b845260058252604080852073ffffffffffffffffffffffffffffffffffffffff8d16865290925292206003600890920290920190810154600682015460028301549294509091421180156138f157508015155b156139a85760008460020154426139089190614ffe565b90506000600f54600e54600d546103e86139229190614ffe565b61392c9190614ffe565b6139369190614ffe565b905060006103e8826006548960010154600354876139549190614fc1565b61395e9190614fc1565b6139689190614f86565b6139729190614fc1565b61397c9190614f86565b90508361398e8264e8d4a51000614fc1565b6139989190614f86565b6139a29086614f6e565b94505050505b60008360020154846001015464e8d4a510008587600001546139ca9190614fc1565b6139d49190614f86565b6139de9190614ffe565b6139e89190614f6e565b60078601549091506139fb906001614f6e565b67ffffffffffffffff811115613a1357613a136150f8565b604051908082528060200260200182016040528015613a3c578160200160208202803683370190505b506007860154909a50613a50906001614f6e565b67ffffffffffffffff811115613a6857613a686150f8565b604051908082528060200260200182016040528015613a9b57816020015b6060815260200190600190039081613a865790505b506007860154909950613aaf906001614f6e565b67ffffffffffffffff811115613ac757613ac76150f8565b604051908082528060200260200182016040528015613af0578160200160208202803683370190505b506007860154909750613b04906001614f6e565b67ffffffffffffffff811115613b1c57613b1c6150f8565b604051908082528060200260200182016040528015613b45578160200160208202803683370190505b506002548b5191995073ffffffffffffffffffffffffffffffffffffffff16908b90600090613b7657613b766150c9565b73ffffffffffffffffffffffffffffffffffffffff9283166020918202929092010152600254613ba691166141de565b89600081518110613bb957613bb96150c9565b6020908102919091010152600254613be69073ffffffffffffffffffffffffffffffffffffffff166142f6565b60ff1688600081518110613bfc57613bfc6150c9565b6020026020010181815250508087600081518110613c1c57613c1c6150c9565b60200260200101818152505060005b6007860154811015613eca57856007018181548110613c4c57613c4c6150c9565b60009182526020918290200154604080517ff7c618c1000000000000000000000000000000000000000000000000000000008152905173ffffffffffffffffffffffffffffffffffffffff9092169263f7c618c192600480840193829003018186803b158015613cbb57600080fd5b505afa158015613ccf573d6000803e3d6000fd5b505050506040513d601f19601f82011682018060405250810190613cf39190614b71565b8b613cff836001614f6e565b81518110613d0f57613d0f6150c9565b602002602001019073ffffffffffffffffffffffffffffffffffffffff16908173ffffffffffffffffffffffffffffffffffffffff1681525050613d61866007018281548110611606576116066150c9565b8a613d6d836001614f6e565b81518110613d7d57613d7d6150c9565b6020026020010181905250613da0866007018281548110611707576117076150c9565b60ff1689613daf836001614f6e565b81518110613dbf57613dbf6150c9565b602002602001018181525050856007018181548110613de057613de06150c9565b6000918252602090912001546040517fffcd4263000000000000000000000000000000000000000000000000000000008152600481018f905273ffffffffffffffffffffffffffffffffffffffff8e811660248301529091169063ffcd42639060440160206040518083038186803b158015613e5b57600080fd5b505afa158015613e6f573d6000803e3d6000fd5b505050506040513d601f19601f82011682018060405250810190613e939190614c72565b88613e9f836001614f6e565b81518110613eaf57613eaf6150c9565b6020908102919091010152613ec381615041565b9050613c2b565b5050505050505092959194509250565b600060048281548110613eef57613eef6150c9565b600091825260208083208584526005825260408085203386529092529220600381015460089092029092019250158015613f2b57506007544210155b15613f45576005820154613f3f9042614f6e565b60038201555b6000816001015464e8d4a5100084600301548460000154613f669190614fc1565b613f709190614f86565b613f7a9190614ffe565b9050613f868433610bf6565b15613ff8576000811180613f9e575060008260020154115b15613ff357816002015460086000828254613fb99190614ffe565b9091555050600060028301556005830154613fd49042614f6e565b60038301556002820154613ff3903390613fee9084614f6e565b6145d7565b614068565b80156140685780600860008282546140109190614f6e565b925050819055508082600201600082825461402b9190614f6e565b9091555050604051818152849033907fee470483107f579a55c754fa00613c45a9a3b617a418b39cb0be97e5381ba7c19060200160405180910390a35b50505050565b6040805173ffffffffffffffffffffffffffffffffffffffff8481166024830152604480830185905283518084039091018152606490920183526020820180517bffffffffffffffffffffffffffffffffffffffffffffffffffffffff167fa9059cbb0000000000000000000000000000000000000000000000000000000017905291516000928392908716916141059190614e7a565b6000604051808303816000865af19150503d8060008114614142576040519150601f19603f3d011682016040523d82523d6000602084013e614147565b606091505b50915091508180156141715750805115806141715750808060200190518101906141719190614b4f565b6141d7576040517f08c379a000000000000000000000000000000000000000000000000000000000815260206004820152601c60248201527f426f72696e6745524332303a205472616e73666572206661696c6564000000006044820152606401610745565b5050505050565b60408051600481526024810182526020810180517bffffffffffffffffffffffffffffffffffffffffffffffffffffffff167f95d89b41000000000000000000000000000000000000000000000000000000001790529051606091600091829173ffffffffffffffffffffffffffffffffffffffff8616916142609190614e7a565b600060405180830381855afa9150503d806000811461429b576040519150601f19603f3d011682016040523d82523d6000602084013e6142a0565b606091505b5091509150816142e5576040518060400160405280600381526020017f3f3f3f00000000000000000000000000000000000000000000000000000000008152506142ee565b6142ee81614788565b949350505050565b60408051600481526024810182526020810180517bffffffffffffffffffffffffffffffffffffffffffffffffffffffff167f313ce5670000000000000000000000000000000000000000000000000000000017905290516000918291829173ffffffffffffffffffffffffffffffffffffffff8616916143779190614e7a565b600060405180830381855afa9150503d80600081146143b2576040519150601f19603f3d011682016040523d82523d6000602084013e6143b7565b606091505b50915091508180156143ca575080516020145b6143d55760126142ee565b808060200190518101906142ee9190614d87565b6000805473ffffffffffffffffffffffffffffffffffffffff8381167fffffffffffffffffffffffff0000000000000000000000000000000000000000831681178455604051919092169283917f8be0079c531659141344cd1fd0a4f28419497f9722a3daafe3b4186f6b6457e09190a35050565b6040805173ffffffffffffffffffffffffffffffffffffffff85811660248301528481166044830152606480830185905283518084039091018152608490920183526020820180517bffffffffffffffffffffffffffffffffffffffffffffffffffffffff167f23b872dd0000000000000000000000000000000000000000000000000000000017905291516000928392908816916144fd9190614e7a565b6000604051808303816000865af19150503d806000811461453a576040519150601f19603f3d011682016040523d82523d6000602084013e61453f565b606091505b50915091508180156145695750805115806145695750808060200190518101906145699190614b4f565b6145cf576040517f08c379a000000000000000000000000000000000000000000000000000000000815260206004820181905260248201527f426f72696e6745524332303a205472616e7366657246726f6d206661696c65646044820152606401610745565b505050505050565b6009546002546040517f70a0823100000000000000000000000000000000000000000000000000000000815230600482015273ffffffffffffffffffffffffffffffffffffffff909116906370a082319060240160206040518083038186803b15801561464357600080fd5b505afa158015614657573d6000803e3d6000fd5b505050506040513d601f19601f8201168201806040525081019061467b9190614c72565b1115612293576009546002546040517f70a082310000000000000000000000000000000000000000000000000000000081523060048201526000929173ffffffffffffffffffffffffffffffffffffffff16906370a082319060240160206040518083038186803b1580156146ef57600080fd5b505afa158015614703573d6000803e3d6000fd5b505050506040513d601f19601f820116820180604052508101906147279190614c72565b6147319190614ffe565b905080821061475e57600254612f6d9073ffffffffffffffffffffffffffffffffffffffff16848361406e565b8115612f6d57600254612f6d9073ffffffffffffffffffffffffffffffffffffffff16848461406e565b606060408251106147ad57818060200190518101906147a79190614b8e565b92915050565b81516020141561493d5760005b60208160ff161080156148075750828160ff16815181106147dd576147dd6150c9565b01602001517fff000000000000000000000000000000000000000000000000000000000000001615155b1561481e57806148168161507a565b9150506147ba565b60008160ff1667ffffffffffffffff81111561483c5761483c6150f8565b6040519080825280601f01601f191660200182016040528015614866576020820181803683370190505b509050600091505b60208260ff161080156148bb5750838260ff1681518110614891576148916150c9565b01602001517fff000000000000000000000000000000000000000000000000000000000000001615155b1561493657838260ff16815181106148d5576148d56150c9565b602001015160f81c60f81b818360ff16815181106148f5576148f56150c9565b60200101907effffffffffffffffffffffffffffffffffffffffffffffffffffffffffffff1916908160001a9053508161492e8161507a565b92505061486e565b9392505050565b505060408051808201909152600381527f3f3f3f0000000000000000000000000000000000000000000000000000000000602082015290565b919050565b8280548282559060005260206000209081019282156149f3579160200282015b828111156149f35781547fffffffffffffffffffffffff00000000000000000000000000000000000000001673ffffffffffffffffffffffffffffffffffffffff84351617825560209092019160019091019061499b565b506149ff929150614a7d565b5090565b8280548282559060005260206000209081019282156149f3579160200282015b828111156149f357825182547fffffffffffffffffffffffff00000000000000000000000000000000000000001673ffffffffffffffffffffffffffffffffffffffff909116178255602090920191600190910190614a23565b5b808211156149ff5760008155600101614a7e565b60008083601f840112614aa457600080fd5b50813567ffffffffffffffff811115614abc57600080fd5b6020830191508360208260051b8501011115614ad757600080fd5b9250929050565b803561ffff8116811461497657600080fd5b600060208284031215614b0257600080fd5b813561493681615127565b60008060208385031215614b2057600080fd5b823567ffffffffffffffff811115614b3757600080fd5b614b4385828601614a92565b90969095509350505050565b600060208284031215614b6157600080fd5b8151801515811461493657600080fd5b600060208284031215614b8357600080fd5b815161493681615127565b600060208284031215614ba057600080fd5b815167ffffffffffffffff80821115614bb857600080fd5b818401915084601f830112614bcc57600080fd5b815181811115614bde57614bde6150f8565b604051601f82017fffffffffffffffffffffffffffffffffffffffffffffffffffffffffffffffe0908116603f01168101908382118183101715614c2457614c246150f8565b81604052828152876020848701011115614c3d57600080fd5b614c4e836020830160208801615015565b979650505050505050565b600060208284031215614c6b57600080fd5b5035919050565b600060208284031215614c8457600080fd5b5051919050565b60008060408385031215614c9e57600080fd5b823591506020830135614cb081615127565b809150509250929050565b60008060008060008060a08789031215614cd457600080fd5b863595506020870135614ce681615127565b9450614cf460408801614ade565b935060608701359250608087013567ffffffffffffffff811115614d1757600080fd5b614d2389828a01614a92565b979a9699509497509295939492505050565b60008060408385031215614d4857600080fd5b50508035926020909101359150565b60008060008060008060a08789031215614d7057600080fd5b8635955060208701359450614cf460408801614ade565b600060208284031215614d9957600080fd5b815160ff8116811461493657600080fd5b600081518084526020808501945080840160005b83811015614df057815173ffffffffffffffffffffffffffffffffffffffff1687529582019590820190600101614dbe565b509495945050505050565b600081518084526020808501945080840160005b83811015614df057815187529582019590820190600101614e0f565b60008184825b85811015614e6f578135614e4481615127565b73ffffffffffffffffffffffffffffffffffffffff1683526020928301929190910190600101614e31565b509095945050505050565b60008251614e8c818460208701615015565b9190910192915050565b6020815260006149366020830184614daa565b608081526000614ebc6080830187614daa565b6020838203818501528187518084528284019150828160051b850101838a0160005b83811015614f42577fffffffffffffffffffffffffffffffffffffffffffffffffffffffffffffffe08088850301865282518051808652614f24818a88018b8501615015565b96880196601f01909116939093018601925090850190600101614ede565b50508681036040880152614f56818a614dfb565b9450505050508281036060840152614c4e8185614dfb565b60008219821115614f8157614f8161509a565b500190565b600082614fbc577f4e487b7100000000000000000000000000000000000000000000000000000000600052601260045260246000fd5b500490565b6000817fffffffffffffffffffffffffffffffffffffffffffffffffffffffffffffffff0483118215151615614ff957614ff961509a565b500290565b6000828210156150105761501061509a565b500390565b60005b83811015615030578181015183820152602001615018565b838111156140685750506000910152565b60007fffffffffffffffffffffffffffffffffffffffffffffffffffffffffffffffff8214156150735761507361509a565b5060010190565b600060ff821660ff8114156150915761509161509a565b60010192915050565b7f4e487b7100000000000000000000000000000000000000000000000000000000600052601160045260246000fd5b7f4e487b7100000000000000000000000000000000000000000000000000000000600052603260045260246000fd5b7f4e487b7100000000000000000000000000000000000000000000000000000000600052604160045260246000fd5b73ffffffffffffffffffffffffffffffffffffffff8116811461380657600080fdfea26469706673582212203019de4a38b5b97281cfcc90e756f13f846ba5f30ab050658b19946eb1b2a01464736f6c63430008070033",
  "devdoc": {
    "kind": "dev",
    "methods": {
      "owner()": {
        "details": "Returns the address of the current owner."
      },
      "renounceOwnership()": {
        "details": "Leaves the contract without owner. It will not be possible to call `onlyOwner` functions anymore. Can only be called by the current owner. NOTE: Renouncing ownership will leave the contract without an owner, thereby removing any functionality that is only available to the owner."
      },
      "transferOwnership(address)": {
        "details": "Transfers ownership of the contract to a new account (`newOwner`). Can only be called by the current owner."
      }
    },
    "version": 1
  },
  "userdoc": {
    "kind": "user",
    "methods": {
      "poolRewardsPerSec(uint256)": {
        "notice": "View function to see pool rewards per sec"
      }
    },
    "version": 1
  },
  "storageLayout": {
    "storage": [
      {
        "astId": 375,
        "contract": "contracts/farm/v2/SolarDistributorV2.sol:SolarDistributorV2",
        "label": "_owner",
        "offset": 0,
        "slot": "0",
        "type": "t_address"
      },
      {
        "astId": 650,
        "contract": "contracts/farm/v2/SolarDistributorV2.sol:SolarDistributorV2",
        "label": "_status",
        "offset": 0,
        "slot": "1",
        "type": "t_uint256"
      },
      {
        "astId": 9544,
        "contract": "contracts/farm/v2/SolarDistributorV2.sol:SolarDistributorV2",
        "label": "solar",
        "offset": 0,
        "slot": "2",
        "type": "t_contract(IBoringERC20)12180"
      },
      {
        "astId": 9546,
        "contract": "contracts/farm/v2/SolarDistributorV2.sol:SolarDistributorV2",
        "label": "solarPerSec",
        "offset": 0,
        "slot": "3",
        "type": "t_uint256"
      },
      {
        "astId": 9556,
        "contract": "contracts/farm/v2/SolarDistributorV2.sol:SolarDistributorV2",
        "label": "poolInfo",
        "offset": 0,
        "slot": "4",
        "type": "t_array(t_struct(PoolInfo)9541_storage)dyn_storage"
      },
      {
        "astId": 9563,
        "contract": "contracts/farm/v2/SolarDistributorV2.sol:SolarDistributorV2",
        "label": "userInfo",
        "offset": 0,
        "slot": "5",
        "type": "t_mapping(t_uint256,t_mapping(t_address,t_struct(UserInfo)9521_storage))"
      },
      {
        "astId": 9566,
        "contract": "contracts/farm/v2/SolarDistributorV2.sol:SolarDistributorV2",
        "label": "totalAllocPoint",
        "offset": 0,
        "slot": "6",
        "type": "t_uint256"
      },
      {
        "astId": 9568,
        "contract": "contracts/farm/v2/SolarDistributorV2.sol:SolarDistributorV2",
        "label": "startTimestamp",
        "offset": 0,
        "slot": "7",
        "type": "t_uint256"
      },
      {
        "astId": 9570,
        "contract": "contracts/farm/v2/SolarDistributorV2.sol:SolarDistributorV2",
        "label": "totalLockedUpRewards",
        "offset": 0,
        "slot": "8",
        "type": "t_uint256"
      },
      {
        "astId": 9573,
        "contract": "contracts/farm/v2/SolarDistributorV2.sol:SolarDistributorV2",
        "label": "totalSolarInPools",
        "offset": 0,
        "slot": "9",
        "type": "t_uint256"
      },
      {
        "astId": 9575,
        "contract": "contracts/farm/v2/SolarDistributorV2.sol:SolarDistributorV2",
        "label": "teamAddress",
        "offset": 0,
        "slot": "10",
        "type": "t_address"
      },
      {
        "astId": 9577,
        "contract": "contracts/farm/v2/SolarDistributorV2.sol:SolarDistributorV2",
        "label": "treasuryAddress",
        "offset": 0,
        "slot": "11",
        "type": "t_address"
      },
      {
        "astId": 9579,
        "contract": "contracts/farm/v2/SolarDistributorV2.sol:SolarDistributorV2",
        "label": "investorAddress",
        "offset": 0,
        "slot": "12",
        "type": "t_address"
      },
      {
        "astId": 9581,
        "contract": "contracts/farm/v2/SolarDistributorV2.sol:SolarDistributorV2",
        "label": "teamPercent",
        "offset": 0,
        "slot": "13",
        "type": "t_uint256"
      },
      {
        "astId": 9583,
        "contract": "contracts/farm/v2/SolarDistributorV2.sol:SolarDistributorV2",
        "label": "treasuryPercent",
        "offset": 0,
        "slot": "14",
        "type": "t_uint256"
      },
      {
        "astId": 9585,
        "contract": "contracts/farm/v2/SolarDistributorV2.sol:SolarDistributorV2",
        "label": "investorPercent",
        "offset": 0,
        "slot": "15",
        "type": "t_uint256"
      }
    ],
    "types": {
      "t_address": {
        "encoding": "inplace",
        "label": "address",
        "numberOfBytes": "20"
      },
      "t_array(t_contract(IComplexRewarder)13068)dyn_storage": {
        "base": "t_contract(IComplexRewarder)13068",
        "encoding": "dynamic_array",
        "label": "contract IComplexRewarder[]",
        "numberOfBytes": "32"
      },
      "t_array(t_struct(PoolInfo)9541_storage)dyn_storage": {
        "base": "t_struct(PoolInfo)9541_storage",
        "encoding": "dynamic_array",
        "label": "struct SolarDistributorV2.PoolInfo[]",
        "numberOfBytes": "32"
      },
      "t_contract(IBoringERC20)12180": {
        "encoding": "inplace",
        "label": "contract IBoringERC20",
        "numberOfBytes": "20"
      },
      "t_contract(IComplexRewarder)13068": {
        "encoding": "inplace",
        "label": "contract IComplexRewarder",
        "numberOfBytes": "20"
      },
      "t_mapping(t_address,t_struct(UserInfo)9521_storage)": {
        "encoding": "mapping",
        "key": "t_address",
        "label": "mapping(address => struct SolarDistributorV2.UserInfo)",
        "numberOfBytes": "32",
        "value": "t_struct(UserInfo)9521_storage"
      },
      "t_mapping(t_uint256,t_mapping(t_address,t_struct(UserInfo)9521_storage))": {
        "encoding": "mapping",
        "key": "t_uint256",
        "label": "mapping(uint256 => mapping(address => struct SolarDistributorV2.UserInfo))",
        "numberOfBytes": "32",
        "value": "t_mapping(t_address,t_struct(UserInfo)9521_storage)"
      },
      "t_struct(PoolInfo)9541_storage": {
        "encoding": "inplace",
        "label": "struct SolarDistributorV2.PoolInfo",
        "members": [
          {
            "astId": 9524,
            "contract": "contracts/farm/v2/SolarDistributorV2.sol:SolarDistributorV2",
            "label": "lpToken",
            "offset": 0,
            "slot": "0",
            "type": "t_contract(IBoringERC20)12180"
          },
          {
            "astId": 9526,
            "contract": "contracts/farm/v2/SolarDistributorV2.sol:SolarDistributorV2",
            "label": "allocPoint",
            "offset": 0,
            "slot": "1",
            "type": "t_uint256"
          },
          {
            "astId": 9528,
            "contract": "contracts/farm/v2/SolarDistributorV2.sol:SolarDistributorV2",
            "label": "lastRewardTimestamp",
            "offset": 0,
            "slot": "2",
            "type": "t_uint256"
          },
          {
            "astId": 9530,
            "contract": "contracts/farm/v2/SolarDistributorV2.sol:SolarDistributorV2",
            "label": "accSolarPerShare",
            "offset": 0,
            "slot": "3",
            "type": "t_uint256"
          },
          {
            "astId": 9532,
            "contract": "contracts/farm/v2/SolarDistributorV2.sol:SolarDistributorV2",
            "label": "depositFeeBP",
            "offset": 0,
            "slot": "4",
            "type": "t_uint16"
          },
          {
            "astId": 9534,
            "contract": "contracts/farm/v2/SolarDistributorV2.sol:SolarDistributorV2",
            "label": "harvestInterval",
            "offset": 0,
            "slot": "5",
            "type": "t_uint256"
          },
          {
            "astId": 9536,
            "contract": "contracts/farm/v2/SolarDistributorV2.sol:SolarDistributorV2",
            "label": "totalLp",
            "offset": 0,
            "slot": "6",
            "type": "t_uint256"
          },
          {
            "astId": 9540,
            "contract": "contracts/farm/v2/SolarDistributorV2.sol:SolarDistributorV2",
            "label": "rewarders",
            "offset": 0,
            "slot": "7",
            "type": "t_array(t_contract(IComplexRewarder)13068)dyn_storage"
          }
        ],
        "numberOfBytes": "256"
      },
      "t_struct(UserInfo)9521_storage": {
        "encoding": "inplace",
        "label": "struct SolarDistributorV2.UserInfo",
        "members": [
          {
            "astId": 9514,
            "contract": "contracts/farm/v2/SolarDistributorV2.sol:SolarDistributorV2",
            "label": "amount",
            "offset": 0,
            "slot": "0",
            "type": "t_uint256"
          },
          {
            "astId": 9516,
            "contract": "contracts/farm/v2/SolarDistributorV2.sol:SolarDistributorV2",
            "label": "rewardDebt",
            "offset": 0,
            "slot": "1",
            "type": "t_uint256"
          },
          {
            "astId": 9518,
            "contract": "contracts/farm/v2/SolarDistributorV2.sol:SolarDistributorV2",
            "label": "rewardLockedUp",
            "offset": 0,
            "slot": "2",
            "type": "t_uint256"
          },
          {
            "astId": 9520,
            "contract": "contracts/farm/v2/SolarDistributorV2.sol:SolarDistributorV2",
            "label": "nextHarvestUntil",
            "offset": 0,
            "slot": "3",
            "type": "t_uint256"
          }
        ],
        "numberOfBytes": "128"
      },
      "t_uint16": {
        "encoding": "inplace",
        "label": "uint16",
        "numberOfBytes": "2"
      },
      "t_uint256": {
        "encoding": "inplace",
        "label": "uint256",
        "numberOfBytes": "32"
      }
    }
  }
}