{
  "address": "0x2923ec4FD8968f335aC2933BC8b8Fd602ce850Ec",
  "abi": [
    {
      "inputs": [
        {
          "internalType": "contract IBoringERC20",
          "name": "_rewardToken",
          "type": "address"
        },
        {
          "internalType": "contract IBoringERC20",
          "name": "_lpToken",
          "type": "address"
        },
        {
          "internalType": "uint256",
          "name": "_tokenPerSec",
          "type": "uint256"
        },
        {
          "internalType": "contract ISolarDistributorV2",
          "name": "_distributorV2",
          "type": "address"
        },
        {
          "internalType": "bool",
          "name": "_isNative",
          "type": "bool"
        }
      ],
      "stateMutability": "nonpayable",
      "type": "constructor"
    },
    {
      "anonymous": false,
      "inputs": [
        {
          "indexed": true,
          "internalType": "address",
          "name": "user",
          "type": "address"
        },
        {
          "indexed": false,
          "internalType": "uint256",
          "name": "amount",
          "type": "uint256"
        }
      ],
      "name": "OnReward",
      "type": "event"
    },
    {
      "anonymous": false,
      "inputs": [
        {
          "indexed": true,
          "internalType": "address",
          "name": "previousOwner",
          "type": "address"
        },
        {
          "indexed": true,
          "internalType": "address",
          "name": "newOwner",
          "type": "address"
        }
      ],
      "name": "OwnershipTransferred",
      "type": "event"
    },
    {
      "anonymous": false,
      "inputs": [
        {
          "indexed": false,
          "internalType": "uint256",
          "name": "oldRate",
          "type": "uint256"
        },
        {
          "indexed": false,
          "internalType": "uint256",
          "name": "newRate",
          "type": "uint256"
        }
      ],
      "name": "RewardRateUpdated",
      "type": "event"
    },
    {
      "inputs": [],
      "name": "distributorV2",
      "outputs": [
        {
          "internalType": "contract ISolarDistributorV2",
          "name": "",
          "type": "address"
        }
      ],
      "stateMutability": "view",
      "type": "function"
    },
    {
      "inputs": [],
      "name": "emergencyWithdraw",
      "outputs": [],
      "stateMutability": "nonpayable",
      "type": "function"
    },
    {
      "inputs": [],
      "name": "isNative",
      "outputs": [
        {
          "internalType": "bool",
          "name": "",
          "type": "bool"
        }
      ],
      "stateMutability": "view",
      "type": "function"
    },
    {
      "inputs": [],
      "name": "lpToken",
      "outputs": [
        {
          "internalType": "contract IBoringERC20",
          "name": "",
          "type": "address"
        }
      ],
      "stateMutability": "view",
      "type": "function"
    },
    {
      "inputs": [
        {
          "internalType": "address",
          "name": "_user",
          "type": "address"
        },
        {
          "internalType": "uint256",
          "name": "_lpAmount",
          "type": "uint256"
        }
      ],
      "name": "onSolarReward",
      "outputs": [],
      "stateMutability": "nonpayable",
      "type": "function"
    },
    {
      "inputs": [],
      "name": "owner",
      "outputs": [
        {
          "internalType": "address",
          "name": "",
          "type": "address"
        }
      ],
      "stateMutability": "view",
      "type": "function"
    },
    {
      "inputs": [
        {
          "internalType": "address",
          "name": "_user",
          "type": "address"
        }
      ],
      "name": "pendingTokens",
      "outputs": [
        {
          "internalType": "uint256",
          "name": "pending",
          "type": "uint256"
        }
      ],
      "stateMutability": "view",
      "type": "function"
    },
    {
      "inputs": [],
      "name": "poolInfo",
      "outputs": [
        {
          "internalType": "uint256",
          "name": "accTokenPerShare",
          "type": "uint256"
        },
        {
          "internalType": "uint256",
          "name": "lastRewardTimestamp",
          "type": "uint256"
        }
      ],
      "stateMutability": "view",
      "type": "function"
    },
    {
      "inputs": [],
      "name": "renounceOwnership",
      "outputs": [],
      "stateMutability": "nonpayable",
      "type": "function"
    },
    {
      "inputs": [],
      "name": "rewardToken",
      "outputs": [
        {
          "internalType": "contract IBoringERC20",
          "name": "",
          "type": "address"
        }
      ],
      "stateMutability": "view",
      "type": "function"
    },
    {
      "inputs": [
        {
          "internalType": "uint256",
          "name": "_tokenPerSec",
          "type": "uint256"
        }
      ],
      "name": "setRewardRate",
      "outputs": [],
      "stateMutability": "nonpayable",
      "type": "function"
    },
    {
      "inputs": [],
      "name": "tokenPerSec",
      "outputs": [
        {
          "internalType": "uint256",
          "name": "",
          "type": "uint256"
        }
      ],
      "stateMutability": "view",
      "type": "function"
    },
    {
      "inputs": [
        {
          "internalType": "address",
          "name": "newOwner",
          "type": "address"
        }
      ],
      "name": "transferOwnership",
      "outputs": [],
      "stateMutability": "nonpayable",
      "type": "function"
    },
    {
      "inputs": [],
      "name": "updatePool",
      "outputs": [
        {
          "components": [
            {
              "internalType": "uint256",
              "name": "accTokenPerShare",
              "type": "uint256"
            },
            {
              "internalType": "uint256",
              "name": "lastRewardTimestamp",
              "type": "uint256"
            }
          ],
          "internalType": "struct SimpleRewarderPerSec.PoolInfo",
          "name": "pool",
          "type": "tuple"
        }
      ],
      "stateMutability": "nonpayable",
      "type": "function"
    },
    {
      "inputs": [
        {
          "internalType": "address",
          "name": "",
          "type": "address"
        }
      ],
      "name": "userInfo",
      "outputs": [
        {
          "internalType": "uint256",
          "name": "amount",
          "type": "uint256"
        },
        {
          "internalType": "uint256",
          "name": "rewardDebt",
          "type": "uint256"
        }
      ],
      "stateMutability": "view",
      "type": "function"
    },
    {
      "stateMutability": "payable",
      "type": "receive"
    }
  ],
  "transactionHash": "0x31b271b3bb57bb4ca734acbb94489529e49967666bcb68aa944ce9df4e104e4e",
  "args": [
    "0x6bD193Ee6D2104F14F94E2cA6efefae561A4334B",
    "0xB256C57AA0778a184D26D3B7c033dB950c7bF007",
    1,
    "0x0D0b4862F5FfA3A47D04DDf0351356d20C830460",
    false
  ],
  "solcInputHash": "912786fc91fa8d4d3ec7ea647c5ab2b4",
  "bytecode": "0x6101006040523480156200001257600080fd5b506040516200187238038062001872833981016040819052620000359162000273565b62000040336200021d565b62000056856200026d60201b620010e61760201c565b620000c35760405162461bcd60e51b815260206004820152603260248201527f636f6e7374727563746f723a2072657761726420746f6b656e206d7573742062604482015271194818481d985b1a590818dbdb9d1c9858dd60721b60648201526084015b60405180910390fd5b620000d9846200026d60201b620010e61760201c565b6200013e5760405162461bcd60e51b815260206004820152602e60248201527f636f6e7374727563746f723a204c5020746f6b656e206d75737420626520612060448201526d1d985b1a590818dbdb9d1c9858dd60921b6064820152608401620000ba565b62000154826200026d60201b620010e61760201c565b620001c85760405162461bcd60e51b815260206004820152603860248201527f636f6e7374727563746f723a20536f6c61724469737472696275746f7256322060448201527f6d75737420626520612076616c696420636f6e747261637400000000000000006064820152608401620000ba565b6001600160601b0319606095861b811660805293851b841660a05260049290925590921b1660e052151560f81b60c0526040805180820190915260008082524260209290920182905260015560025562000302565b600080546001600160a01b038381166001600160a01b0319831681178455604051919092169283917f8be0079c531659141344cd1fd0a4f28419497f9722a3daafe3b4186f6b6457e09190a35050565b3b151590565b600080600080600060a086880312156200028b578081fd5b85516200029881620002e9565b6020870151909550620002ab81620002e9565b604087015160608801519195509350620002c581620002e9565b60808701519092508015158114620002db578182fd5b809150509295509295909350565b6001600160a01b0381168114620002ff57600080fd5b50565b60805160601c60a05160601c60c05160f81c60e05160601c6114d66200039c6000396000818161024b0152818161044701528181610a7b0152610e99015260008181610207015281816105c50152610c4e01526000818161019701528181610aab0152610ec4015260008181610359015281816107c501528181610878015281816108be01528181610d730152610e0401526114d66000f3fe6080604052600436106100ec5760003560e01c80638da5cb5b1161008a578063db2e21bc11610059578063db2e21bc146102e2578063e3161ddd146102f7578063f2fde38b14610327578063f7c618c114610347576100f3565b80638da5cb5b1461026d5780639cd00977146102825780639e447fc6146102a2578063c031a66f146102c2576100f3565b80635fcbd285116100c65780635fcbd28514610185578063715018a6146101de57806373cfc6b2146101f55780637d0d9d5f14610239576100f3565b80631959a002146100f857806350fd1f3e146101465780635a2f3d091461016a576100f3565b366100f357005b600080fd5b34801561010457600080fd5b5061012c6101133660046112f9565b6003602052600090815260409020805460019091015482565b604080519283526020830191909152015b60405180910390f35b34801561015257600080fd5b5061015c60045481565b60405190815260200161013d565b34801561017657600080fd5b5060015460025461012c919082565b34801561019157600080fd5b506101b97f000000000000000000000000000000000000000000000000000000000000000081565b60405173ffffffffffffffffffffffffffffffffffffffff909116815260200161013d565b3480156101ea57600080fd5b506101f361037b565b005b34801561020157600080fd5b506102297f000000000000000000000000000000000000000000000000000000000000000081565b604051901515815260200161013d565b34801561024557600080fd5b506101b97f000000000000000000000000000000000000000000000000000000000000000081565b34801561027957600080fd5b506101b9610412565b34801561028e57600080fd5b506101f361029d36600461131a565b61042f565b3480156102ae57600080fd5b506101f36102bd366004611363565b61093f565b3480156102ce57600080fd5b5061015c6102dd3660046112f9565b610a13565b3480156102ee57600080fd5b506101f3610bc6565b34801561030357600080fd5b5061030c610e2b565b6040805182518152602092830151928101929092520161013d565b34801561033357600080fd5b506101f36103423660046112f9565b610fb1565b34801561035357600080fd5b506101b97f000000000000000000000000000000000000000000000000000000000000000081565b33610384610412565b73ffffffffffffffffffffffffffffffffffffffff1614610406576040517f08c379a000000000000000000000000000000000000000000000000000000000815260206004820181905260248201527f4f776e61626c653a2063616c6c6572206973206e6f7420746865206f776e657260448201526064015b60405180910390fd5b61041060006110f0565b565b60005473ffffffffffffffffffffffffffffffffffffffff165b90565b3373ffffffffffffffffffffffffffffffffffffffff7f0000000000000000000000000000000000000000000000000000000000000000161461051a576040517f08c379a000000000000000000000000000000000000000000000000000000000815260206004820152604160248201527f6f6e6c794469737472696275746f7256323a206f6e6c7920536f6c617244697360448201527f7472696275746f7256322063616e2063616c6c20746869732066756e6374696f60648201527f6e00000000000000000000000000000000000000000000000000000000000000608482015260a4016103fd565b610522610e2b565b5060408051808201825260018054825260025460208084019190915273ffffffffffffffffffffffffffffffffffffffff86166000908152600390915292832090810154825182549394929364e8d4a510009161057e9161141d565b61058891906113e4565b610592919061145a565b825485845584519192509064e8d4a51000906105ae908761141d565b6105b891906113e4565b600184015580156108e7577f0000000000000000000000000000000000000000000000000000000000000000156107945747808311156106c25760008773ffffffffffffffffffffffffffffffffffffffff168260405160006040518083038185875af1925050503d806000811461064c576040519150601f19603f3d011682016040523d82523d6000602084013e610651565b606091505b50509050806106bc576040517f08c379a000000000000000000000000000000000000000000000000000000000815260206004820152600f60248201527f5472616e73666572206661696c6564000000000000000000000000000000000060448201526064016103fd565b5061078e565b60008773ffffffffffffffffffffffffffffffffffffffff168460405160006040518083038185875af1925050503d806000811461071c576040519150601f19603f3d011682016040523d82523d6000602084013e610721565b606091505b505090508061078c576040517f08c379a000000000000000000000000000000000000000000000000000000000815260206004820152600f60248201527f5472616e73666572206661696c6564000000000000000000000000000000000060448201526064016103fd565b505b506108e7565b6040517f70a082310000000000000000000000000000000000000000000000000000000081523060048201526000907f000000000000000000000000000000000000000000000000000000000000000073ffffffffffffffffffffffffffffffffffffffff16906370a082319060240160206040518083038186803b15801561081c57600080fd5b505afa158015610830573d6000803e3d6000fd5b505050506040513d601f19601f82011682018060405250810190610854919061137b565b9050808311156108a45761089f73ffffffffffffffffffffffffffffffffffffffff7f0000000000000000000000000000000000000000000000000000000000000000168883611165565b6108e5565b6108e573ffffffffffffffffffffffffffffffffffffffff7f0000000000000000000000000000000000000000000000000000000000000000168885611165565b505b8573ffffffffffffffffffffffffffffffffffffffff167fd1072bb52c3131d0c96197b73fb8a45637e30f8b6664fc142310cc9b242859b48360405161092f91815260200190565b60405180910390a2505050505050565b33610948610412565b73ffffffffffffffffffffffffffffffffffffffff16146109c5576040517f08c379a000000000000000000000000000000000000000000000000000000000815260206004820181905260248201527f4f776e61626c653a2063616c6c6572206973206e6f7420746865206f776e657260448201526064016103fd565b6109cd610e2b565b50600480549082905560408051828152602081018490527fc390a98ace15a7bb6bab611eedfdbb2685043b241a869420043cdfb23ccfee50910160405180910390a15050565b604080518082018252600154815260025460208083019190915273ffffffffffffffffffffffffffffffffffffffff84811660009081526003909252838220835194517f70a082310000000000000000000000000000000000000000000000000000000081527f00000000000000000000000000000000000000000000000000000000000000008316600482015292949092909185917f0000000000000000000000000000000000000000000000000000000000000000909116906370a082319060240160206040518083038186803b158015610aef57600080fd5b505afa158015610b03573d6000803e3d6000fd5b505050506040513d601f19601f82011682018060405250810190610b27919061137b565b9050836020015142118015610b3b57508015155b15610b8f576000846020015142610b52919061145a565b9050600060045482610b64919061141d565b905082610b7664e8d4a510008361141d565b610b8091906113e4565b610b8a90856113cc565b935050505b6001830154835464e8d4a5100090610ba890859061141d565b610bb291906113e4565b610bbc919061145a565b9695505050505050565b33610bcf610412565b73ffffffffffffffffffffffffffffffffffffffff1614610c4c576040517f08c379a000000000000000000000000000000000000000000000000000000000815260206004820181905260248201527f4f776e61626c653a2063616c6c6572206973206e6f7420746865206f776e657260448201526064016103fd565b7f000000000000000000000000000000000000000000000000000000000000000015610d2a57604051600090339047908381818185875af1925050503d8060008114610cb4576040519150601f19603f3d011682016040523d82523d6000602084013e610cb9565b606091505b5050905080610d24576040517f08c379a000000000000000000000000000000000000000000000000000000000815260206004820152600f60248201527f5472616e73666572206661696c6564000000000000000000000000000000000060448201526064016103fd565b50610410565b6040517f70a0823100000000000000000000000000000000000000000000000000000000815230600482015261041090339073ffffffffffffffffffffffffffffffffffffffff7f000000000000000000000000000000000000000000000000000000000000000016906370a082319060240160206040518083038186803b158015610db557600080fd5b505afa158015610dc9573d6000803e3d6000fd5b505050506040513d601f19601f82011682018060405250810190610ded919061137b565b73ffffffffffffffffffffffffffffffffffffffff7f0000000000000000000000000000000000000000000000000000000000000000169190611165565b60408051808201825260008082526020918201528151808301909252600154825260025490820181905242111561042c576040517f70a0823100000000000000000000000000000000000000000000000000000000815273ffffffffffffffffffffffffffffffffffffffff7f0000000000000000000000000000000000000000000000000000000000000000811660048301526000917f0000000000000000000000000000000000000000000000000000000000000000909116906370a082319060240160206040518083038186803b158015610f0857600080fd5b505afa158015610f1c573d6000803e3d6000fd5b505050506040513d601f19601f82011682018060405250810190610f40919061137b565b90508015610f9d576000826020015142610f5a919061145a565b9050600060045482610f6c919061141d565b905082610f7e64e8d4a510008361141d565b610f8891906113e4565b84518590610f979083906113cc565b90525050505b504260208201819052815160015560025590565b33610fba610412565b73ffffffffffffffffffffffffffffffffffffffff1614611037576040517f08c379a000000000000000000000000000000000000000000000000000000000815260206004820181905260248201527f4f776e61626c653a2063616c6c6572206973206e6f7420746865206f776e657260448201526064016103fd565b73ffffffffffffffffffffffffffffffffffffffff81166110da576040517f08c379a000000000000000000000000000000000000000000000000000000000815260206004820152602660248201527f4f776e61626c653a206e6577206f776e657220697320746865207a65726f206160448201527f646472657373000000000000000000000000000000000000000000000000000060648201526084016103fd565b6110e3816110f0565b50565b803b15155b919050565b6000805473ffffffffffffffffffffffffffffffffffffffff8381167fffffffffffffffffffffffff0000000000000000000000000000000000000000831681178455604051919092169283917f8be0079c531659141344cd1fd0a4f28419497f9722a3daafe3b4186f6b6457e09190a35050565b6040805173ffffffffffffffffffffffffffffffffffffffff8481166024830152604480830185905283518084039091018152606490920183526020820180517bffffffffffffffffffffffffffffffffffffffffffffffffffffffff167fa9059cbb0000000000000000000000000000000000000000000000000000000017905291516000928392908716916111fc9190611393565b6000604051808303816000865af19150503d8060008114611239576040519150601f19603f3d011682016040523d82523d6000602084013e61123e565b606091505b50915091508180156112685750805115806112685750808060200190518101906112689190611343565b6112ce576040517f08c379a000000000000000000000000000000000000000000000000000000000815260206004820152601c60248201527f426f72696e6745524332303a205472616e73666572206661696c65640000000060448201526064016103fd565b5050505050565b803573ffffffffffffffffffffffffffffffffffffffff811681146110eb57600080fd5b60006020828403121561130a578081fd5b611313826112d5565b9392505050565b6000806040838503121561132c578081fd5b611335836112d5565b946020939093013593505050565b600060208284031215611354578081fd5b81518015158114611313578182fd5b600060208284031215611374578081fd5b5035919050565b60006020828403121561138c578081fd5b5051919050565b60008251815b818110156113b35760208186018101518583015201611399565b818111156113c15782828501525b509190910192915050565b600082198211156113df576113df611471565b500190565b600082611418577f4e487b710000000000000000000000000000000000000000000000000000000081526012600452602481fd5b500490565b6000817fffffffffffffffffffffffffffffffffffffffffffffffffffffffffffffffff048311821515161561145557611455611471565b500290565b60008282101561146c5761146c611471565b500390565b7f4e487b7100000000000000000000000000000000000000000000000000000000600052601160045260246000fdfea2646970667358221220892b2b8188424fbf5fe47f4d4984a3e8bfd6c9a2c806104c31e65d341cfc7e6664736f6c63430008020033",
  "devdoc": {
    "kind": "dev",
    "methods": {
      "onSolarReward(address,uint256)": {
        "params": {
          "_lpAmount": "Number of LP tokens the user has",
          "_user": "Address of user"
        }
      },
      "owner()": {
        "details": "Returns the address of the current owner."
      },
      "pendingTokens(address)": {
        "params": {
          "_user": "Address of user."
        },
        "returns": {
          "pending": "reward for a given user."
        }
      },
      "renounceOwnership()": {
        "details": "Leaves the contract without owner. It will not be possible to call `onlyOwner` functions anymore. Can only be called by the current owner. NOTE: Renouncing ownership will leave the contract without an owner, thereby removing any functionality that is only available to the owner."
      },
      "setRewardRate(uint256)": {
        "params": {
          "_tokenPerSec": "The number of tokens to distribute per second"
        }
      },
      "transferOwnership(address)": {
        "details": "Transfers ownership of the contract to a new account (`newOwner`). Can only be called by the current owner."
      },
      "updatePool()": {
        "returns": {
          "pool": "Returns the pool that was updated."
        }
      }
    },
    "version": 1
  },
  "userdoc": {
    "kind": "user",
    "methods": {
      "emergencyWithdraw()": {
        "notice": "In case rewarder is stopped before emissions finished, this function allows withdrawal of remaining tokens."
      },
      "onSolarReward(address,uint256)": {
        "notice": "Function called by SolarDistributorV2 whenever staker claims SOLAR harvest. Allows staker to also receive a 2nd reward token."
      },
      "pendingTokens(address)": {
        "notice": "View function to see pending tokens"
      },
      "poolInfo()": {
        "notice": "Info of the poolInfo."
      },
      "setRewardRate(uint256)": {
        "notice": "Sets the distribution reward rate. This will also update the poolInfo."
      },
      "updatePool()": {
        "notice": "Update reward variables of the given poolInfo."
      },
      "userInfo(address)": {
        "notice": "Info of each user that stakes LP tokens."
      }
    },
    "notice": "This is a sample contract to be used in the SolarDistributorV2 contract for partners to reward stakers with their native token alongside SOLAR. It assumes no minting rights, so requires a set amount of YOUR_TOKEN to be transferred to this contract prior. E.g. say you've allocated 100,000 XYZ to the SOLAR-XYZ farm over 30 days. Then you would need to transfer 100,000 XYZ and set the block reward accordingly so it's fully distributed after 30 days.",
    "version": 1
  },
  "storageLayout": {
    "storage": [
      {
        "astId": 375,
        "contract": "contracts/farm/v2/rewarders/SimpleRewarderPerSec.sol:SimpleRewarderPerSec",
        "label": "_owner",
        "offset": 0,
        "slot": "0",
        "type": "t_address"
      },
      {
        "astId": 8673,
        "contract": "contracts/farm/v2/rewarders/SimpleRewarderPerSec.sol:SimpleRewarderPerSec",
        "label": "poolInfo",
        "offset": 0,
        "slot": "1",
        "type": "t_struct(PoolInfo)8669_storage"
      },
      {
        "astId": 8679,
        "contract": "contracts/farm/v2/rewarders/SimpleRewarderPerSec.sol:SimpleRewarderPerSec",
        "label": "userInfo",
        "offset": 0,
        "slot": "3",
        "type": "t_mapping(t_address,t_struct(UserInfo)8664_storage)"
      },
      {
        "astId": 8681,
        "contract": "contracts/farm/v2/rewarders/SimpleRewarderPerSec.sol:SimpleRewarderPerSec",
        "label": "tokenPerSec",
        "offset": 0,
        "slot": "4",
        "type": "t_uint256"
      }
    ],
    "types": {
      "t_address": {
        "encoding": "inplace",
        "label": "address",
        "numberOfBytes": "20"
      },
      "t_mapping(t_address,t_struct(UserInfo)8664_storage)": {
        "encoding": "mapping",
        "key": "t_address",
        "label": "mapping(address => struct SimpleRewarderPerSec.UserInfo)",
        "numberOfBytes": "32",
        "value": "t_struct(UserInfo)8664_storage"
      },
      "t_struct(PoolInfo)8669_storage": {
        "encoding": "inplace",
        "label": "struct SimpleRewarderPerSec.PoolInfo",
        "members": [
          {
            "astId": 8666,
            "contract": "contracts/farm/v2/rewarders/SimpleRewarderPerSec.sol:SimpleRewarderPerSec",
            "label": "accTokenPerShare",
            "offset": 0,
            "slot": "0",
            "type": "t_uint256"
          },
          {
            "astId": 8668,
            "contract": "contracts/farm/v2/rewarders/SimpleRewarderPerSec.sol:SimpleRewarderPerSec",
            "label": "lastRewardTimestamp",
            "offset": 0,
            "slot": "1",
            "type": "t_uint256"
          }
        ],
        "numberOfBytes": "64"
      },
      "t_struct(UserInfo)8664_storage": {
        "encoding": "inplace",
        "label": "struct SimpleRewarderPerSec.UserInfo",
        "members": [
          {
            "astId": 8661,
            "contract": "contracts/farm/v2/rewarders/SimpleRewarderPerSec.sol:SimpleRewarderPerSec",
            "label": "amount",
            "offset": 0,
            "slot": "0",
            "type": "t_uint256"
          },
          {
            "astId": 8663,
            "contract": "contracts/farm/v2/rewarders/SimpleRewarderPerSec.sol:SimpleRewarderPerSec",
            "label": "rewardDebt",
            "offset": 0,
            "slot": "1",
            "type": "t_uint256"
          }
        ],
        "numberOfBytes": "64"
      },
      "t_uint256": {
        "encoding": "inplace",
        "label": "uint256",
        "numberOfBytes": "32"
      }
    }
  }
}