{
  "address": "0x0D0b4862F5FfA3A47D04DDf0351356d20C830460",
  "abi": [
    {
      "inputs": [
        {
          "internalType": "contract IBoringERC20",
          "name": "_solar",
          "type": "address"
        },
        {
          "internalType": "uint256",
          "name": "_solarPerBlock",
          "type": "uint256"
        },
        {
          "internalType": "address",
          "name": "_teamAddress",
          "type": "address"
        },
        {
          "internalType": "address",
          "name": "_treasuryAddress",
          "type": "address"
        },
        {
          "internalType": "address",
          "name": "_investorAddress",
          "type": "address"
        },
        {
          "internalType": "uint256",
          "name": "_teamPercent",
          "type": "uint256"
        },
        {
          "internalType": "uint256",
          "name": "_treasuryPercent",
          "type": "uint256"
        },
        {
          "internalType": "uint256",
          "name": "_investorPercent",
          "type": "uint256"
        }
      ],
      "stateMutability": "nonpayable",
      "type": "constructor"
    },
    {
      "anonymous": false,
      "inputs": [
        {
          "indexed": true,
          "internalType": "uint256",
          "name": "pid",
          "type": "uint256"
        },
        {
          "indexed": false,
          "internalType": "uint256",
          "name": "allocPoint",
          "type": "uint256"
        },
        {
          "indexed": true,
          "internalType": "contract IBoringERC20",
          "name": "lpToken",
          "type": "address"
        },
        {
          "indexed": false,
          "internalType": "uint16",
          "name": "depositFeeBP",
          "type": "uint16"
        },
        {
          "indexed": false,
          "internalType": "uint256",
          "name": "harvestInterval",
          "type": "uint256"
        },
        {
          "indexed": true,
          "internalType": "contract IRewarder[]",
          "name": "rewarders",
          "type": "address[]"
        }
      ],
      "name": "Add",
      "type": "event"
    },
    {
      "anonymous": false,
      "inputs": [
        {
          "indexed": true,
          "internalType": "address",
          "name": "caller",
          "type": "address"
        },
        {
          "indexed": false,
          "internalType": "uint256",
          "name": "previousAmount",
          "type": "uint256"
        },
        {
          "indexed": false,
          "internalType": "uint256",
          "name": "newAmount",
          "type": "uint256"
        }
      ],
      "name": "AllocPointsUpdated",
      "type": "event"
    },
    {
      "anonymous": false,
      "inputs": [
        {
          "indexed": true,
          "internalType": "address",
          "name": "user",
          "type": "address"
        },
        {
          "indexed": true,
          "internalType": "uint256",
          "name": "pid",
          "type": "uint256"
        },
        {
          "indexed": false,
          "internalType": "uint256",
          "name": "amount",
          "type": "uint256"
        }
      ],
      "name": "Deposit",
      "type": "event"
    },
    {
      "anonymous": false,
      "inputs": [
        {
          "indexed": true,
          "internalType": "address",
          "name": "user",
          "type": "address"
        },
        {
          "indexed": true,
          "internalType": "uint256",
          "name": "pid",
          "type": "uint256"
        },
        {
          "indexed": false,
          "internalType": "uint256",
          "name": "amount",
          "type": "uint256"
        }
      ],
      "name": "EmergencyWithdraw",
      "type": "event"
    },
    {
      "anonymous": false,
      "inputs": [
        {
          "indexed": true,
          "internalType": "address",
          "name": "caller",
          "type": "address"
        },
        {
          "indexed": false,
          "internalType": "uint256",
          "name": "previousAmount",
          "type": "uint256"
        },
        {
          "indexed": false,
          "internalType": "uint256",
          "name": "newAmount",
          "type": "uint256"
        }
      ],
      "name": "EmissionRateUpdated",
      "type": "event"
    },
    {
      "anonymous": false,
      "inputs": [
        {
          "indexed": true,
          "internalType": "address",
          "name": "previousOwner",
          "type": "address"
        },
        {
          "indexed": true,
          "internalType": "address",
          "name": "newOwner",
          "type": "address"
        }
      ],
      "name": "OwnershipTransferred",
      "type": "event"
    },
    {
      "anonymous": false,
      "inputs": [
        {
          "indexed": true,
          "internalType": "address",
          "name": "user",
          "type": "address"
        },
        {
          "indexed": true,
          "internalType": "uint256",
          "name": "pid",
          "type": "uint256"
        },
        {
          "indexed": false,
          "internalType": "uint256",
          "name": "amountLockedUp",
          "type": "uint256"
        }
      ],
      "name": "RewardLockedUp",
      "type": "event"
    },
    {
      "anonymous": false,
      "inputs": [
        {
          "indexed": true,
          "internalType": "uint256",
          "name": "pid",
          "type": "uint256"
        },
        {
          "indexed": false,
          "internalType": "uint256",
          "name": "allocPoint",
          "type": "uint256"
        },
        {
          "indexed": false,
          "internalType": "uint16",
          "name": "depositFeeBP",
          "type": "uint16"
        },
        {
          "indexed": false,
          "internalType": "uint256",
          "name": "harvestInterval",
          "type": "uint256"
        },
        {
          "indexed": true,
          "internalType": "contract IRewarder[]",
          "name": "rewarders",
          "type": "address[]"
        }
      ],
      "name": "Set",
      "type": "event"
    },
    {
      "anonymous": false,
      "inputs": [
        {
          "indexed": true,
          "internalType": "address",
          "name": "oldAddress",
          "type": "address"
        },
        {
          "indexed": true,
          "internalType": "address",
          "name": "newAddress",
          "type": "address"
        }
      ],
      "name": "SetInvestorAddress",
      "type": "event"
    },
    {
      "anonymous": false,
      "inputs": [
        {
          "indexed": false,
          "internalType": "uint256",
          "name": "oldPercent",
          "type": "uint256"
        },
        {
          "indexed": false,
          "internalType": "uint256",
          "name": "newPercent",
          "type": "uint256"
        }
      ],
      "name": "SetInvestorPercent",
      "type": "event"
    },
    {
      "anonymous": false,
      "inputs": [
        {
          "indexed": true,
          "internalType": "address",
          "name": "oldAddress",
          "type": "address"
        },
        {
          "indexed": true,
          "internalType": "address",
          "name": "newAddress",
          "type": "address"
        }
      ],
      "name": "SetTeamAddress",
      "type": "event"
    },
    {
      "anonymous": false,
      "inputs": [
        {
          "indexed": false,
          "internalType": "uint256",
          "name": "oldPercent",
          "type": "uint256"
        },
        {
          "indexed": false,
          "internalType": "uint256",
          "name": "newPercent",
          "type": "uint256"
        }
      ],
      "name": "SetTeamPercent",
      "type": "event"
    },
    {
      "anonymous": false,
      "inputs": [
        {
          "indexed": true,
          "internalType": "address",
          "name": "oldAddress",
          "type": "address"
        },
        {
          "indexed": true,
          "internalType": "address",
          "name": "newAddress",
          "type": "address"
        }
      ],
      "name": "SetTreasuryAddress",
      "type": "event"
    },
    {
      "anonymous": false,
      "inputs": [
        {
          "indexed": false,
          "internalType": "uint256",
          "name": "oldPercent",
          "type": "uint256"
        },
        {
          "indexed": false,
          "internalType": "uint256",
          "name": "newPercent",
          "type": "uint256"
        }
      ],
      "name": "SetTreasuryPercent",
      "type": "event"
    },
    {
      "anonymous": false,
      "inputs": [
        {
          "indexed": true,
          "internalType": "address",
          "name": "user",
          "type": "address"
        },
        {
          "indexed": true,
          "internalType": "uint256",
          "name": "pid",
          "type": "uint256"
        },
        {
          "indexed": false,
          "internalType": "uint256",
          "name": "amount",
          "type": "uint256"
        }
      ],
      "name": "Withdraw",
      "type": "event"
    },
    {
      "inputs": [],
      "name": "MAXIMUM_DEPOSIT_FEE_RATE",
      "outputs": [
        {
          "internalType": "uint16",
          "name": "",
          "type": "uint16"
        }
      ],
      "stateMutability": "view",
      "type": "function"
    },
    {
      "inputs": [],
      "name": "MAXIMUM_HARVEST_INTERVAL",
      "outputs": [
        {
          "internalType": "uint256",
          "name": "",
          "type": "uint256"
        }
      ],
      "stateMutability": "view",
      "type": "function"
    },
    {
      "inputs": [
        {
          "internalType": "uint256",
          "name": "_allocPoint",
          "type": "uint256"
        },
        {
          "internalType": "contract IBoringERC20",
          "name": "_lpToken",
          "type": "address"
        },
        {
          "internalType": "uint16",
          "name": "_depositFeeBP",
          "type": "uint16"
        },
        {
          "internalType": "uint256",
          "name": "_harvestInterval",
          "type": "uint256"
        },
        {
          "internalType": "contract IRewarder[]",
          "name": "_rewarders",
          "type": "address[]"
        }
      ],
      "name": "add",
      "outputs": [],
      "stateMutability": "nonpayable",
      "type": "function"
    },
    {
      "inputs": [
        {
          "internalType": "uint256",
          "name": "_pid",
          "type": "uint256"
        },
        {
          "internalType": "address",
          "name": "_user",
          "type": "address"
        }
      ],
      "name": "canHarvest",
      "outputs": [
        {
          "internalType": "bool",
          "name": "",
          "type": "bool"
        }
      ],
      "stateMutability": "view",
      "type": "function"
    },
    {
      "inputs": [
        {
          "internalType": "uint256",
          "name": "_pid",
          "type": "uint256"
        },
        {
          "internalType": "uint256",
          "name": "_amount",
          "type": "uint256"
        }
      ],
      "name": "deposit",
      "outputs": [],
      "stateMutability": "nonpayable",
      "type": "function"
    },
    {
      "inputs": [
        {
          "internalType": "uint256",
          "name": "_pid",
          "type": "uint256"
        }
      ],
      "name": "emergencyWithdraw",
      "outputs": [],
      "stateMutability": "nonpayable",
      "type": "function"
    },
    {
      "inputs": [
        {
          "internalType": "uint256",
          "name": "_from",
          "type": "uint256"
        },
        {
          "internalType": "uint256",
          "name": "_to",
          "type": "uint256"
        }
      ],
      "name": "getMultiplier",
      "outputs": [
        {
          "internalType": "uint256",
          "name": "",
          "type": "uint256"
        }
      ],
      "stateMutability": "pure",
      "type": "function"
    },
    {
      "inputs": [
        {
          "internalType": "uint256[]",
          "name": "_pids",
          "type": "uint256[]"
        }
      ],
      "name": "harvestMany",
      "outputs": [],
      "stateMutability": "nonpayable",
      "type": "function"
    },
    {
      "inputs": [],
      "name": "investorAddress",
      "outputs": [
        {
          "internalType": "address",
          "name": "",
          "type": "address"
        }
      ],
      "stateMutability": "view",
      "type": "function"
    },
    {
      "inputs": [],
      "name": "investorPercent",
      "outputs": [
        {
          "internalType": "uint256",
          "name": "",
          "type": "uint256"
        }
      ],
      "stateMutability": "view",
      "type": "function"
    },
    {
      "inputs": [],
      "name": "massUpdatePools",
      "outputs": [],
      "stateMutability": "nonpayable",
      "type": "function"
    },
    {
      "inputs": [],
      "name": "owner",
      "outputs": [
        {
          "internalType": "address",
          "name": "",
          "type": "address"
        }
      ],
      "stateMutability": "view",
      "type": "function"
    },
    {
      "inputs": [
        {
          "internalType": "uint256",
          "name": "_pid",
          "type": "uint256"
        },
        {
          "internalType": "address",
          "name": "_user",
          "type": "address"
        }
      ],
      "name": "pendingTokens",
      "outputs": [
        {
          "internalType": "address[]",
          "name": "addresses",
          "type": "address[]"
        },
        {
          "internalType": "string[]",
          "name": "symbols",
          "type": "string[]"
        },
        {
          "internalType": "uint256[]",
          "name": "amounts",
          "type": "uint256[]"
        }
      ],
      "stateMutability": "view",
      "type": "function"
    },
    {
      "inputs": [
        {
          "internalType": "uint256",
          "name": "",
          "type": "uint256"
        }
      ],
      "name": "poolInfo",
      "outputs": [
        {
          "internalType": "contract IBoringERC20",
          "name": "lpToken",
          "type": "address"
        },
        {
          "internalType": "uint256",
          "name": "allocPoint",
          "type": "uint256"
        },
        {
          "internalType": "uint256",
          "name": "lastRewardBlock",
          "type": "uint256"
        },
        {
          "internalType": "uint256",
          "name": "accSolarPerShare",
          "type": "uint256"
        },
        {
          "internalType": "uint16",
          "name": "depositFeeBP",
          "type": "uint16"
        },
        {
          "internalType": "uint256",
          "name": "harvestInterval",
          "type": "uint256"
        },
        {
          "internalType": "uint256",
          "name": "totalLp",
          "type": "uint256"
        }
      ],
      "stateMutability": "view",
      "type": "function"
    },
    {
      "inputs": [],
      "name": "poolLength",
      "outputs": [
        {
          "internalType": "uint256",
          "name": "",
          "type": "uint256"
        }
      ],
      "stateMutability": "view",
      "type": "function"
    },
    {
      "inputs": [],
      "name": "renounceOwnership",
      "outputs": [],
      "stateMutability": "nonpayable",
      "type": "function"
    },
    {
      "inputs": [
        {
          "internalType": "uint256",
          "name": "_pid",
          "type": "uint256"
        },
        {
          "internalType": "uint256",
          "name": "_allocPoint",
          "type": "uint256"
        },
        {
          "internalType": "uint16",
          "name": "_depositFeeBP",
          "type": "uint16"
        },
        {
          "internalType": "uint256",
          "name": "_harvestInterval",
          "type": "uint256"
        },
        {
          "internalType": "contract IRewarder[]",
          "name": "_rewarders",
          "type": "address[]"
        }
      ],
      "name": "set",
      "outputs": [],
      "stateMutability": "nonpayable",
      "type": "function"
    },
    {
      "inputs": [
        {
          "internalType": "address",
          "name": "_investorAddress",
          "type": "address"
        }
      ],
      "name": "setInvestorAddress",
      "outputs": [],
      "stateMutability": "nonpayable",
      "type": "function"
    },
    {
      "inputs": [
        {
          "internalType": "uint256",
          "name": "_newInvestorPercent",
          "type": "uint256"
        }
      ],
      "name": "setInvestorPercent",
      "outputs": [],
      "stateMutability": "nonpayable",
      "type": "function"
    },
    {
      "inputs": [
        {
          "internalType": "address",
          "name": "_teamAddress",
          "type": "address"
        }
      ],
      "name": "setTeamAddress",
      "outputs": [],
      "stateMutability": "nonpayable",
      "type": "function"
    },
    {
      "inputs": [
        {
          "internalType": "uint256",
          "name": "_newTeamPercent",
          "type": "uint256"
        }
      ],
      "name": "setTeamPercent",
      "outputs": [],
      "stateMutability": "nonpayable",
      "type": "function"
    },
    {
      "inputs": [
        {
          "internalType": "address",
          "name": "_treasuryAddress",
          "type": "address"
        }
      ],
      "name": "setTreasuryAddr",
      "outputs": [],
      "stateMutability": "nonpayable",
      "type": "function"
    },
    {
      "inputs": [
        {
          "internalType": "uint256",
          "name": "_newTreasuryPercent",
          "type": "uint256"
        }
      ],
      "name": "setTreasuryPercent",
      "outputs": [],
      "stateMutability": "nonpayable",
      "type": "function"
    },
    {
      "inputs": [],
      "name": "solar",
      "outputs": [
        {
          "internalType": "contract IBoringERC20",
          "name": "",
          "type": "address"
        }
      ],
      "stateMutability": "view",
      "type": "function"
    },
    {
      "inputs": [],
      "name": "solarPerBlock",
      "outputs": [
        {
          "internalType": "uint256",
          "name": "",
          "type": "uint256"
        }
      ],
      "stateMutability": "view",
      "type": "function"
    },
    {
      "inputs": [],
      "name": "startBlock",
      "outputs": [
        {
          "internalType": "uint256",
          "name": "",
          "type": "uint256"
        }
      ],
      "stateMutability": "view",
      "type": "function"
    },
    {
      "inputs": [],
      "name": "startFarming",
      "outputs": [],
      "stateMutability": "nonpayable",
      "type": "function"
    },
    {
      "inputs": [],
      "name": "teamAddress",
      "outputs": [
        {
          "internalType": "address",
          "name": "",
          "type": "address"
        }
      ],
      "stateMutability": "view",
      "type": "function"
    },
    {
      "inputs": [],
      "name": "teamPercent",
      "outputs": [
        {
          "internalType": "uint256",
          "name": "",
          "type": "uint256"
        }
      ],
      "stateMutability": "view",
      "type": "function"
    },
    {
      "inputs": [],
      "name": "totalAllocPoint",
      "outputs": [
        {
          "internalType": "uint256",
          "name": "",
          "type": "uint256"
        }
      ],
      "stateMutability": "view",
      "type": "function"
    },
    {
      "inputs": [],
      "name": "totalLockedUpRewards",
      "outputs": [
        {
          "internalType": "uint256",
          "name": "",
          "type": "uint256"
        }
      ],
      "stateMutability": "view",
      "type": "function"
    },
    {
      "inputs": [],
      "name": "totalSolarInPools",
      "outputs": [
        {
          "internalType": "uint256",
          "name": "",
          "type": "uint256"
        }
      ],
      "stateMutability": "view",
      "type": "function"
    },
    {
      "inputs": [
        {
          "internalType": "address",
          "name": "newOwner",
          "type": "address"
        }
      ],
      "name": "transferOwnership",
      "outputs": [],
      "stateMutability": "nonpayable",
      "type": "function"
    },
    {
      "inputs": [],
      "name": "treasuryAddress",
      "outputs": [
        {
          "internalType": "address",
          "name": "",
          "type": "address"
        }
      ],
      "stateMutability": "view",
      "type": "function"
    },
    {
      "inputs": [],
      "name": "treasuryPercent",
      "outputs": [
        {
          "internalType": "uint256",
          "name": "",
          "type": "uint256"
        }
      ],
      "stateMutability": "view",
      "type": "function"
    },
    {
      "inputs": [
        {
          "internalType": "uint256",
          "name": "_pid",
          "type": "uint256"
        },
        {
          "internalType": "uint256",
          "name": "_allocPoint",
          "type": "uint256"
        }
      ],
      "name": "updateAllocPoint",
      "outputs": [],
      "stateMutability": "nonpayable",
      "type": "function"
    },
    {
      "inputs": [
        {
          "internalType": "uint256",
          "name": "_solarPerBlock",
          "type": "uint256"
        }
      ],
      "name": "updateEmissionRate",
      "outputs": [],
      "stateMutability": "nonpayable",
      "type": "function"
    },
    {
      "inputs": [
        {
          "internalType": "uint256",
          "name": "_pid",
          "type": "uint256"
        }
      ],
      "name": "updatePool",
      "outputs": [],
      "stateMutability": "nonpayable",
      "type": "function"
    },
    {
      "inputs": [
        {
          "internalType": "uint256",
          "name": "",
          "type": "uint256"
        },
        {
          "internalType": "address",
          "name": "",
          "type": "address"
        }
      ],
      "name": "userInfo",
      "outputs": [
        {
          "internalType": "uint256",
          "name": "amount",
          "type": "uint256"
        },
        {
          "internalType": "uint256",
          "name": "rewardDebt",
          "type": "uint256"
        },
        {
          "internalType": "uint256",
          "name": "rewardLockedUp",
          "type": "uint256"
        },
        {
          "internalType": "uint256",
          "name": "nextHarvestUntil",
          "type": "uint256"
        }
      ],
      "stateMutability": "view",
      "type": "function"
    },
    {
      "inputs": [
        {
          "internalType": "uint256",
          "name": "_pid",
          "type": "uint256"
        },
        {
          "internalType": "uint256",
          "name": "_amount",
          "type": "uint256"
        }
      ],
      "name": "withdraw",
      "outputs": [],
      "stateMutability": "nonpayable",
      "type": "function"
    }
  ],
  "transactionHash": "0x0a4791b575358833a5ca13917eda5390f85a66da19625b0eb279502a343239ed",
  "args": [
    "0xB256C57AA0778a184D26D3B7c033dB950c7bF007",
    "60000000000000000000",
    "0xf884c8774b09b3302f98e38C944eB352264024F8",
    "0xf884c8774b09b3302f98e38C944eB352264024F8",
    "0xf884c8774b09b3302f98e38C944eB352264024F8",
    10,
    10,
    10
  ],
  "solcInputHash": "912786fc91fa8d4d3ec7ea647c5ab2b4",
  "bytecode": "0x6080604052600060065560006009553480156200001b57600080fd5b5060405162004f8838038062004f888339810160408190526200003e91620002c6565b620000493362000276565b600180556103e8831115620000b55760405162461bcd60e51b815260206004820152602760248201527f636f6e7374727563746f723a20696e76616c6964207465616d2070657263656e604482015266742076616c756560c81b60648201526084015b60405180910390fd5b6103e88211156200011d5760405162461bcd60e51b815260206004820152602b60248201527f636f6e7374727563746f723a20696e76616c696420747265617375727920706560448201526a7263656e742076616c756560a81b6064820152608401620000ac565b6103e8811115620001855760405162461bcd60e51b815260206004820152602b60248201527f636f6e7374727563746f723a20696e76616c696420696e766573746f7220706560448201526a7263656e742076616c756560a81b6064820152608401620000ac565b6103e88162000195848662000354565b620001a1919062000354565b1115620001fd5760405162461bcd60e51b815260206004820152602360248201527f636f6e7374727563746f723a20746f74616c2070657263656e74206f766572206044820152620dac2f60eb1b6064820152608401620000ac565b6200020d436312cc030062000354565b600755600280546001600160a01b03199081166001600160a01b039a8b1617909155600397909755600a8054881696891696909617909555600b8054871694881694909417909355600c80549095169190951617909255600d92909255600e55600f5562000392565b600080546001600160a01b038381166001600160a01b0319831681178455604051919092169283917f8be0079c531659141344cd1fd0a4f28419497f9722a3daafe3b4186f6b6457e09190a35050565b600080600080600080600080610100898b031215620002e3578384fd5b8851620002f08162000379565b60208a015160408b015191995097506200030a8162000379565b60608a01519096506200031d8162000379565b60808a0151909550620003308162000379565b60a08a015160c08b015160e0909b0151999c989b5096999598909790945092505050565b600082198211156200037457634e487b7160e01b81526011600452602481fd5b500190565b6001600160a01b03811681146200038f57600080fd5b50565b614be680620003a26000396000f3fe608060405234801561001057600080fd5b50600436106102c85760003560e01c8063715018a61161017b578063c5f956af116100d8578063e2bbb1581161008c578063eddf965211610071578063eddf965214610636578063f2fde38b14610649578063ffcd42631461065c576102c8565b8063e2bbb15814610603578063e6fa6d6d14610616576102c8565b8063dc640ac9116100bd578063dc640ac9146105dd578063de73149d146105f0578063e164ac50146105fa576102c8565b8063c5f956af146105b4578063d761595c146105d4576102c8565b80638dbb1e3a1161012f578063949e630211610114578063949e630214610586578063a7e05b9c14610599578063afbcfea1146105ac576102c8565b80638dbb1e3a1461051357806393f1a40b14610526576102c8565b8063876d3c9c11610160578063876d3c9c146104cf57806389a2bc25146104e25780638da5cb5b146104f5576102c8565b8063715018a6146104ab578063812c64f1146104b3576102c8565b80633cb5ba9e11610229578063508593ab116101dd5780635312ea8e116101c25780635312ea8e1461047d578063630b5ba1146104905780636690864e14610498576102c8565b8063508593ab1461045757806351eb05a61461046a576102c8565b8063441a3e701161020e578063441a3e7014610432578063474fa6301461044557806348cd4cb11461044e576102c8565b80633cb5ba9e1461041657806342602f1e1461041f576102c8565b80631526fe27116102805780631c75f085116102655780631c75f085146103c05780632081ccc4146103e05780632e6c998d146103f3576102c8565b80631526fe271461035457806317caf6f1146103b7576102c8565b8063081e3eda116102b1578063081e3eda146102f25780630ba84cd2146102fa57806312e228fd1461030f576102c8565b806304ef9d58146102cd5780630735b208146102e9575b600080fd5b6102d6600e5481565b6040519081526020015b60405180910390f35b6102d6600f5481565b6004546102d6565b61030d610308366004614746565b61067e565b005b600c5461032f9073ffffffffffffffffffffffffffffffffffffffff1681565b60405173ffffffffffffffffffffffffffffffffffffffff90911681526020016102e0565b610367610362366004614746565b61074f565b6040805173ffffffffffffffffffffffffffffffffffffffff9098168852602088019690965294860193909352606085019190915261ffff16608084015260a083015260c082015260e0016102e0565b6102d660065481565b600a5461032f9073ffffffffffffffffffffffffffffffffffffffff1681565b61030d6103ee36600461483e565b6107b9565b610406610401366004614776565b610c95565b60405190151581526020016102e0565b6102d660035481565b61030d61042d3660046145e7565b610d53565b61030d61044036600461481d565b610e91565b6102d660085481565b6102d660075481565b61030d6104653660046147a5565b61129f565b61030d610478366004614746565b611782565b61030d61048b366004614746565b611c4e565b61030d611e87565b61030d6104a63660046145e7565b611eae565b61030d611fec565b6104bc6103e881565b60405161ffff90911681526020016102e0565b61030d6104dd366004614746565b612079565b61030d6104f0366004614746565b612279565b60005473ffffffffffffffffffffffffffffffffffffffff1661032f565b6102d661052136600461481d565b612479565b610566610534366004614776565b600560209081526000928352604080842090915290825290208054600182015460028301546003909301549192909184565b6040805194855260208501939093529183015260608201526080016102e0565b61030d610594366004614746565b61248c565b61030d6105a73660046145e7565b61268c565b61030d61277e565b600b5461032f9073ffffffffffffffffffffffffffffffffffffffff1681565b6102d660095481565b61030d6105eb366004614603565b61290d565b6102d66212750081565b6102d6600d5481565b61030d61061136600461481d565b612977565b60025461032f9073ffffffffffffffffffffffffffffffffffffffff1681565b61030d61064436600461481d565b612e61565b61030d6106573660046145e7565b61304c565b61066f61066a366004614776565b61317c565b6040516102e093929190614912565b60005473ffffffffffffffffffffffffffffffffffffffff163314610704576040517f08c379a000000000000000000000000000000000000000000000000000000000815260206004820181905260248201527f4f776e61626c653a2063616c6c6572206973206e6f7420746865206f776e657260448201526064015b60405180910390fd5b61070c611e87565b600354604080519182526020820183905233917feedc6338c9c1ad8f3cd6c90dd09dbe98dbd57e610d3e59a17996d07acb0d9511910160405180910390a2600355565b6004818154811061075f57600080fd5b6000918252602090912060089091020180546001820154600283015460038401546004850154600586015460069096015473ffffffffffffffffffffffffffffffffffffffff909516965092949193909261ffff16919087565b60005473ffffffffffffffffffffffffffffffffffffffff16331461083a576040517f08c379a000000000000000000000000000000000000000000000000000000000815260206004820181905260248201527f4f776e61626c653a2063616c6c6572206973206e6f7420746865206f776e657260448201526064016106fb565b600454869081106108a7576040517f08c379a000000000000000000000000000000000000000000000000000000000815260206004820152601360248201527f506f6f6c20646f6573206e6f742065786973740000000000000000000000000060448201526064016106fb565b6103e861ffff86161115610917576040517f08c379a000000000000000000000000000000000000000000000000000000000815260206004820152601960248201527f7365743a206465706f7369742066656520746f6f20686967680000000000000060448201526064016106fb565b62127500841115610984576040517f08c379a000000000000000000000000000000000000000000000000000000000815260206004820152601d60248201527f7365743a20696e76616c6964206861727665737420696e74657276616c00000060448201526064016106fb565b60005b82811015610a5b576109e58484838181106109cb577f4e487b7100000000000000000000000000000000000000000000000000000000600052603260045260246000fd5b90506020020160208101906109e091906145e7565b6139db565b610a4b576040517f08c379a000000000000000000000000000000000000000000000000000000000815260206004820152601e60248201527f6164643a207265776172646572206d75737420626520636f6e7472616374000060448201526064016106fb565b610a5481614ad7565b9050610987565b50610a64611e87565b8560048881548110610a9f577f4e487b7100000000000000000000000000000000000000000000000000000000600052603260045260246000fd5b906000526020600020906008020160010154600654610abe9190614a94565b610ac89190614a06565b6006819055508560048881548110610b09577f4e487b7100000000000000000000000000000000000000000000000000000000600052603260045260246000fd5b9060005260206000209060080201600101819055508460048881548110610b59577f4e487b7100000000000000000000000000000000000000000000000000000000600052603260045260246000fd5b906000526020600020906008020160040160006101000a81548161ffff021916908361ffff1602179055508360048881548110610bbf577f4e487b7100000000000000000000000000000000000000000000000000000000600052603260045260246000fd5b906000526020600020906008020160050181905550828260048981548110610c10577f4e487b7100000000000000000000000000000000000000000000000000000000600052603260045260246000fd5b90600052602060002090600802016007019190610c2e929190614475565b508282604051610c3f9291906148a7565b6040805191829003822088835261ffff881660208401529082018690529088907f5ed6f0deef9ab49d02900b40d596df4cd637a2a7fbfa56bbcb377389d3ce8d289060600160405180910390a350505050505050565b60045460009083908110610d05576040517f08c379a000000000000000000000000000000000000000000000000000000000815260206004820152601360248201527f506f6f6c20646f6573206e6f742065786973740000000000000000000000000060448201526064016106fb565b600084815260056020908152604080832073ffffffffffffffffffffffffffffffffffffffff8716845290915290206007544310801590610d4a575080600301544210155b95945050505050565b600c5473ffffffffffffffffffffffffffffffffffffffff163314610e20576040517f08c379a000000000000000000000000000000000000000000000000000000000815260206004820152604160248201527f73657420696e766573746f7220616464726573733a206f6e6c7920707265766960448201527f6f757320696e766573746f722063616e2063616c6c2074686973206d6574686f60648201527f6400000000000000000000000000000000000000000000000000000000000000608482015260a4016106fb565b600c80547fffffffffffffffffffffffff00000000000000000000000000000000000000001673ffffffffffffffffffffffffffffffffffffffff831690811790915560405133907f6260cb34f06b782e83bde168f7d74ab2133041cb53b63ce22b127822a92b679190600090a350565b60026001541415610efe576040517f08c379a000000000000000000000000000000000000000000000000000000000815260206004820152601f60248201527f5265656e7472616e637947756172643a207265656e7472616e742063616c6c0060448201526064016106fb565b600260015560045482908110610f70576040517f08c379a000000000000000000000000000000000000000000000000000000000815260206004820152601360248201527f506f6f6c20646f6573206e6f742065786973740000000000000000000000000060448201526064016106fb565b600060048481548110610fac577f4e487b7100000000000000000000000000000000000000000000000000000000600052603260045260246000fd5b60009182526020808320878452600582526040808520338652909252922080546008909202909201925084111561103f576040517f08c379a000000000000000000000000000000000000000000000000000000000815260206004820181905260248201527f77697468647261773a207573657220616d6f756e74206e6f7420656e6f75676860448201526064016106fb565b83826006015410156110ad576040517f08c379a000000000000000000000000000000000000000000000000000000000815260206004820152601f60248201527f77697468647261773a20706f6f6c20746f74616c206e6f7420656e6f7567680060448201526064016106fb565b6110b685611782565b6110bf856139e5565b83156111435780546110d2908590614a94565b815560068201546110e4908590614a94565b6006830155600254825473ffffffffffffffffffffffffffffffffffffffff90811691161415611120578360095461111c9190614a94565b6009555b81546111439073ffffffffffffffffffffffffffffffffffffffff163386613b94565b6003820154815464e8d4a510009161115a91614a57565b6111649190614a1e565b600182015560005b600783015481101561125b578260070181815481106111b4577f4e487b7100000000000000000000000000000000000000000000000000000000600052603260045260246000fd5b60009182526020909120015482546040517f9cd00977000000000000000000000000000000000000000000000000000000008152336004820152602481019190915273ffffffffffffffffffffffffffffffffffffffff90911690639cd0097790604401600060405180830381600087803b15801561123257600080fd5b505af1158015611246573d6000803e3d6000fd5b505050508061125490614ad7565b905061116c565b50604051848152859033907ff279e6a1f5e320cca91135676d9cb6e44ca8a08c0b88342bcdb1144f6511b568906020015b60405180910390a3505060018055505050565b60005473ffffffffffffffffffffffffffffffffffffffff163314611320576040517f08c379a000000000000000000000000000000000000000000000000000000000815260206004820181905260248201527f4f776e61626c653a2063616c6c6572206973206e6f7420746865206f776e657260448201526064016106fb565b6103e861ffff85161115611390576040517f08c379a000000000000000000000000000000000000000000000000000000000815260206004820152601960248201527f6164643a206465706f7369742066656520746f6f20686967680000000000000060448201526064016106fb565b621275008311156113fd576040517f08c379a000000000000000000000000000000000000000000000000000000000815260206004820152601d60248201527f6164643a20696e76616c6964206861727665737420696e74657276616c00000060448201526064016106fb565b611406856139db565b611492576040517f08c379a000000000000000000000000000000000000000000000000000000000815260206004820152602660248201527f6164643a204c5020746f6b656e206d75737420626520612076616c696420636f60448201527f6e7472616374000000000000000000000000000000000000000000000000000060648201526084016106fb565b60005b8181101561154f576114d98383838181106109cb577f4e487b7100000000000000000000000000000000000000000000000000000000600052603260045260246000fd5b61153f576040517f08c379a000000000000000000000000000000000000000000000000000000000815260206004820152601e60248201527f6164643a207265776172646572206d75737420626520636f6e7472616374000060448201526064016106fb565b61154881614ad7565b9050611495565b50611558611e87565b6000600754431161156b5760075461156d565b435b90508660065461157d9190614a06565b60068190555060046040518061010001604052808873ffffffffffffffffffffffffffffffffffffffff168152602001898152602001838152602001600081526020018761ffff168152602001868152602001600081526020018585808060200260200160405190810160405280939291908181526020018383602002808284376000920182905250939094525050835460018082018655948252602091829020845160089092020180547fffffffffffffffffffffffff00000000000000000000000000000000000000001673ffffffffffffffffffffffffffffffffffffffff9092169190911781558382015194810194909455604083015160028501556060830151600385015560808301516004850180547fffffffffffffffffffffffffffffffffffffffffffffffffffffffffffff00001661ffff90921691909117905560a0830151600585015560c0830151600685015560e083015180519394936116f29350600785019291909101906144fd565b50505082826040516117059291906148a7565b60405190819003902060045473ffffffffffffffffffffffffffffffffffffffff88169061173590600190614a94565b604080518b815261ffff8a1660208201529081018890527f5ed295c4f5af5aeb1ccd905e1cd55a86ab3bb9fc1fe2346ff64ac47dbef366619060600160405180910390a450505050505050565b600454819081106117ef576040517f08c379a000000000000000000000000000000000000000000000000000000000815260206004820152601360248201527f506f6f6c20646f6573206e6f742065786973740000000000000000000000000060448201526064016106fb565b60006004838154811061182b577f4e487b7100000000000000000000000000000000000000000000000000000000600052603260045260246000fd5b906000526020600020906008020190508060020154431161184c5750611c4a565b600681015480158061186057506001820154155b15611872575043600290910155611c4a565b6000611882836002015443612479565b9050600060065484600101546003548461189c9190614a57565b6118a69190614a57565b6118b09190614a1e565b90506000600f54600e54600d546103e86118ca9190614a94565b6118d49190614a94565b6118de9190614a94565b600254600a54600d5492935073ffffffffffffffffffffffffffffffffffffffff918216926340c10f1992909116906103e89061191b9087614a57565b6119259190614a1e565b6040517fffffffff0000000000000000000000000000000000000000000000000000000060e085901b16815273ffffffffffffffffffffffffffffffffffffffff90921660048301526024820152604401600060405180830381600087803b15801561199057600080fd5b505af11580156119a4573d6000803e3d6000fd5b5050600254600b54600e5473ffffffffffffffffffffffffffffffffffffffff92831694506340c10f1993509116906103e8906119e19087614a57565b6119eb9190614a1e565b6040517fffffffff0000000000000000000000000000000000000000000000000000000060e085901b16815273ffffffffffffffffffffffffffffffffffffffff90921660048301526024820152604401600060405180830381600087803b158015611a5657600080fd5b505af1158015611a6a573d6000803e3d6000fd5b5050600254600c54600f5473ffffffffffffffffffffffffffffffffffffffff92831694506340c10f1993509116906103e890611aa79087614a57565b611ab19190614a1e565b6040517fffffffff0000000000000000000000000000000000000000000000000000000060e085901b16815273ffffffffffffffffffffffffffffffffffffffff90921660048301526024820152604401600060405180830381600087803b158015611b1c57600080fd5b505af1158015611b30573d6000803e3d6000fd5b505060025473ffffffffffffffffffffffffffffffffffffffff1691506340c10f199050306103e8611b628587614a57565b611b6c9190614a1e565b6040517fffffffff0000000000000000000000000000000000000000000000000000000060e085901b16815273ffffffffffffffffffffffffffffffffffffffff90921660048301526024820152604401600060405180830381600087803b158015611bd757600080fd5b505af1158015611beb573d6000803e3d6000fd5b505050506103e88186600601548464e8d4a51000611c099190614a57565b611c139190614a1e565b611c1d9190614a57565b611c279190614a1e565b8560030154611c369190614a06565b600386015550504360029093019290925550505b5050565b60026001541415611cbb576040517f08c379a000000000000000000000000000000000000000000000000000000000815260206004820152601f60248201527f5265656e7472616e637947756172643a207265656e7472616e742063616c6c0060448201526064016106fb565b6002600181905550600060048281548110611cff577f4e487b7100000000000000000000000000000000000000000000000000000000600052603260045260246000fd5b60009182526020808320858452600582526040808520338652909252922080546008929092029092016006810154909350811115611dbf576040517f08c379a000000000000000000000000000000000000000000000000000000000815260206004820152602960248201527f656d657267656e63792077697468647261773a20706f6f6c20746f74616c206e60448201527f6f7420656e6f756768000000000000000000000000000000000000000000000060648201526084016106fb565b6000808355600183018190556002830181905560038301556006830154611de7908290614a94565b6006840155600254835473ffffffffffffffffffffffffffffffffffffffff90811691161415611e235780600954611e1f9190614a94565b6009555b8254611e469073ffffffffffffffffffffffffffffffffffffffff163383613b94565b604051818152849033907fbb757047c2b5f3974fe26b7c10f732e7bce710b0952a71082702781e62ae05959060200160405180910390a35050600180555050565b60045460005b81811015611c4a57611e9e81611782565b611ea781614ad7565b9050611e8d565b600a5473ffffffffffffffffffffffffffffffffffffffff163314611f7b576040517f08c379a000000000000000000000000000000000000000000000000000000000815260206004820152604160248201527f736574207465616d20616464726573733a206f6e6c792070726576696f75732060448201527f7465616d20616464726573732063616e2063616c6c2074686973206d6574686f60648201527f6400000000000000000000000000000000000000000000000000000000000000608482015260a4016106fb565b600a80547fffffffffffffffffffffffff00000000000000000000000000000000000000001673ffffffffffffffffffffffffffffffffffffffff831690811790915560405133907f42fbc17d847fdc3e5c82da842a5ef3979c64f3b94cd4e7382310fd5525c6ee0f90600090a350565b60005473ffffffffffffffffffffffffffffffffffffffff16331461206d576040517f08c379a000000000000000000000000000000000000000000000000000000000815260206004820181905260248201527f4f776e61626c653a2063616c6c6572206973206e6f7420746865206f776e657260448201526064016106fb565b6120776000613d04565b565b60005473ffffffffffffffffffffffffffffffffffffffff1633146120fa576040517f08c379a000000000000000000000000000000000000000000000000000000000815260206004820181905260248201527f4f776e61626c653a2063616c6c6572206973206e6f7420746865206f776e657260448201526064016106fb565b6103e881111561218c576040517f08c379a000000000000000000000000000000000000000000000000000000000815260206004820152602b60248201527f73657420696e766573746f722070657263656e743a20696e76616c696420706560448201527f7263656e742076616c756500000000000000000000000000000000000000000060648201526084016106fb565b6103e8600e5482600d546121a09190614a06565b6121aa9190614a06565b1115612238576040517f08c379a000000000000000000000000000000000000000000000000000000000815260206004820152602c60248201527f73657420696e766573746f722070657263656e743a20746f74616c207065726360448201527f656e74206f766572206d6178000000000000000000000000000000000000000060648201526084016106fb565b600f5460408051918252602082018390527f204a076f4a2e4e5e646bb8841cc285306bf747e277f40dbfd5750e782e17b7a6910160405180910390a1600f55565b60005473ffffffffffffffffffffffffffffffffffffffff1633146122fa576040517f08c379a000000000000000000000000000000000000000000000000000000000815260206004820181905260248201527f4f776e61626c653a2063616c6c6572206973206e6f7420746865206f776e657260448201526064016106fb565b6103e881111561238c576040517f08c379a000000000000000000000000000000000000000000000000000000000815260206004820152602b60248201527f7365742074726561737572792070657263656e743a20696e76616c696420706560448201527f7263656e742076616c756500000000000000000000000000000000000000000060648201526084016106fb565b6103e8600f5482600d546123a09190614a06565b6123aa9190614a06565b1115612438576040517f08c379a000000000000000000000000000000000000000000000000000000000815260206004820152602c60248201527f7365742074726561737572792070657263656e743a20746f74616c207065726360448201527f656e74206f766572206d6178000000000000000000000000000000000000000060648201526084016106fb565b600e5460408051918252602082018390527f204a076f4a2e4e5e646bb8841cc285306bf747e277f40dbfd5750e782e17b7a6910160405180910390a1600e55565b60006124858383614a94565b9392505050565b60005473ffffffffffffffffffffffffffffffffffffffff16331461250d576040517f08c379a000000000000000000000000000000000000000000000000000000000815260206004820181905260248201527f4f776e61626c653a2063616c6c6572206973206e6f7420746865206f776e657260448201526064016106fb565b6103e881111561259f576040517f08c379a000000000000000000000000000000000000000000000000000000000815260206004820152602760248201527f736574207465616d2070657263656e743a20696e76616c69642070657263656e60448201527f742076616c75650000000000000000000000000000000000000000000000000060648201526084016106fb565b6103e8600f5482600e546125b39190614a06565b6125bd9190614a06565b111561264b576040517f08c379a000000000000000000000000000000000000000000000000000000000815260206004820152602860248201527f736574207465616d2070657263656e743a20746f74616c2070657263656e742060448201527f6f766572206d617800000000000000000000000000000000000000000000000060648201526084016106fb565b600d5460408051918252602082018390527f204a076f4a2e4e5e646bb8841cc285306bf747e277f40dbfd5750e782e17b7a6910160405180910390a1600d55565b600b5473ffffffffffffffffffffffffffffffffffffffff16331461270d576040517f08c379a000000000000000000000000000000000000000000000000000000000815260206004820152601a60248201527f73657420747265617375727920616464726573733a207775743f00000000000060448201526064016106fb565b600b80547fffffffffffffffffffffffff00000000000000000000000000000000000000001673ffffffffffffffffffffffffffffffffffffffff831690811790915560405133907f61885cdba916be748ff3e3f6f15e4206153b8ea3b7acabade9d04b4063a8351090600090a350565b60005473ffffffffffffffffffffffffffffffffffffffff1633146127ff576040517f08c379a000000000000000000000000000000000000000000000000000000000815260206004820181905260248201527f4f776e61626c653a2063616c6c6572206973206e6f7420746865206f776e657260448201526064016106fb565b6007544310612890576040517f08c379a000000000000000000000000000000000000000000000000000000000815260206004820152602260248201527f73746172744661726d696e673a206661726d207374617274656420616c72656160448201527f647900000000000000000000000000000000000000000000000000000000000060648201526084016106fb565b60045460005b81811015612905576000600482815481106128da577f4e487b7100000000000000000000000000000000000000000000000000000000600052603260045260246000fd5b9060005260206000209060080201905043816002018190555050806128fe90614ad7565b9050612896565b505043600755565b60005b8181101561297257612962838383818110612954577f4e487b7100000000000000000000000000000000000000000000000000000000600052603260045260246000fd5b905060200201356000612977565b61296b81614ad7565b9050612910565b505050565b600260015414156129e4576040517f08c379a000000000000000000000000000000000000000000000000000000000815260206004820152601f60248201527f5265656e7472616e637947756172643a207265656e7472616e742063616c6c0060448201526064016106fb565b600260015560045482908110612a56576040517f08c379a000000000000000000000000000000000000000000000000000000000815260206004820152601360248201527f506f6f6c20646f6573206e6f742065786973740000000000000000000000000060448201526064016106fb565b600060048481548110612a92577f4e487b7100000000000000000000000000000000000000000000000000000000600052603260045260246000fd5b60009182526020808320878452600582526040808520338652909252922060089091029091019150612ac385611782565b612acc856139e5565b8315612d145781546040517f70a0823100000000000000000000000000000000000000000000000000000000815230600482015260009173ffffffffffffffffffffffffffffffffffffffff16906370a082319060240160206040518083038186803b158015612b3b57600080fd5b505afa158015612b4f573d6000803e3d6000fd5b505050506040513d601f19601f82011682018060405250810190612b73919061475e565b8354909150612b9a9073ffffffffffffffffffffffffffffffffffffffff16333088613d79565b82546040517f70a0823100000000000000000000000000000000000000000000000000000000815230600482015260009173ffffffffffffffffffffffffffffffffffffffff16906370a082319060240160206040518083038186803b158015612c0357600080fd5b505afa158015612c17573d6000803e3d6000fd5b505050506040513d601f19601f82011682018060405250810190612c3b919061475e565b9050612c478282614a94565b600485015490965061ffff1615612cb657600484015460009061271090612c729061ffff1689614a57565b612c7c9190614a1e565b600b548654919250612ca89173ffffffffffffffffffffffffffffffffffffffff908116911683613b94565b612cb28188614a94565b9650505b8254612cc3908790614a06565b83556006840154612cd5908790614a06565b6006850155600254845473ffffffffffffffffffffffffffffffffffffffff90811691161415612d115785600954612d0d9190614a06565b6009555b50505b6003820154815464e8d4a5100091612d2b91614a57565b612d359190614a1e565b600182015560005b6007830154811015612e2c57826007018181548110612d85577f4e487b7100000000000000000000000000000000000000000000000000000000600052603260045260246000fd5b60009182526020909120015482546040517f9cd00977000000000000000000000000000000000000000000000000000000008152336004820152602481019190915273ffffffffffffffffffffffffffffffffffffffff90911690639cd0097790604401600060405180830381600087803b158015612e0357600080fd5b505af1158015612e17573d6000803e3d6000fd5b5050505080612e2590614ad7565b9050612d3d565b50604051848152859033907f90890809c654f11d6e72a28fa60149770a0d11ec6c92319d6ceb2bb0a4ea1a159060200161128c565b60005473ffffffffffffffffffffffffffffffffffffffff163314612ee2576040517f08c379a000000000000000000000000000000000000000000000000000000000815260206004820181905260248201527f4f776e61626c653a2063616c6c6572206973206e6f7420746865206f776e657260448201526064016106fb565b612eea611e87565b3373ffffffffffffffffffffffffffffffffffffffff167f802633c8d26237616d81bdac01bc40fcdf36e098832601582ec19d7e431c5ef360048481548110612f5c577f4e487b7100000000000000000000000000000000000000000000000000000000600052603260045260246000fd5b90600052602060002090600802016001015483604051612f86929190918252602082015260400190565b60405180910390a28060048381548110612fc9577f4e487b7100000000000000000000000000000000000000000000000000000000600052603260045260246000fd5b906000526020600020906008020160010154600654612fe89190614a94565b612ff29190614a06565b6006819055508060048381548110613033577f4e487b7100000000000000000000000000000000000000000000000000000000600052603260045260246000fd5b9060005260206000209060080201600101819055505050565b60005473ffffffffffffffffffffffffffffffffffffffff1633146130cd576040517f08c379a000000000000000000000000000000000000000000000000000000000815260206004820181905260248201527f4f776e61626c653a2063616c6c6572206973206e6f7420746865206f776e657260448201526064016106fb565b73ffffffffffffffffffffffffffffffffffffffff8116613170576040517f08c379a000000000000000000000000000000000000000000000000000000000815260206004820152602660248201527f4f776e61626c653a206e6577206f776e657220697320746865207a65726f206160448201527f646472657373000000000000000000000000000000000000000000000000000060648201526084016106fb565b61317981613d04565b50565b60608060608460048054905081106131f0576040517f08c379a000000000000000000000000000000000000000000000000000000000815260206004820152601360248201527f506f6f6c20646f6573206e6f742065786973740000000000000000000000000060448201526064016106fb565b60006004878154811061322c577f4e487b7100000000000000000000000000000000000000000000000000000000600052603260045260246000fd5b600091825260208083208a845260058252604080852073ffffffffffffffffffffffffffffffffffffffff8c168652909252922060036008909202909201908101546006820154600283015492945090914311801561328a57508015155b156132f857600061329f856002015443612479565b905060006006548660010154600354846132b99190614a57565b6132c39190614a57565b6132cd9190614a1e565b9050826132df8264e8d4a51000614a57565b6132e99190614a1e565b6132f39085614a06565b935050505b60008360020154846001015464e8d4a5100085876000015461331a9190614a57565b6133249190614a1e565b61332e9190614a94565b6133389190614a06565b600786015490915061334b906001614a06565b67ffffffffffffffff81111561338a577f4e487b7100000000000000000000000000000000000000000000000000000000600052604160045260246000fd5b6040519080825280602002602001820160405280156133b3578160200160208202803683370190505b5060078601549099506133c7906001614a06565b67ffffffffffffffff811115613406577f4e487b7100000000000000000000000000000000000000000000000000000000600052604160045260246000fd5b60405190808252806020026020018201604052801561343957816020015b60608152602001906001900390816134245790505b50600786015490985061344d906001614a06565b67ffffffffffffffff81111561348c577f4e487b7100000000000000000000000000000000000000000000000000000000600052604160045260246000fd5b6040519080825280602002602001820160405280156134b5578160200160208202803683370190505b506002548a5191985073ffffffffffffffffffffffffffffffffffffffff16908a9060009061350d577f4e487b7100000000000000000000000000000000000000000000000000000000600052603260045260246000fd5b73ffffffffffffffffffffffffffffffffffffffff928316602091820292909201015260025461353d9116613ef2565b88600081518110613577577f4e487b7100000000000000000000000000000000000000000000000000000000600052603260045260246000fd5b602002602001018190525080876000815181106135bd577f4e487b7100000000000000000000000000000000000000000000000000000000600052603260045260246000fd5b60200260200101818152505060005b60078601548110156139cd57856007018181548110613614577f4e487b7100000000000000000000000000000000000000000000000000000000600052603260045260246000fd5b60009182526020918290200154604080517ff7c618c1000000000000000000000000000000000000000000000000000000008152905173ffffffffffffffffffffffffffffffffffffffff9092169263f7c618c192600480840193829003018186803b15801561368357600080fd5b505afa158015613697573d6000803e3d6000fd5b505050506040513d601f19601f820116820180604052508101906136bb9190614663565b8a6136c7836001614a06565b815181106136fe577f4e487b7100000000000000000000000000000000000000000000000000000000600052603260045260246000fd5b602002602001019073ffffffffffffffffffffffffffffffffffffffff16908173ffffffffffffffffffffffffffffffffffffffff1681525050613839866007018281548110613777577f4e487b7100000000000000000000000000000000000000000000000000000000600052603260045260246000fd5b60009182526020918290200154604080517ff7c618c1000000000000000000000000000000000000000000000000000000008152905173ffffffffffffffffffffffffffffffffffffffff9092169263f7c618c192600480840193829003018186803b1580156137e657600080fd5b505afa1580156137fa573d6000803e3d6000fd5b505050506040513d601f19601f8201168201806040525081019061381e9190614663565b73ffffffffffffffffffffffffffffffffffffffff16613ef2565b89613845836001614a06565b8151811061387c577f4e487b7100000000000000000000000000000000000000000000000000000000600052603260045260246000fd5b60200260200101819052508560070181815481106138c3577f4e487b7100000000000000000000000000000000000000000000000000000000600052603260045260246000fd5b6000918252602090912001546040517fc031a66f00000000000000000000000000000000000000000000000000000000815273ffffffffffffffffffffffffffffffffffffffff8d811660048301529091169063c031a66f9060240160206040518083038186803b15801561393757600080fd5b505afa15801561394b573d6000803e3d6000fd5b505050506040513d601f19601f8201168201806040525081019061396f919061475e565b8861397b836001614a06565b815181106139b2577f4e487b7100000000000000000000000000000000000000000000000000000000600052603260045260246000fd5b60209081029190910101526139c681614ad7565b90506135cc565b505050505050509250925092565b803b15155b919050565b600060048281548110613a21577f4e487b7100000000000000000000000000000000000000000000000000000000600052603260045260246000fd5b600091825260208083208584526005825260408085203386529092529220600381015460089092029092019250158015613a5d57506007544310155b15613a77576005820154613a719042614a06565b60038201555b6000816001015464e8d4a5100084600301548460000154613a989190614a57565b613aa29190614a1e565b613aac9190614a94565b9050613ab88433610c95565b15613b2a576000811180613ad0575060008260020154115b15613b25576000826002015482613ae79190614a06565b90508260020154600854613afb9190614a94565b600855600060028401556005840154613b149042614a06565b6003840155613b23338261400a565b505b613b8e565b8015613b8e57808260020154613b409190614a06565b6002830155600854613b53908290614a06565b600855604051818152849033907fee470483107f579a55c754fa00613c45a9a3b617a418b39cb0be97e5381ba7c19060200160405180910390a35b50505050565b6040805173ffffffffffffffffffffffffffffffffffffffff8481166024830152604480830185905283518084039091018152606490920183526020820180517bffffffffffffffffffffffffffffffffffffffffffffffffffffffff167fa9059cbb000000000000000000000000000000000000000000000000000000001790529151600092839290871691613c2b91906148f6565b6000604051808303816000865af19150503d8060008114613c68576040519150601f19603f3d011682016040523d82523d6000602084013e613c6d565b606091505b5091509150818015613c97575080511580613c97575080806020019051810190613c979190614643565b613cfd576040517f08c379a000000000000000000000000000000000000000000000000000000000815260206004820152601c60248201527f426f72696e6745524332303a205472616e73666572206661696c65640000000060448201526064016106fb565b5050505050565b6000805473ffffffffffffffffffffffffffffffffffffffff8381167fffffffffffffffffffffffff0000000000000000000000000000000000000000831681178455604051919092169283917f8be0079c531659141344cd1fd0a4f28419497f9722a3daafe3b4186f6b6457e09190a35050565b6040805173ffffffffffffffffffffffffffffffffffffffff85811660248301528481166044830152606480830185905283518084039091018152608490920183526020820180517bffffffffffffffffffffffffffffffffffffffffffffffffffffffff167f23b872dd000000000000000000000000000000000000000000000000000000001790529151600092839290881691613e1891906148f6565b6000604051808303816000865af19150503d8060008114613e55576040519150601f19603f3d011682016040523d82523d6000602084013e613e5a565b606091505b5091509150818015613e84575080511580613e84575080806020019051810190613e849190614643565b613eea576040517f08c379a000000000000000000000000000000000000000000000000000000000815260206004820181905260248201527f426f72696e6745524332303a205472616e7366657246726f6d206661696c656460448201526064016106fb565b505050505050565b60408051600481526024810182526020810180517bffffffffffffffffffffffffffffffffffffffffffffffffffffffff167f95d89b41000000000000000000000000000000000000000000000000000000001790529051606091600091829173ffffffffffffffffffffffffffffffffffffffff861691613f7491906148f6565b600060405180830381855afa9150503d8060008114613faf576040519150601f19603f3d011682016040523d82523d6000602084013e613fb4565b606091505b509150915081613ff9576040518060400160405280600381526020017f3f3f3f0000000000000000000000000000000000000000000000000000000000815250614002565b614002816141c0565b949350505050565b6009546002546040517f70a0823100000000000000000000000000000000000000000000000000000000815230600482015273ffffffffffffffffffffffffffffffffffffffff909116906370a082319060240160206040518083038186803b15801561407657600080fd5b505afa15801561408a573d6000803e3d6000fd5b505050506040513d601f19601f820116820180604052508101906140ae919061475e565b1115611c4a576009546002546040517f70a082310000000000000000000000000000000000000000000000000000000081523060048201526000929173ffffffffffffffffffffffffffffffffffffffff16906370a082319060240160206040518083038186803b15801561412257600080fd5b505afa158015614136573d6000803e3d6000fd5b505050506040513d601f19601f8201168201806040525081019061415a919061475e565b6141649190614a94565b9050808210614196576002546141919073ffffffffffffffffffffffffffffffffffffffff168483613b94565b612972565b8115612972576002546129729073ffffffffffffffffffffffffffffffffffffffff168484613b94565b606060408251106141e657818060200190518101906141df919061467f565b90506139e0565b81516020141561443b5760005b60208160ff161080156142675750828160ff168151811061423d577f4e487b7100000000000000000000000000000000000000000000000000000000600052603260045260246000fd5b01602001517fff000000000000000000000000000000000000000000000000000000000000001615155b1561427e578061427681614b10565b9150506141f3565b60008160ff1667ffffffffffffffff8111156142c3577f4e487b7100000000000000000000000000000000000000000000000000000000600052604160045260246000fd5b6040519080825280601f01601f1916602001820160405280156142ed576020820181803683370190505b509050600091505b60208260ff161080156143695750838260ff168151811061433f577f4e487b7100000000000000000000000000000000000000000000000000000000600052603260045260246000fd5b01602001517fff000000000000000000000000000000000000000000000000000000000000001615155b1561443257838260ff16815181106143aa577f4e487b7100000000000000000000000000000000000000000000000000000000600052603260045260246000fd5b602001015160f81c60f81b818360ff16815181106143f1577f4e487b7100000000000000000000000000000000000000000000000000000000600052603260045260246000fd5b60200101907effffffffffffffffffffffffffffffffffffffffffffffffffffffffffffff1916908160001a9053508161442a81614b10565b9250506142f5565b91506139e09050565b5060408051808201909152600381527f3f3f3f000000000000000000000000000000000000000000000000000000000060208201526139e0565b8280548282559060005260206000209081019282156144ed579160200282015b828111156144ed5781547fffffffffffffffffffffffff00000000000000000000000000000000000000001673ffffffffffffffffffffffffffffffffffffffff843516178255602090920191600190910190614495565b506144f9929150614577565b5090565b8280548282559060005260206000209081019282156144ed579160200282015b828111156144ed57825182547fffffffffffffffffffffffff00000000000000000000000000000000000000001673ffffffffffffffffffffffffffffffffffffffff90911617825560209092019160019091019061451d565b5b808211156144f95760008155600101614578565b60008083601f84011261459d578081fd5b50813567ffffffffffffffff8111156145b4578182fd5b60208301915083602080830285010111156145ce57600080fd5b9250929050565b803561ffff811681146139e057600080fd5b6000602082840312156145f8578081fd5b813561248581614b8e565b60008060208385031215614615578081fd5b823567ffffffffffffffff81111561462b578182fd5b6146378582860161458c565b90969095509350505050565b600060208284031215614654578081fd5b81518015158114612485578182fd5b600060208284031215614674578081fd5b815161248581614b8e565b600060208284031215614690578081fd5b815167ffffffffffffffff808211156146a7578283fd5b818401915084601f8301126146ba578283fd5b8151818111156146cc576146cc614b5f565b604051601f82017fffffffffffffffffffffffffffffffffffffffffffffffffffffffffffffffe0908116603f0116810190838211818310171561471257614712614b5f565b8160405282815287602084870101111561472a578586fd5b61473b836020830160208801614aab565b979650505050505050565b600060208284031215614757578081fd5b5035919050565b60006020828403121561476f578081fd5b5051919050565b60008060408385031215614788578182fd5b82359150602083013561479a81614b8e565b809150509250929050565b60008060008060008060a087890312156147bd578182fd5b8635955060208701356147cf81614b8e565b94506147dd604088016145d5565b935060608701359250608087013567ffffffffffffffff8111156147ff578283fd5b61480b89828a0161458c565b979a9699509497509295939492505050565b6000806040838503121561482f578182fd5b50508035926020909101359150565b60008060008060008060a08789031215614856578182fd5b86359550602087013594506147dd604088016145d5565b6000815180845260208085019450808401835b8381101561489c57815187529582019590820190600101614880565b509495945050505050565b60008184825b858110156148eb5781356148c081614b8e565b73ffffffffffffffffffffffffffffffffffffffff16835260209283019291909101906001016148ad565b509095945050505050565b60008251614908818460208701614aab565b9190910192915050565b606080825284519082018190526000906020906080840190828801845b8281101561496157815173ffffffffffffffffffffffffffffffffffffffff168452928401929084019060010161492f565b5050508381038285015285518082528282019080840283018401888501865b838110156149e4577fffffffffffffffffffffffffffffffffffffffffffffffffffffffffffffffe080878503018652825180518086526149c6818b88018c8501614aab565b96890196601f01909116939093018701925090860190600101614980565b505086810360408801526149f8818961486d565b9a9950505050505050505050565b60008219821115614a1957614a19614b30565b500190565b600082614a52577f4e487b710000000000000000000000000000000000000000000000000000000081526012600452602481fd5b500490565b6000817fffffffffffffffffffffffffffffffffffffffffffffffffffffffffffffffff0483118215151615614a8f57614a8f614b30565b500290565b600082821015614aa657614aa6614b30565b500390565b60005b83811015614ac6578181015183820152602001614aae565b83811115613b8e5750506000910152565b60007fffffffffffffffffffffffffffffffffffffffffffffffffffffffffffffffff821415614b0957614b09614b30565b5060010190565b600060ff821660ff811415614b2757614b27614b30565b60010192915050565b7f4e487b7100000000000000000000000000000000000000000000000000000000600052601160045260246000fd5b7f4e487b7100000000000000000000000000000000000000000000000000000000600052604160045260246000fd5b73ffffffffffffffffffffffffffffffffffffffff8116811461317957600080fdfea2646970667358221220bfc53d8afb265ad542946de2eeaadbfa31b4e568076a5c71986db0715f657adb64736f6c63430008020033",
  "devdoc": {
    "kind": "dev",
    "methods": {
      "owner()": {
        "details": "Returns the address of the current owner."
      },
      "renounceOwnership()": {
        "details": "Leaves the contract without owner. It will not be possible to call `onlyOwner` functions anymore. Can only be called by the current owner. NOTE: Renouncing ownership will leave the contract without an owner, thereby removing any functionality that is only available to the owner."
      },
      "transferOwnership(address)": {
        "details": "Transfers ownership of the contract to a new account (`newOwner`). Can only be called by the current owner."
      }
    },
    "version": 1
  },
  "userdoc": {
    "kind": "user",
    "methods": {},
    "version": 1
  },
  "storageLayout": {
    "storage": [
      {
        "astId": 375,
        "contract": "contracts/farm/v2/SolarDistributorV2.sol:SolarDistributorV2",
        "label": "_owner",
        "offset": 0,
        "slot": "0",
        "type": "t_address"
      },
      {
        "astId": 650,
        "contract": "contracts/farm/v2/SolarDistributorV2.sol:SolarDistributorV2",
        "label": "_status",
        "offset": 0,
        "slot": "1",
        "type": "t_uint256"
      },
      {
        "astId": 6261,
        "contract": "contracts/farm/v2/SolarDistributorV2.sol:SolarDistributorV2",
        "label": "solar",
        "offset": 0,
        "slot": "2",
        "type": "t_contract(IBoringERC20)8606"
      },
      {
        "astId": 6263,
        "contract": "contracts/farm/v2/SolarDistributorV2.sol:SolarDistributorV2",
        "label": "solarPerBlock",
        "offset": 0,
        "slot": "3",
        "type": "t_uint256"
      },
      {
        "astId": 6273,
        "contract": "contracts/farm/v2/SolarDistributorV2.sol:SolarDistributorV2",
        "label": "poolInfo",
        "offset": 0,
        "slot": "4",
        "type": "t_array(t_struct(PoolInfo)6258_storage)dyn_storage"
      },
      {
        "astId": 6280,
        "contract": "contracts/farm/v2/SolarDistributorV2.sol:SolarDistributorV2",
        "label": "userInfo",
        "offset": 0,
        "slot": "5",
        "type": "t_mapping(t_uint256,t_mapping(t_address,t_struct(UserInfo)6238_storage))"
      },
      {
        "astId": 6283,
        "contract": "contracts/farm/v2/SolarDistributorV2.sol:SolarDistributorV2",
        "label": "totalAllocPoint",
        "offset": 0,
        "slot": "6",
        "type": "t_uint256"
      },
      {
        "astId": 6285,
        "contract": "contracts/farm/v2/SolarDistributorV2.sol:SolarDistributorV2",
        "label": "startBlock",
        "offset": 0,
        "slot": "7",
        "type": "t_uint256"
      },
      {
        "astId": 6287,
        "contract": "contracts/farm/v2/SolarDistributorV2.sol:SolarDistributorV2",
        "label": "totalLockedUpRewards",
        "offset": 0,
        "slot": "8",
        "type": "t_uint256"
      },
      {
        "astId": 6290,
        "contract": "contracts/farm/v2/SolarDistributorV2.sol:SolarDistributorV2",
        "label": "totalSolarInPools",
        "offset": 0,
        "slot": "9",
        "type": "t_uint256"
      },
      {
        "astId": 6292,
        "contract": "contracts/farm/v2/SolarDistributorV2.sol:SolarDistributorV2",
        "label": "teamAddress",
        "offset": 0,
        "slot": "10",
        "type": "t_address"
      },
      {
        "astId": 6294,
        "contract": "contracts/farm/v2/SolarDistributorV2.sol:SolarDistributorV2",
        "label": "treasuryAddress",
        "offset": 0,
        "slot": "11",
        "type": "t_address"
      },
      {
        "astId": 6296,
        "contract": "contracts/farm/v2/SolarDistributorV2.sol:SolarDistributorV2",
        "label": "investorAddress",
        "offset": 0,
        "slot": "12",
        "type": "t_address"
      },
      {
        "astId": 6298,
        "contract": "contracts/farm/v2/SolarDistributorV2.sol:SolarDistributorV2",
        "label": "teamPercent",
        "offset": 0,
        "slot": "13",
        "type": "t_uint256"
      },
      {
        "astId": 6300,
        "contract": "contracts/farm/v2/SolarDistributorV2.sol:SolarDistributorV2",
        "label": "treasuryPercent",
        "offset": 0,
        "slot": "14",
        "type": "t_uint256"
      },
      {
        "astId": 6302,
        "contract": "contracts/farm/v2/SolarDistributorV2.sol:SolarDistributorV2",
        "label": "investorPercent",
        "offset": 0,
        "slot": "15",
        "type": "t_uint256"
      }
    ],
    "types": {
      "t_address": {
        "encoding": "inplace",
        "label": "address",
        "numberOfBytes": "20"
      },
      "t_array(t_contract(IRewarder)8630)dyn_storage": {
        "base": "t_contract(IRewarder)8630",
        "encoding": "dynamic_array",
        "label": "contract IRewarder[]",
        "numberOfBytes": "32"
      },
      "t_array(t_struct(PoolInfo)6258_storage)dyn_storage": {
        "base": "t_struct(PoolInfo)6258_storage",
        "encoding": "dynamic_array",
        "label": "struct SolarDistributorV2.PoolInfo[]",
        "numberOfBytes": "32"
      },
      "t_contract(IBoringERC20)8606": {
        "encoding": "inplace",
        "label": "contract IBoringERC20",
        "numberOfBytes": "20"
      },
      "t_contract(IRewarder)8630": {
        "encoding": "inplace",
        "label": "contract IRewarder",
        "numberOfBytes": "20"
      },
      "t_mapping(t_address,t_struct(UserInfo)6238_storage)": {
        "encoding": "mapping",
        "key": "t_address",
        "label": "mapping(address => struct SolarDistributorV2.UserInfo)",
        "numberOfBytes": "32",
        "value": "t_struct(UserInfo)6238_storage"
      },
      "t_mapping(t_uint256,t_mapping(t_address,t_struct(UserInfo)6238_storage))": {
        "encoding": "mapping",
        "key": "t_uint256",
        "label": "mapping(uint256 => mapping(address => struct SolarDistributorV2.UserInfo))",
        "numberOfBytes": "32",
        "value": "t_mapping(t_address,t_struct(UserInfo)6238_storage)"
      },
      "t_struct(PoolInfo)6258_storage": {
        "encoding": "inplace",
        "label": "struct SolarDistributorV2.PoolInfo",
        "members": [
          {
            "astId": 6241,
            "contract": "contracts/farm/v2/SolarDistributorV2.sol:SolarDistributorV2",
            "label": "lpToken",
            "offset": 0,
            "slot": "0",
            "type": "t_contract(IBoringERC20)8606"
          },
          {
            "astId": 6243,
            "contract": "contracts/farm/v2/SolarDistributorV2.sol:SolarDistributorV2",
            "label": "allocPoint",
            "offset": 0,
            "slot": "1",
            "type": "t_uint256"
          },
          {
            "astId": 6245,
            "contract": "contracts/farm/v2/SolarDistributorV2.sol:SolarDistributorV2",
            "label": "lastRewardBlock",
            "offset": 0,
            "slot": "2",
            "type": "t_uint256"
          },
          {
            "astId": 6247,
            "contract": "contracts/farm/v2/SolarDistributorV2.sol:SolarDistributorV2",
            "label": "accSolarPerShare",
            "offset": 0,
            "slot": "3",
            "type": "t_uint256"
          },
          {
            "astId": 6249,
            "contract": "contracts/farm/v2/SolarDistributorV2.sol:SolarDistributorV2",
            "label": "depositFeeBP",
            "offset": 0,
            "slot": "4",
            "type": "t_uint16"
          },
          {
            "astId": 6251,
            "contract": "contracts/farm/v2/SolarDistributorV2.sol:SolarDistributorV2",
            "label": "harvestInterval",
            "offset": 0,
            "slot": "5",
            "type": "t_uint256"
          },
          {
            "astId": 6253,
            "contract": "contracts/farm/v2/SolarDistributorV2.sol:SolarDistributorV2",
            "label": "totalLp",
            "offset": 0,
            "slot": "6",
            "type": "t_uint256"
          },
          {
            "astId": 6257,
            "contract": "contracts/farm/v2/SolarDistributorV2.sol:SolarDistributorV2",
            "label": "rewarders",
            "offset": 0,
            "slot": "7",
            "type": "t_array(t_contract(IRewarder)8630)dyn_storage"
          }
        ],
        "numberOfBytes": "256"
      },
      "t_struct(UserInfo)6238_storage": {
        "encoding": "inplace",
        "label": "struct SolarDistributorV2.UserInfo",
        "members": [
          {
            "astId": 6231,
            "contract": "contracts/farm/v2/SolarDistributorV2.sol:SolarDistributorV2",
            "label": "amount",
            "offset": 0,
            "slot": "0",
            "type": "t_uint256"
          },
          {
            "astId": 6233,
            "contract": "contracts/farm/v2/SolarDistributorV2.sol:SolarDistributorV2",
            "label": "rewardDebt",
            "offset": 0,
            "slot": "1",
            "type": "t_uint256"
          },
          {
            "astId": 6235,
            "contract": "contracts/farm/v2/SolarDistributorV2.sol:SolarDistributorV2",
            "label": "rewardLockedUp",
            "offset": 0,
            "slot": "2",
            "type": "t_uint256"
          },
          {
            "astId": 6237,
            "contract": "contracts/farm/v2/SolarDistributorV2.sol:SolarDistributorV2",
            "label": "nextHarvestUntil",
            "offset": 0,
            "slot": "3",
            "type": "t_uint256"
          }
        ],
        "numberOfBytes": "128"
      },
      "t_uint16": {
        "encoding": "inplace",
        "label": "uint16",
        "numberOfBytes": "2"
      },
      "t_uint256": {
        "encoding": "inplace",
        "label": "uint256",
        "numberOfBytes": "32"
      }
    }
  }
}